:020000040800F2
:10000000A006002089160008AF160008B1160008E7
:1000100000000000000000000000000000000000E0
:10002000000000000000000000000000B3160008FF
:100030000000000000000000B5160008B716000818
:10004000B9160008B9160008B9160008B916000854
:10005000B9160008B9160008B9160008B916000844
:10006000B9160008B9160008B9160008B916000834
:10007000B9160008B9160008B9160008B916000824
:10008000B9160008B916000800000000B9160008EB
:10009000B9160008B9160008B9160008B916000804
:1000A000B9160008B9160008B9160008B9160008F4
:1000B000B916000800000000B91600080000000092
:1000C00000F002F800F040F80CA030C808382418FE
:1000D0002D18A246671EAB4654465D46AC4201D180
:1000E00000F032F87E460F3E0FCCB6460126334272
:1000F00000D0FB1AA246AB4633431847E017000076
:1001000000180000103A02D378C878C1FAD8520714
:1001100001D330C830C101D504680C6070470000BD
:100120000023002400250026103A01D378C1FBD813
:10013000520700D330C100D50B6070471FB5C046D1
:10014000C0461FBD10B510BD01F088FB1146FFF77A
:10015000F5FF00F08FF801F0A0FB03B4FFF7F2FF0A
:1001600003BC01F0A5FB00001CB50121480400F010
:100170004BFC022000900121684601710021817131
:100180000221417169460920C00600F00DF90121E4
:10019000480400F039FC04200090002168460171F9
:1001A00081710221417169460920C00600F0FCF806
:1001B0000121480400F028FC082000900121684635
:1001C0000171002181710221417169460920C00637
:1001D00000F0EAF80121880400F016FC10200090DD
:1001E0000121684601710021817102214171694636
:1001F0000920C00600F0D8F80121880400F004FCB2
:1002000020200090012168460171002181710221A6
:10021000417169460920C00600F0C6F80121880432
:1002200000F0F2FBFF2001300090012168460171CF
:1002300000218171022141716946344800F0B4F80F
:100240001CBD10B5FF210131304800F02AF93048BB
:1002500000F058FC00F047FEFF2101312B4800F070
:100260001EF92C4800F04EFCFF210131274800F018
:1002700018F910BD86B028A103C901910090FFF7BD
:1002800073FFFFF7DEFF3FE0052532E0522000F06C
:10029000A7FE0446002C00D02BE000F0E6FE04464A
:1002A000002C00D025E000F064FF0446002C00D0B4
:1002B0001FE0684600F07BFE0446012C00D018E0E9
:1002C00060220121164800F0AAFF0446002C00D04D
:1002D0000FE0042102A801F022F80446002C07D107
:1002E000FF210131094800F0DAF80A4800F00AFC61
:1002F00000BF681EC0B20500C8D1002D04D1FF2187
:100300000131024800F0CDF8BEE7000000040048CB
:100310001027000050C30000FFFFFFFFFFFF000099
:100320001300002010B504460920C006844209D1FC
:100330000121480400F092FB00210120400400F05C
:100340008DFB30E06D48844208D10121000200F0AD
:1003500085FB0021200200F081FB24E068488442F4
:1003600008D10121000200F079FB0021200200F0F9
:1003700075FB18E06348844209D10121080500F0AB
:100380006DFB00210120000500F068FB0BE05E48DA
:10039000844208D10121880500F060FB0021012082
:1003A000800500F05BFB10BDF0B50A46002100237C
:1003B000002400BF3DE001258D402B4615681D40FF
:1003C0002C469C4234D11579012D02D01579022D8D
:1003D00016D185684F000326BE40B5438560557928
:1003E0004E00B540866835438560858801268E407D
:1003F000B5438580858896798E40B6B23543858031
:1004000005684F000326BE40B543056015794E00D0
:10041000B540066835430560C5684F000326BE40F9
:10042000B543C560D5794E00B540C6683543C56053
:10043000491C1029BFD3F0BD34490160002101716E
:100440000221417100218171C171704708B50122FB
:1004500012040092009A0A430092009AC261C1619C
:10046000009AC261C2690092C269009208BD024648
:100470000020138A0B4201D0012000E000207047C9
:100480000146088A704702460020938A0B4201D039
:10049000012000E0002070470146888A7047816192
:1004A000704701857047002A01D0816100E0018515
:1004B000704781827047F0B5002300244D07EE0E8F
:1004C0001546B5402B46CD10AE0005462035AD593A
:1004D0004E07F70E0F26BE40B543CE10B6000746B6
:1004E0002037BD51CD10AE003D46AD591D432C46C1
:1004F000CD10AD003E467451F0BD00000004004830
:1005000000080048000C004800140048FFFF0000ED
:10051000FD48006801210843FB490860084640681F
:10052000FA490840F849486008460068F849084018
:10053000F549086008460068012189048843F249AA
:100540000860084640683F2109048843EE49486036
:100550000846C06A00090001C8620846006BFF2116
:1005600054318843E84908630846406B400840001E
:1005700048630020886070470021E34A917011466B
:100580008870704710B502460021002300205111E9
:10059000002902D1DC4C23680BE0012902D1DA4C9E
:1005A000236A06E0022902D1D74C636A01E0D64CE7
:1005B000636BD106C90E01248C401C4201D001207E
:1005C00000E0002010BD38B5002000900024002578
:1005D00000BF1120FFF7D6FF05460098401C009091
:1005E000052109030098884201D0002DF1D0112087
:1005F000FFF7C8FF002801D0012400E000242046B6
:1006000038BD01460020C04A1068F82302469A43CC
:100610001046CA001043BC4A10607047002806D03C
:10062000B949096801221143B74A116005E0B6498A
:10063000096849084900B44A116070470146002022
:10064000B14A506BF82302469A431046CA00104341
:10065000AD4A50637047002806D0AB49496B012270
:100660001143A94A516305E0A749496B490849006C
:10067000A54A51637047002806D0A349496B04225C
:100680009143A14A516305E09F49496B04221143FC
:100690009D4A516370479C49096A490849009A4A32
:1006A00011621146096A04229143974A1162114668
:1006B000096A0143116270479349096A18229143FC
:1006C000914A11621146096A01431162704700287C
:1006D00006D08D49496A012211438B4A516205E0D7
:1006E0008949496A49084900874A51627047864AE0
:1006F00052683D231B049A43834B5A601A46526842
:1007000003460B431A43804B5A607047002807D0BA
:100710007D4909680122120611437B4A116006E0F7
:1007200079490968012212069143774A116070479E
:1007300001460020744AD06A0009000102460A43BB
:100740001046714AD0627047002807D06E49096888
:100750000122D20411436C4A116006E06A4909681B
:100760000122D2049143684A116070476649C871FA
:10077000704701460020644A5068800880000246A5
:100780000A431046604A506070475F4840680C2139
:1007900008407047014600205B4A5068F02302463B
:1007A0009A43104602460A431046574A5060704723
:1007B00001460020544A506807231B0202469A4310
:1007C000104602460A4310464F4A506070474E4951
:1007D00049680122920391434B4A5160114649688E
:1007E00082B21143484A51601146096B92159143F8
:1007F000454A11631146096B020C1143424A1163C9
:1008000070474149096B402291433F4A11631146A9
:10081000096B0143116370473B49096B10229143F7
:10082000394A11631146096B014311637047364918
:10083000096B89088900344A11631146096B014329
:1008400011637047FEB50446002500260020019084
:10085000009000272C4840680C2108400546002DD8
:1008600004D0042D05D0082D28D105E029482060AA
:1008700027E02848206024E0234840680F218904AD
:1008800008400646204840680121090408400190BC
:10089000B00C861C0198002803D11F4870432060CB
:1008A0000BE01948C06A0007000F401C009019486F
:1008B000009900F023FF7043206002E0154820609B
:1008C00000BF00BF10484068F021084005462D09D0
:1008D0001248475D2068F84060600B484068072177
:1008E0000902084005462D0A0C48475D6068F8403B
:1008F000A0600548006BFF2101310840884211D0FB
:100900000748E0601CE00000001002400CB8FFF84F
:10091000FFFFF6FE00127A0000093D0000000020F3
:10092000809FD500744840680121890308408842AF
:1009300003D0A0684008E06002E0A0688008E060A2
:100940006D48006B40210840402802D06B48206170
:1009500002E00120C00320616748006B10210840BD
:10096000102802D06648606101E02068606162483A
:10097000006B8007800F02D1A068A06119E05E487B
:10098000006B8007800F012802D12068A06110E071
:100990005948006B8007800F022802D18003A061B4
:1009A00007E05548006B8007800F032801D15448A9
:1009B000A061FEBD5049096A01434F4A1162704768
:1009C000002807D04C49096A0122D20311434A4A40
:1009D000116206E04849096A0122D2039143464A5E
:1009E00011627047002807D04349096A01221204A6
:1009F0001143414A116206E03F49096A012212048B
:100A000091433D4A11627047002905D03A4A526924
:100A10000243394B5A6104E0374A52698243364BEC
:100A20005A617047002905D0334A92690243324B1C
:100A30009A6104E0304A926982432F4B9A61704771
:100A4000002905D02C4AD26902432B4BDA6104E01D
:100A5000294AD2698243284BDA617047002905D0C0
:100A6000254A926A0243244B9A6204E0224A926A1F
:100A70008243214B9A627047002905D01E4AD268F2
:100A800002431D4BDA6004E01B4AD26882431A4BD2
:100A9000DA607047002905D0174A12690243164BE5
:100AA0001A6104E0144A12698243134B1A617047B9
:100AB000002905D0104A527A02430F4B5A7204E0C3
:100AC0000D4A527A82430C4B5A7270470A48406A68
:100AD0000121090608430849486270470146002081
:100AE000054A92680A4201D0012000E000207047C8
:100AF0000149887270470000001002401280000017
:100B000000127A00002106E0002201E0531CDAB254
:100B1000642AFBDB491C8142F6D37047F8B50446D2
:100B20000025002700BF00262BE08020204007463C
:100B3000802F05D108210920C006FFF7B0FC04E092
:100B400008210920C006FFF7ACFC6006040E680609
:100B5000050E04210920C006FFF789FC012801D1F8
:100B6000681CC5B210210920C006FFF798FC0120BF
:100B7000FFF7C8FF10210920C006FFF792FC701C88
:100B8000C6B2082ED1DB2846F8BD70B50446002554
:100B900026E00120FFF7B6FF802026460640802E83
:100BA00005D108210920C006FFF779FC04E00821DF
:100BB0000920C006FFF775FC0120FFF7A3FF1021F5
:100BC0000920C006FFF76BFC6006040E0120FFF74A
:100BD00099FF10210920C006FFF763FC681CC5B20D
:100BE000082DD6DB70BD70B504466006040E80206B
:100BF000044320210920C006FFF753FC2046FFF7DD
:100C0000C4FF0020FFF78AFF054620210920C00607
:100C1000FFF745FC284670BD70B504460D466006DA
:100C2000040E6406640E20210920C006FFF739FC7B
:100C30002046FFF7AAFF2846FFF7A7FF202109203B
:100C4000C006FFF72CFC70BD70B50920FFF7CBFF85
:100C500004460120044321460920FFF7DDFF00255B
:100C600008E00420FFF7BFFF0446002C01D101205B
:100C700070BD6D1C7F2DF4D30020F9E770B50546DB
:100C80000E46002405E0315D0220FFF7C5FF601C21
:100C9000C4B2AC42F7DB70BD70B506460420FFF766
:100CA000A2FF0446002C00D170BD182C00DB1824D4
:100CB000002505E00220FFF796FF7055681CC5B2BD
:100CC000A542F7DB2046EFE701460A784B78002A79
:100CD00003D0002B01D1012070470020FCE7002247
:100CE000002104E0F748405C4240481CC1B205299D
:100CF000F8DB002A01D1012070470020FCE7F7B59E
:100D000004460D46002C0DD1002D0BD100BF05E08F
:100D1000ED4B1B5CEB4E3354431CD8B2029B984204
:100D2000F6DB49E0E84B1978631EE64EF25C2B00D7
:100D300000F0C5FD0805090E13181D22272C0022FE
:100D4000631CDCB223E0FE231940D207D20F1EE061
:100D5000FC2319409207920F19E0F823194052071B
:100D6000520F14E0F02319401207120F0FE0E02396
:100D70001940D206D20E0AE0C02319409206920E04
:100D800005E0802319405206520E00E000BF00BF6C
:100D9000CD4B197013460B43661ECA4FBB5501203D
:100DA00007E0C94B1E5C631E1B18C64FFE54431C54
:100DB000D8B2029B9842F4DBFEBD70B504460D46E6
:100DC000230000F07CFD0504080C101418002020FE
:100DD000BD49487010E03020BB4948700CE040200D
:100DE000B949487008E05020B749487004E06020D5
:100DF000B549487000E000BF00BF2B0000F05FFD68
:100E000008050A15202B36414C5700210F20FFF70B
:100E100003FF4DE011210F20FFF7FEFEAA484078A6
:100E200001210843A849487042E022210F20FFF722
:100E3000F3FEA548407802210843A349487037E0F3
:100E400033210F20FFF7E8FE9F4840780321084335
:100E50009D4948702CE044210F20FFF7DDFE9A48A1
:100E60004078042108439849487021E055210F201B
:100E7000FFF7D2FE94484078052108439249487014
:100E800016E066210F20FFF7C7FE8F484078062145
:100E900008438D4948700BE077210F20FFF7BCFE17
:100EA00089484078072108438749487000E000BF1F
:100EB00000BF70BD70B580210020FFF7ADFE00259A
:100EC0000DE00120FFF78FFE0446002C05D1002124
:100ED0000846FFF7A1FE012070BD681CC5B27F2D3A
:100EE000EFDB0020F8E710B502210920C006FFF76C
:100EF000D6FA002400E0641C74488442FBD302212B
:100F00000920C006FFF7CDFA002400E0641C6F48FA
:100F10008442FBD310210920C006FFF7C2FAFFF775
:100F2000C9FF10BDF7B50546164600210120FFF7A1
:100F300073FEFFF789FE002D03D028460199FFF7C5
:100F40009DFE0420FFF74FFE074631460120FFF7C4
:100F500063FE002408E00120FFF745FE0746002F4E
:100F600001D10120FEBD641C7F2CF4D30020F9E7E1
:100F700070B502460B4600210024002500BF12E098
:100F8000505C0407240F505C0511E043000120432E
:100F9000C6B24800401C1E54E843000128434E00DE
:100FA0009855481CC1B20629EADB002070BD7FB508
:100FB000044669462046FFF7DBFF192269460C20EC
:100FC000FFF7B0FF05460A20FFF70DFE402108405D
:100FD0000546402D02D1002004B070BD0120FBE782
:100FE00070B5044658211120FFF716FE0120FFF7C7
:100FF00089FD5B211120FFF70FFE63212320FFF7FE
:101000000BFE3F211220FFF707FE2F480470072137
:101010000F20FFF701FE03212220FFF7FDFD5B21DA
:101020001120FFF7F9FD01210920FFF7F5FD1E2230
:1010300025490120FFF776FF0546002D01D101204B
:1010400070BD2148FFF728FE1F48FFF73DFE05460B
:10105000012D08D11C4800781D4908701A484078B5
:1010600048700020ECE71520EAE7F8B500270020DB
:101070000090002563212320FFF7CEFD3F211220A1
:10108000FFF7CAFD3F211320FFF7C6FD93200E494D
:1010900008702020487003212220FFF7BDFD1E228A
:1010A00009490220FFF73EFF044661E0002C01D110
:1010B0000120F8BD0420FFF796FD0446002C09D15D
:1010C0000C20F6E71300002030000020FF3F000056
:1010D00011000020E948FFF7DFFD2246384600995D
:1010E000FFF70DFE0A20FFF77EFD0446E407E40F3C
:1010F000002C08D1FFF7F3FD0446002C01D1082095
:10110000D7E70020D5E70B20FFF76DFD044620460A
:10111000E117490F0918CF10E117490F0918C91035
:10112000C900611AC9B200919320D4490870791995
:10113000C8B20099FFF741FEE819C5B2002606E0E3
:10114000CF48815DCD4AB01C1154701CC6B2681CDA
:101150008642F5DB0098002802D0681CC7B200E088
:101160002F46B91CC8B21E22C449FFF7DBFE044655
:101170009CE770B563212320FFF74EFD3F2112202D
:10118000FFF74AFD9320BD49087070204870002584
:1011900006E0BB48415DB94AA81C1154681CC5B2A1
:1011A000052DF6DB0F212220FFF736FD1E22B34965
:1011B0000720FFF7B7FE0446002C01D1012070BDC7
:1011C0000A20FFF710FD044602202040022801D12A
:1011D0000520F4E704202040042801D11420EEE784
:1011E00008202040082801D10220E8E70420FFF76A
:1011F000FAFC0446012C01D00C20E0E79F48FFF7E1
:101200004BFD9E480478082C05D0882C03D0532C25
:1012100001D0182C01D10020D1E71620CFE7F7B577
:10122000074663212320FFF7F7FC3F211220FFF739
:10123000F3FC3F211320FFF7EFFC0920FFF7D3FC5D
:101240000646F720064031460920FFF7E5FC0298E4
:10125000612802D18949087002E06020874908703E
:1012600001988000C01C85494870002505E0795D23
:10127000A81C824A1154681CC5B2042DF7DB0F214B
:101280002220FFF7C9FC0C227C490620FFF74AFE0A
:101290000446002C01D10120FEBD0A20FFF7A3FC6B
:1012A000044602202040022801D10520F4E7042052
:1012B0002040042801D11420EEE70820204008280F
:1012C00001D10220E8E714226C490020FFF72AFE32
:1012D0000446002C01D10120DEE70A20FFF783FC41
:1012E000044602202040022801D10520D4E7042032
:1012F0002040042801D11420CEE7082020400828EF
:1013000001D10220C8E70920FFF76DFC064608203E
:101310000640082E01D10020BEE70420BCE770B5CE
:1013200005460E4663212320FFF776FC3F2112205D
:10133000FFF772FC3F211320FFF76EFC0F212220E4
:10134000FFF76AFC302028706E701E2229460220AA
:10135000FFF7E8FD0446002C01D1012070BD0A20F2
:10136000FFF741FC044602202040022801D105205D
:10137000F4E704202040042801D11420EEE70820DF
:101380002040082801D10220E8E70420FFF72BFCC9
:101390000446102C04D12846FFF77EFC0020DDE730
:1013A000042C04D12846FFF777FC0020D6E70C2058
:1013B000D4E7F8B505460E4663212320FFF72CFC41
:1013C0003F211220FFF728FC07212220FFF724FCF1
:1013D000A0216846017046701E2269460220FFF770
:1013E000A1FD0446002C01D10120F8BD0420FFF727
:1013F000FAFB0446002C01D10C20F6E76846FFF703
:101400004BFC68460478042C0CD004DC002C07D07C
:10141000012C0ED109E0052C09D00A2C09D103E0DA
:101420000A20E2E70320E0E705E00220DDE70520EF
:10143000DBE70F20D9E700BF1E2229461020FFF767
:1014400071FD0446012C01D10020CEE70A20FFF7F0
:10145000CAFB044602202040022801D10520C4E72F
:1014600004202040042801D11420BEE70820204099
:10147000082801D10220B8E70F20B6E7300000208D
:10148000130000200CB50020019000907648006801
:101490000121090408437449086000BF72480068CC
:1014A00001214904084000900198401C01900098D7
:1014B000002804D10521090301988842EED16A4829
:1014C000006801214904084202D00120009001E097
:1014D000002000900098012841D164480068102144
:1014E00008436249086008460068012108435F49D3
:1014F00008605D4840685C4948600846406848604C
:10150000084640683F210904884357494860084617
:10151000406811210904084353494860084600689F
:101520000121090608435049086000BF4E48006881
:10153000012149060842F9D04B48406880088000E4
:1015400049494860084640680221084346494860C6
:1015500000BF454840680C2108400828F9D10CBD5F
:1015600010B541480068012108433F49086008461A
:1015700040683F4908403C494860084600683D498A
:1015800008403949086008460068012189048843F9
:1015900035490860084640683F21090488433249BC
:1015A00048600846C06A00090001C8620846006B2E
:1015B000FF21543188432C4908630846406B40089A
:1015C0004000486300208860FFF75CFF10BDF8B55D
:1015D0000025002400260027234840680C210840ED
:1015E0000546002D04D0042D06D0082D2AD107E091
:1015F00021482249086029E01F482049086025E069
:10160000194840680F21890408400446164840687C
:101610000121090408400646A00C841C002E04D1B8
:1016200017486043154908600BE00F48C06A00077F
:10163000000F471C3946104800F060F860430F491E
:10164000086003E00C480D49086000BF00BF064871
:101650004068F021084000090A490D5C074800680D
:10166000E84006490860F8BD001002400020024032
:101670000CB8FFF8FFFFF6FE00127A001C000020F5
:1016800000093D00200000200F4880F308880F4823
:101690000168090E0E4A914205D10E480E490160BB
:1016A0000E480F4901600F4880470F480047FEE78A
:1016B000FEE7FEE7FEE7FEE7FEE700000B480C4909
:1016C0000C4A0D4B70470000A006002004000000EB
:1016D0001F0000001810024001000000000001403F
:1016E0000000000061150008C1000008A0000020F3
:1016F000A0060020A0020020A00200200022030972
:101700008B422CD3030A8B4211D300239C464EE01C
:1017100003460B433CD4002243088B4231D30309D8
:101720008B421CD3030A8B4201D394463FE0C3098A
:101730008B4201D3CB01C01A524183098B4201D3A2
:101740008B01C01A524143098B4201D34B01C01A8D
:10175000524103098B4201D30B01C01A5241C30805
:101760008B4201D3CB00C01A524183088B4201D374
:101770008B00C01A524143088B4201D34B00C01A60
:101780005241411A00D201465241104670475DE075
:10179000CA0F00D04942031000D3404253400022F8
:1017A0009C4603098B422DD3030A8B4212D3FC22A1
:1017B000890112BA030A8B420CD3890192118B4220
:1017C00008D3890192118B4204D389013AD0921136
:1017D00000E08909C3098B4201D3CB01C01A5241F1
:1017E00083098B4201D38B01C01A524143098B42BA
:1017F00001D34B01C01A524103098B4201D30B01A3
:10180000C01A5241C3088B4201D3CB00C01A5241C7
:1018100083088B4201D38B00C01A5241D9D24308AE
:101820008B4201D34B00C01A5241411A00D20146EB
:10183000634652415B10104601D34042002B00D555
:101840004942704763465B1000D3404201B5002017
:10185000C046C04602BD704770477047754600F0ED
:1018600023F8AE46050069465346C008C0008546C9
:1018700018B020B5FFF722FF60BC00274908B64624
:101880000026C0C5C0C5C0C5C0C5C0C5C0C5C0C58F
:10189000C0C5403D49008D4670470446C046C0461D
:1018A0002046FEF75AFC0000004870473C0000202C
:1018B00001491820ABBEFEE726000200704730B495
:1018C0007446641E2578641CAB4204D3635D5B00E0
:1018D000E31830BC18471D46F8E70000FC18000864
:1018E0000000002030000000040100082C1900084E
:1018F00030000020700600002001000800000000F9
:1019000001020304010203040607080900000000A5
:101910000000000000000000006CDC02000000007D
:0C19200000000000010203040607080993
:04000005080000C12E
:00000001FF
