:020000040800F2
:1000000030040020D5000008A30200089F02000869
:1000100000000000000000000000000000000000E0
:100020000000000000000000000000006105000862
:1000300000000000000000008903000839060008E5
:10004000E7000008E7000008E7000008E7000008F4
:10005000E7000008E7000008E7000008E7000008E4
:10006000E7000008E7000008E7000008E7000008D4
:10007000E7000008E7000008E7000008E7000008C4
:10008000E7000008E700000800000000E7000008A3
:10009000E7000008E7000008E7000008E7000008A4
:1000A000E7000008E7000008E7000008D5060008A0
:1000B000E700000800000000E70000080000000062
:1000C0000348854600F03EF800480047250E00082A
:1000D000300400200448804704480047FEE7FEE75C
:1000E000FEE7FEE7FEE7FEE741060008C100000864
:1000F00030B50B46014600202022012409E00D46C0
:10010000D5409D4205D31D469540491B2546954047
:1001100040191546521E002DF1DC30BD70B500248B
:100120002546002801DA01244042002901DA012590
:100130004942FFF7DDFFAC4200D04042002C00D026
:10014000494270BD064C0125064E05E02046E36895
:1001500007C82B4398471034B442F7D3FFF7B4FFD6
:1001600094120008B41200081CB50120800300900E
:100170000121684601710021817103214171012132
:10018000C1716946014800F013F81CBD0008004821
:100190000649086004E005490968491E034A1160E0
:1001A000024909680029F6D17047000014000020B8
:1001B000F0B50A4600210023002400BF3DE00125E0
:1001C0008D402B4615681D402C469C4234D1157934
:1001D000012D02D01579022D16D185684F00032616
:1001E000BE40B543856055794E00B54086683543BD
:1001F0008560858801268E40B543858085889679FF
:100200008E40B6B23543858005684F000326BE4058
:10021000B543056015794E00B54006683543056065
:10022000C5684F000326BE40B543C560D5794E0072
:10023000B540C6683543C560491C1029BFD3F0BD21
:10024000F0B5002300244D07EE0E1546B5402B46B1
:10025000CD10AE0005462035AD594E07F70E0F26DE
:10026000BE40B543CE10B60007462037BD51CD1075
:10027000AE003D46AD591D432C46CD10AD003E4667
:100280007451F0BD02460020138A0B4201D00120B8
:1002900000E000207047018570478161704700BF12
:1002A000FEE7704700218278002A27D0184A0323EE
:1002B0001B02D21803789B109B00D158027892073A
:1002C000D30EFF229A400B46934319464278920779
:1002D000120E03789B07DB0E9A4011430C4A03234E
:1002E0001B02D21803789B109B00D1500278D306D2
:1002F000DB0E01229A40064B1A6007E00278D30613
:10030000DB0E01229A40024B80331A6070470000D6
:1003100000E100E008B51B21684601700021417032
:1003200001218170FFF7BEFF08BD10B50121C8048F
:1003300000F02CF810BD00001CB501204003009017
:100340000021684601718171032141710121C17150
:1003500069460248FFF72CFF1CBD0000000800485A
:100360001CB5012040030090012168460171002165
:100370008171032141710121C17169460148FFF773
:1003800017FF1CBD0008004870470000002905D079
:10039000054A52690243044B5A6104E0024A526919
:1003A0008243014B5A61704700100240002905D07A
:1003B000054A92690243044B9A6104E0024A926939
:1003C0008243014B9A61704700100240FEB504461B
:1003D000002500260020019000900027504840682A
:1003E0000C2108400546002D04D0042D05D0082D11
:1003F00028D105E04B48206027E04A48206024E0EF
:10040000474840680F218904084006464448406830
:100410000121090408400190B00C861C01980028B5
:1004200003D14148704320600BE03D48C06A00079B
:10043000000F401C00903B480099FFF759FE7043A5
:10044000206002E03748206000BF00BF34484068A9
:10045000F021084005462D093448475D2068F840E2
:1004600060602F48406807210902084005462D0AB0
:100470002E48475D6068F840A0602948006BFF2166
:1004800001310840884202D02948E0600DE024484C
:100490004068012189030840884203D0A0684008D1
:1004A000E06002E0A0688008E0601D48006B402129
:1004B0000840402802D01F48206102E00120C0030C
:1004C00020611748006B10210840102802D0154801
:1004D000606101E0206860611148006B8007800F57
:1004E00002D1A068A06119E00D48006B8007800F61
:1004F000012802D12068A06110E00948006B800744
:10050000800F022802D18003A06107E00448006B3D
:100510008007800F032801D10248A061FEBD0000C2
:100520000010024000127A0000093D00180000206F
:10053000809FD500128000001CB50120C0030090F0
:100540000021684601718171032141710121C1714E
:1005500069460248FFF72CFE1CBD00000008004859
:10056000704700000CB500200190009030480068F2
:100570000121090408432E49086000BF2C48006887
:1005800001214904084000900198401C0190009806
:10059000002804D10521090201988842EED124489F
:1005A000006801214904084202D00120009001E0C6
:1005B000002000900098012838D111201D490860C2
:1005C0001B4840681A494860084640684860084629
:1005D00040683F210904884315494860084640683F
:1005E00011210904084312494860084600680121A6
:1005F000090608430E49086000BF0D480068012144
:1006000049060842F9D00A48406880088000084935
:10061000486008464068022108430549486000BF19
:10062000034840680C2108400828F9D10CBD00009F
:10063000001002400020024010B500F03FF810BD4D
:1006400010B51B4800680121084319490860084695
:10065000406818490840164948600846006816492D
:10066000084013490860084600680121890488434E
:100670000F490860084640683F21090488430C4937
:1006800048600846C06A00090001C8620846006B5D
:10069000FF2154318843064908630846406B4008EF
:1006A0004000486300208860FFF75CFF10BD000039
:1006B000001002400CB8FFF8FFFFF6FE0448006887
:1006C000002804D002480068401E014908607047B5
:1006D0001400002010B50A490A4800F080F80028EC
:1006E0000CD0084800F02EF94406640E2146054857
:1006F00000F02DF90249034800F006F810BD000093
:10070000050105000038014010B5002300220B0C44
:1007100001249C402246026210BD002904D00268D8
:1007200001231A43026003E002685208520002608B
:100730007047000000B589B001214804FFF726FE8C
:1007400001218803FFF732FEE120400203900020E0
:1007500004900590069008900C2007900122092132
:10076000C806FFF76DFD01220A210920C006FFF728
:1007700067FD0120400201900221684601720321B9
:100780004172002181720121C17201A90920C006B4
:10079000FFF70EFD01208002019001A90920C0068B
:1007A000FFF706FD03A9074800F062F80122064999
:1007B000044800F03BF801210248FFF7AEFF09B002
:1007C00000BD000000380140050105000246002080
:1007D000D3690B4201D0012000E00020704770B5C2
:1007E00002460B4600240021002500201E04350E81
:1007F000D9B201268E403146012D02D11668314012
:1008000006E0022D02D15668314001E09668314081
:100810001C0C0126A6403446D6693440002903D07A
:10082000002C01D0012000E0002070BDF8B5034687
:100830000024002600960025002018460E04340EE1
:10084000CEB200960127009EB7403D46022C01D152
:10085000001D02E0032C00D10830002A03D00668F6
:100860002E43066002E00668AE430660F8BD000055
:10087000F0B589B004460D460027002008900026F8
:100880002068400840002060666803210903304664
:1008900088430646A86806436660266826480640E0
:1008A000E968686808432969084306432660A66822
:1008B0000321090230468843064668690643A6605C
:1008C00001A8FFF783FD1D48844202D107980890D4
:1008D00001E00398089020680121C90308420CD068
:1008E0002968089A5000FFF703FC07462968089A10
:1008F0005000FFF7FDFB0E4609E029680898FFF756
:10090000F7FB074629680898FFF7F2FB0E462868B0
:100910004008B04200D87F1C20680121C90308426A
:1009200006D03807460F3846054908403043074689
:10093000A78109B0F0BD0000F3E9FFFF00380140D6
:10094000F0FF00000146888CC005C00D7047CA0545
:10095000D20D0285704700000FB410B503A9044BF7
:10096000044A029800F018F810BC08BC04B01847FC
:10097000FD0C00082800002002E008C8121F08C172
:10098000002AFAD170477047002001E001C1121F10
:10099000002AFBD170470000FFB58FB00546002646
:1009A000E7E025287ED100246D1CBB4A029401217A
:1009B00000942B780846203B98400346134202D00F
:1009C00004436D1CF5E728782A280ED002222878E7
:1009D00001463039092916D802990A23594330397A
:1009E000401814436D1C0290F1E7109802C8029160
:1009F0001090002904DA0120400304434842029089
:100A0000022004436D1C28782E2817D104200443AB
:100A10006D1C28782A280CD110986D1C02C80091F2
:100A200010900BE000990A225143303940186D1C98
:100A300000902878014630390929F3D928786C28A4
:100A400010D006DC4C281AD068280ED06A2817D19E
:100A500004E0742813D07A2812D110E00120400558
:100A600004430CE00121090501E0032109050C43C1
:100A70006978814203D101206D1C000524186D1C8A
:100A8000287869287ED007DC002878D0632829D010
:100A9000642807D176E005E06E2808D073282DD0B1
:100AA00075286BD0129A11999047761C60E060020D
:100AB000400F022809D003280DD00428109801689F
:100AC0000DD0001D0E60109052E01098F21702C871
:100AD0000E604A60F7E7109802C80E80F3E7001D29
:100AE0000E70F0E710986A460178001D117310909F
:100AF0000020507303A80190012005E0109802C85F
:100B0000019110900020C04361070CD5002700E040
:100B10007F1C00998F420FDA8742F9DB0199C95D8A
:100B20000029F5D108E0002700E07F1C8742FCDBAC
:100B30000199C95D0029F8D102982146C01B029095
:100B4000129B119A00F0BAF88019C61907E00198B3
:100B500001990078491C0191129A119990477F1EC2
:100B6000F5D22146129B119A029800F097F8861947
:100B70006D1C2878002802D013E700E022E0304600
:100B800013B0F0BD0A200190109901C910916102C3
:100B9000490F032900D100B2042900D140B2002836
:100BA00002DA40422D2102E0210504D52B216A46BC
:100BB0001173012103E0E10711D02021F7E70CAF09
:100BC0000C9114E00A200190109901C91091610262
:100BD000490F032900D180B2042900D1C0B20021FD
:100BE000EDE70199FFF784FA30317F1E3970002854
:100BF000F7D104A8C01B20300190600704D5012064
:100C000000048443009801E001200090019988428B
:100C100001DD401A00E00020411800900C980918EE
:100C20000298401A0290E00306D42146129B119AC2
:100C3000029800F043F88619002007E003A9085C39
:100C4000129A119990470D98761C401C0C990D90A2
:100C50008842F3DBE0030CD52146129B119A0298DF
:100C600000F02CF8861904E0129A30201199904770
:100C7000761C0099481E00900029F5DC05E03878C4
:100C8000129A7F1C11999047761C0199481E019079
:100C90000029F4DC65E7000009280100F8B50446E6
:100CA00000251E461746880404D405E03946202056
:100CB000B0476D1C641EF9D52846F8BDFFB5044643
:100CC000002581B01E46C80301D5302700E020274B
:100CD000880404D505E038460399B0476D1C641EAE
:100CE000F9D5284605B0F0BD8100411888B200BF93
:100CF000411E89B20800FBD17047000070B5044660
:100D00000D46E1B20548FFF722FE00BF402103482F
:100D1000FFF75CFD0028F9D0204670BD0038014087
:100D200070B5002600240121B42000F0DDF9050291
:100D30000021B42000F0D8F9054300BF07E00120EE
:100D4000A040284201D0701CC6B2601CC4B20C2C5A
:100D5000F5DB0024012E08D101E0601CC4B20120A3
:100D6000A0402842F9D0204670BDC720FCE7000013
:100D700010B5FFF7F5FAFFF7F7F9012149030B4822
:100D8000FFF78BFA0A20FFF7AFFF0121890307481D
:100D9000FFF783FA0A20FFF7A7FF01214903034861
:100DA000FFF779FA0A20FFF79FFF10BD00080048FF
:100DB00010B5FFF7D5FAFFF7D7F9012149030B4822
:100DC000FFF769FA0A20FFF78FFF0121890307481F
:100DD000FFF763FA0A20FFF787FF01214903034861
:100DE000FFF75BFA0A20FFF77FFF10BD00080048FD
:100DF00010B5FFF79AFAFFF7B3FAFFF7B5F9FFF767
:100E00009BFB012149030648FFF747FA01218903AB
:100E10000348FFF742FA0A20FFF766FF10BD000003
:100E200000080048FFF70CFCFFF784FCFFF772FA9C
:100E300000F072F822A0FFF78FFD26A0FFF78CFDCF
:100E40003CE00121C9032748FFF71CFA002807D11D
:100E500000BFFFF765FF0446214623A0FFF77CFD96
:100E60000121C9031F48FFF70DFA0546294621A0B5
:100E7000FFF772FDC72C1DD064212046FFF74EF905
:100E800030302049087064212046FFF747F90D46AD
:100E90000A212846FFF742F930301A4948700A21E2
:100EA0002046FFF73BF93031C8B21649887016A0CA
:100EB000FFF752FDC7241748FFF76AF9C1E70000A2
:100EC00020496E69742073797374656D204F4B20CF
:100ED000200A0000205072696E7466204F4B20205B
:100EE0000A000000000800480A4B45593D25640DE2
:100EF0000A0000000A4745545F525128293D2564E5
:100F00000A0000000C0000206B65793D2533730D4D
:100F10000A0000008813000010B501222B21B42024
:100F200000F09EF901222C21B42000F099F9002252
:100F30002D21B42000F094F900222E21B42000F0DD
:100F40008FF901222F21B42000F08AF901223021EB
:100F5000B42000F085F9FF223121B42000F080F99F
:100F600002223221B42000F07BF90F224121B4206B
:100F700000F076F90A224221B42000F071F90F2224
:100F80004321B42000F06CF90A224421B42000F07F
:100F900067F90F224521B42000F062F90A224621A8
:100FA000B42000F05DF90F224721B42000F058F979
:100FB0000A224821B42000F053F90F224921B4201D
:100FC00000F04EF90A224A21B42000F049F90F221C
:100FD0004B21B42000F044F90A224C21B42000F047
:100FE0003FF90F224D21B42000F03AF90A224E2198
:100FF000B42000F035F90F224F21B42000F030F971
:101000000A225021B42000F02BF90F225121B420E4
:1010100000F026F90A225221B42000F021F90F2213
:101020005321B42000F01CF90A225421B42000F00E
:1010300017F90F225521B42000F012F90A22562187
:10104000B42000F00DF90F225721B42000F008F968
:101050000A225821B42000F003F904225D21B420B3
:1010600000F0FEF80C225E21B42000F0F9F810BD6B
:1010700070B5FFF775F9FFF777F801218903194873
:10108000FFF709F90A20FFF72FFE01214903154850
:10109000FFF703F90A20FFF727FEFFF74DF90025B8
:1010A0001CE0012189030F48FFF7F7F80A20FFF73A
:1010B0001BFE6006040E012149030A48FFF7E2F80F
:1010C000002801D001200443012189030548FFF7CE
:1010D000E2F80A20FFF708FE681CC5B2082DE0DB25
:1010E000204670BD0008004870B504460D46FFF765
:1010F0007FFEFFF73DFE204600F070F800F046F856
:10110000284600F06BF800F041F8FFF731FE611C53
:10111000C8B200F063F800F039F8FFF7A9FF0646FF
:10112000002000F005F8FFF743FE304670BD0000D8
:1011300010B50446FFF714F9FFF716F8002C05D098
:10114000012149031048FFF7A6F804E001214903F3
:101150000D48FFF7A2F8012189030B48FFF79DF81E
:101160000A20FFF7C1FD012189030748FFF793F823
:101170000A20FFF7B9FD012149030348FFF78DF865
:101180000A20FFF7B1FD10BD0008004810B500248B
:10119000FFF7D2F8FEF7E8FF012189030E48FFF7B9
:1011A0007CF80A20FFF7A0FD01E0601C84B2012159
:1011B00049030948FFF766F8002803D001208002A0
:1011C0008442F2DB012189030348FFF764F80A2017
:1011D000FFF78AFD10BD00000008004870B5044606
:1011E000FFF7BEF8FEF7C0FF002523E001218903C9
:1011F0001A48FFF750F80A20FFF776FD80200442D6
:1012000004D081011548FFF748F804E001214903A3
:101210001248FFF740F86006040E0A20FFF764FD4D
:10122000012189030D48FFF738F80A20FFF75CFD1C
:10123000681CC5B2082DD9DB012189030748FFF7D7
:101240002AF80A20FFF750FD012149030348FFF760
:1012500024F80A20FFF748FD70BD00000008004890
:1012600070B506460C461546FFF7C2FDFFF780FD38
:101270003046FFF7B3FFFFF789FF2046FFF7AEFFC9
:10128000FFF784FF2846FFF7A9FFFFF77FFFFFF76F
:101290008FFD70BDB4120008000000202C0000007B
:1012A00078090008E01200082C0000200404000067
:1012B000880900086173646667686A0000000000BE
:1012C000000000000000000000000000000000001E
:1012D00001020304010203040607080900000000DC
:04000005080000C12E
:00000001FF
