:020000040800F2
:1000000048040020D500000877050008DD0400083A
:1000100000000000000000000000000000000000E0
:10002000000000000000000000000000710800084F
:100030000000000000000000FF0500083D0C000863
:10004000E7000008E7000008E7000008E7000008F4
:10005000E7000008E7000008E7000008E7000008E4
:10006000E7000008E7000008E7000008E7000008D4
:10007000E7000008E7000008E7000008E7000008C4
:10008000E7000008E700000800000000E7000008A3
:10009000E7000008E7000008E7000008E7000008A4
:1000A000E7000008E7000008E7000008D90C000896
:1000B000E700000800000000E70000080000000062
:1000C0000348854600F02AF8004800475D11000803
:1000D000480400200448804704480047FEE7FEE744
:1000E000FEE7FEE7FEE7FEE7450C0008C10000085A
:1000F00030B50B46014600202022012409E00D46C0
:10010000D5409D4205D31D469540491B2546954047
:1001100040191546521E002DF1DC30BD064C01255C
:10012000064E05E02046E36807C82B439847103485
:10013000B442F7D3FFF7C8FFBC120008DC12000876
:10014000F8B500270020009000256321232001F04E
:100150009DF83F21122001F099F83F21132001F072
:1001600095F89320344908702020487003212220FC
:1001700001F08CF81E223049022000F08DF8044670
:1001800059E0002C01D10120F8BD042001F02EF827
:100190000446002C01D10C20F6E7274800F006FBAE
:1001A00022463846009900F065FB0A2001F01EF84F
:1001B0000446E407E40F002C08D100F041F804469F
:1001C000002C01D10820DFE70020DDE70B2001F043
:1001D0000DF804462046E117490F0918CF10E11722
:1001E000490F0918C910C900611AC9B200919320BA
:1001F000114908707919C8B2009900F09FFCE819FC
:10020000C5B2002606E00D48815D0B4AB01C1154B2
:10021000701CC6B2681C8642F5DB0098002802D02C
:10022000681CC7B200E02F46B91CC8B21E220249A2
:1002300000F032F80446A4E7380000201B0000203C
:100240000022002104E00648405C4240481CC1B244
:100250000529F8DB002A01D1012070470020FCE7C6
:100260001B00002070B5092000F0C0FF04460120EB
:1002700004432146092001F009F8002508E0042084
:1002800000F0B4FF0446002C01D1012070BD6D1CAC
:100290007F2DF4D30020F9E7F7B505461646002177
:1002A000012000F0F3FFFFF7DDFF002D03D028460B
:1002B000019900F052FE042000F098FF07463146F5
:1002C000012000F0E3FF002408E0012000F08EFF91
:1002D0000746002F01D10120FEBD641C7F2CF4D302
:1002E0000020F9E770B58021002000F0CFFF002545
:1002F0000DE0012000F07AFF0446002C05D100211A
:10030000084600F0C3FF012070BD681CC5B27F2DF8
:10031000EFDB0020F8E7F0B50A46002100230024B7
:1003200000BF3DE001258D402B4615681D402C4641
:100330009C4234D11579012D02D01579022D16D1A8
:1003400085684F000326BE40B543856055794E0051
:10035000B540866835438560858801268E40B54363
:100360008580858896798E40B6B23543858005684C
:100370004F000326BE40B543056015794E00B540D9
:10038000066835430560C5684F000326BE40B54387
:10039000C560D5794E00B540C6683543C560491C77
:1003A0001029BFD3F0BDF0B5002300244D07EE0E99
:1003B0001546B5402B46CD10AE0005462035AD594B
:1003C0004E07F70E0F26BE40B543CE10B6000746C7
:1003D0002037BD51CD10AE003D46AD591D432C46D2
:1003E000CD10AD003E467451F0BD02460020138A88
:1003F0000B4201D0012000E00020704701857047CA
:10040000816170471CB50121880400F0F9F80420CF
:100410000090012168460171002181710221417122
:1004200069462D48FFF777FF0121880400F0E8F8BE
:100430000120400300900021684601718171022172
:10044000417169462448FFF766FF0121880400F0E6
:10045000D7F80120000300900121684601710021B6
:1004600081710221417169461B48FFF754FF012148
:10047000880400F0C5F81020009001216846017141
:10048000002181710221417169461348FFF743FF42
:100490000121880400F0B4F8202000900121684672
:1004A0000171002181710221417169460A48FFF7FB
:1004B00032FF0121880400F0A3F8FF2001300090F2
:1004C0000121684601710021817102214171694653
:1004D0000148FFF720FF1CBD0004004800BFFEE7F5
:1004E00010B504210C48FFF78BFF002400E0641CCA
:1004F0000A488442FBD304210748FFF77FFF00240A
:1005000000E0641C05488442FBD310210248FFF739
:1005100075FFFFF7E7FE10BD00040048FF3F000035
:1005200010B5FF2101310B48FFF768FF0A4800F0C2
:10053000F7FDFFF7D5FFFF2101310648FFF760FF08
:10054000064800F0EDFDFF2101310248FFF756FF9C
:1005500010BD0000000400481027000050C3000038
:1005600001460A784B78002A03D0002B01D10120E4
:1005700070470020FCE7704700218278002A27D0CE
:10058000184A03231B02D21803789B109B00D158F2
:1005900002789207D30EFF229A400B4693431946E6
:1005A00042789207120E03789B07DB0E9A401143A4
:1005B0000C4A03231B02D21803789B109B00D150D6
:1005C0000278D306DB0E01229A40064B1A6007E040
:1005D0000278D306DB0E01229A40024B80331A6068
:1005E0007047000000E100E008B51B21684601707B
:1005F0000021417001218170FFF7BEFF08BD7047E7
:10060000002905D0054A52690243044B5A6104E0AF
:10061000024A52698243014B5A61704700100240FE
:10062000002905D0054A92690243044B9A6104E00F
:10063000024A92698243014B9A617047001002405E
:10064000FEB50446002500260020019000900027FA
:10065000504840680C2108400546002D04D0042D68
:1006600005D0082D28D105E04B48206027E04A48F6
:10067000206024E0474840680F218904084006466E
:10068000444840680121090408400190B00C861CD0
:100690000198002803D14148704320600BE03D4899
:1006A000C06A0007000F401C00903B480099FFF70C
:1006B0001FFD7043206002E03748206000BF00BF8C
:1006C00034484068F021084005462D093448475D0C
:1006D0002068F84060602F48406807210902084000
:1006E00005462D0A2E48475D6068F840A0602948FD
:1006F000006BFF2101310840884202D02948E060A8
:100700000DE024484068012189030840884203D055
:10071000A0684008E06002E0A0688008E0601D4832
:10072000006B40210840402802D01F48206102E0B1
:100730000120C00320611748006B102108401028D9
:1007400002D01548606101E0206860611148006BCB
:100750008007800F02D1A068A06119E00D48006BEE
:100760008007800F012802D12068A06110E00948AD
:10077000006B8007800F022802D18003A06107E090
:100780000448006B8007800F032801D10248A06154
:10079000FEBD00000010024000127A0000093D007A
:1007A00021000020809FD5001280000070B5064611
:1007B000042000F01BFD0446002C00D170BD182C55
:1007C00000DB1824002505E0022000F00FFD705525
:1007D000681CC5B2A542F7DB2046EFE770B50446BA
:1007E0005821112000F052FD012000F099FC5B21FE
:1007F000112000F04BFD6321232000F047FD3F2135
:10080000122000F043FD1848047007210F2000F06B
:100810003DFD0321222000F039FD5B21112000F075
:1008200035FD0121092000F031FD1E220E49012075
:10083000FFF732FD0546002D01D1012070BD0A48A9
:10084000FFF7B4FF0848FFF78BFE0546012D08D1DE
:100850000548007805490870034840784870002032
:10086000ECE71520EAE7000038000020190000201E
:1008700070470000F7B504460D46002C0DD1002D41
:100880000BD100BF05E02A4B1B5C2A4E3354431C9E
:10089000D8B2029B9842F6DB49E0254B1978631EDB
:1008A000244EF25C2B0000F077FB0805090E1318AC
:1008B0001D22272C0022631CDCB223E0FE231940FA
:1008C000D207D20F1EE0FC2319409207920F19E0C5
:1008D000F82319405207520F14E0F0231940120771
:1008E000120F0FE0E0231940D206D20E0AE0C02317
:1008F00019409206920E05E0802319405206520ECE
:1009000000E000BF00BF0A4B197013460B43661E80
:10091000084FBB55012007E0054B1E5C631E1B18EA
:10092000044FFE54431CD8B2029B9842F4DBFEBD38
:10093000380000201B00002070B56321232000F048
:10094000A5FC3F21122000F0A1FC93202B49087048
:1009500070204870002506E02948415D274AA81C00
:100960001154681CC5B2052DF6DB002506E02448AD
:10097000415D24A000F000FB681CC5B2052DF6DB2C
:100980000F21222000F082FC1E221C490720FFF7C5
:1009900083FC0446002C01D1012070BD0A2000F028
:1009A00025FC044602202040022801D10520F4E75E
:1009B00004202040042801D11420EEE70820204024
:1009C000082801D10220E8E7042000F00FFC0446CB
:1009D000012C01D00C20E0E70848FFF7E7FE0748AC
:1009E0000478082C05D0882C03D0532C01D0182C67
:1009F00001D10020D1E71620CFE700003800002009
:100A00001B000020202564200A00000070B5044669
:100A1000002523E0012000F083FB802026460640CD
:100A2000802E04D141010F48FFF7EAFC04E00121C8
:100A300009030C48FFF7E2FC012000F071FB1021D4
:100A40000848FFF7DDFC6006040E012000F068FB9B
:100A500010210448FFF7D2FC681CC5B2082DD9DB71
:100A600070BD0000000400480CB50020019000900B
:100A7000304800680121090408432E49086000BF7E
:100A80002C48006801214904084000900198401C4E
:100A900001900098002804D105210902019888429C
:100AA000EED12448006801214904084202D0012007
:100AB000009001E0002000900098012838D111201A
:100AC0001D4908601B4840681A494860084640684C
:100AD0004860084640683F2109048843154948603A
:100AE0000846406811210904084312494860084635
:100AF00000680121090608430E49086000BF0D483F
:100B00000068012149060842F9D00A484068800877
:100B100080000849486008464068022108430549AA
:100B2000486000BF034840680C2108400828F9D1FC
:100B30000CBD0000001002400020024070B50446C9
:100B40000D46230000F028FA0504080C10141800C4
:100B500020203949487010E03020374948700CE0B7
:100B600040203549487008E050203349487004E07F
:100B700060203149487000E000BF00BF2B0000F04A
:100B80000BFA08050A15202B36414C5700210F207F
:100B900000F07CFB4DE011210F2000F077FB264890
:100BA0004078012108432449487042E022210F2067
:100BB00000F06CFB20484078022108431E49487031
:100BC00037E033210F2000F061FB1B484078032100
:100BD0000843194948702CE044210F2000F056FBCF
:100BE00015484078042108431349487021E05521F5
:100BF0000F2000F04BFB10484078052108430E49B8
:100C0000487016E066210F2000F040FB0A4840784B
:100C100006210843084948700BE077210F2000F0B7
:100C200035FB05484078072108430349487000E038
:100C300000BF00BF70BD00003800002010B500F0FC
:100C40003FF810BD10B51B48006801210843194941
:100C50000860084640681849084016494860084638
:100C600000681649084013490860084600680121D9
:100C7000890488430F490860084640683F210904F9
:100C800088430C4948600846C06A00090001C862F0
:100C90000846006BFF215431884306490863084623
:100CA000406B40084000486300208860FFF7DCFE8E
:100CB00010BD0000001002400CB8FFF8FFFFF6FE68
:100CC00004480068002804D002480068401E01491A
:100CD000086070471400002010B50A490A4800F067
:100CE00080F800280CD0084800F02EF94406640E65
:100CF0002146054800F02DF90249034800F006F8A6
:100D000010BD0000050105000038014010B50023AA
:100D100000220B0C01249C402246026210BD0029D7
:100D200004D0026801231A43026003E002685208FB
:100D3000520002607047000000B589B001214804EC
:100D4000FFF75EFC01218803FFF76AFCE120400207
:100D50000390002004900590069008900C200790C6
:100D600001220921C806FFF71EFB01220A210920E2
:100D7000C006FFF718FB01204002019002216846DF
:100D8000017203214172002181720121C17201A906
:100D90000920C006FFF7BFFA01208002019001A9D7
:100DA0000920C006FFF7B7FA03A9074800F062F868
:100DB00001220649044800F03BF801210248FFF7F0
:100DC000AEFF09B000BD000000380140050105007C
:100DD00002460020D3690B4201D0012000E0002030
:100DE000704770B502460B46002400210025002004
:100DF0001E04350ED9B201268E403146012D02D196
:100E00001668314006E0022D02D15668314001E0FB
:100E1000966831401C0C0126A6403446D669344001
:100E2000002903D0002C01D0012000E0002070BD7B
:100E3000F8B5034600240026009600250020184639
:100E40000E04340ECEB200960127009EB7403D46F8
:100E5000022C01D1001D02E0032C00D10830002A31
:100E600003D006682E43066002E00668AE430660C3
:100E7000F8BD0000F0B589B004460D4600270020FB
:100E80000890002620684008400020606668032122
:100E90000903304688430646A8680643666026680C
:100EA00026480640E96868680843296908430643FC
:100EB0002660A66803210902304688430646686911
:100EC0000643A66001A8FFF7BBFB1D48844202D180
:100ED0000798089001E00398089020680121C90351
:100EE00008420CD02968089A5000FFF701F907461C
:100EF0002968089A5000FFF7FBF80E4609E02968B8
:100F00000898FFF7F5F8074629680898FFF7F0F802
:100F10000E4628684008B04200D87F1C2068012196
:100F2000C903084206D03807460F3846054908402D
:100F300030430746A78109B0F0BD0000F3E9FFFF89
:100F400000380140F0FF00000146888CC005C00D4C
:100F50007047CA05D20D0285704770B505460E462A
:100F6000002405E0315D022000F090F9601CC4B25D
:100F7000AC42F7DB70BD00000FB410B503A9044B01
:100F8000044A029800F026F810BC08BC04B01847C8
:100F9000391100083400002030B47446641E2578EE
:100FA000641CAB4204D3635D5B00E31830BC18479C
:100FB0001D46F8E702E008C8121F08C1002AFAD14E
:100FC00070477047002001E001C1121F002AFBD1C9
:100FD00070470000FFB58DB00446002596E0252837
:100FE00032D10027641C4D4A01210097237808461E
:100FF000203B98400346134202D00743641CF5E7A8
:1010000020782E2817D104200743641C20782A2832
:101010000CD10E98641C02C800910E900BE0009950
:101020000A22514330394018641C00902078014650
:1010300030390929F3D9207800286BD0642808D0EA
:10104000692806D075281ED0109A0F9990476D1CFC
:101050005BE00A200E99019001C90E91002802DA86
:1010600040422D2102E0390504D52B216A46117238
:10107000012103E0F90704D02021F7E70BAE0B9123
:101080000DE00021FAE70A200E99019001C90E91A6
:10109000F7E70199FFF72CF83031761E3170002800
:1010A000F7D103A8801B20300190780701D5009864
:1010B00001E0012000900199884201DD401A00E022
:1010C00000200027009006E002A8109AC05D0F994A
:1010D00090476D1C7F1C0B988742F5DB04E0109A4B
:1010E00030200F9990476D1C0099481E00900029F0
:1010F000F5DC05E03078109A761C0F9990476D1C4E
:101100000199481E01900029F4DC641C2078002815
:1011100000D064E7284611B0F0BD000009280100A6
:10112000002106E0002201E0531CDAB2642AFBDB56
:10113000491C8142F6D3704770B504460D46E1B2B2
:101140000548FFF706FF00BF40210348FFF740FEB8
:101150000028F9D0204670BD003801401FB5FFF7C8
:1011600071FDFFF7E9FDFFF73FFAFFF74BF9FFF7D6
:10117000D7F9002403E068460455601CC4B2102C63
:10118000F9DB11A0FFF7F8FE14A0FFF7F5FE19E058
:101190000A2613E05220FFF721FB0546002D00D060
:1011A0000CE0FEF7CDFF0546002D00D006E0FFF76E
:1011B000C3FB0546002D00D000E000BF701EC0B28A
:1011C0000600E7D1E4E7000020496E6974207379D6
:1011D0007374656D204F4B20200A00002050726907
:1011E0006E7466204F4B20200A00000070B5044644
:1011F0006006040E8020044320210848FFF7FEF813
:101200002046FFF703FC002000F00AF805462021E5
:101210000248FFF7F5F8284670BD000000040048BA
:10122000F8B504460025002700BF002628E08020EE
:1012300020400746802F04D141011348FFF7E0F812
:1012400004E0012109031048FFF7D8F86006040EF6
:101250006806050E012149030B48FFF7C6F801286F
:1012600001D1681CC5B210210748FFF7C9F8012059
:10127000FFF756FF10210448FFF7C0F8701CC6B2F4
:10128000082ED4DB2846F8BD0004004870B504469B
:101290000D466006040E6406640E20210648FFF722
:1012A000ADF82046FFF7B2FB2846FFF7AFFB202141
:1012B0000148FFF7A5F870BD00040048DC120008E3
:1012C0000000002038000000B40F000814130008CC
:1012D0003800002010040000C40F000800000000C7
:1012E00000000000000000000000000000000000FE
:1012F00000000000000000000000000000000000EE
:1013000000010203040102030406070809000000AB
:0413100000000000D9
:04000005080000C12E
:00000001FF
