:020000040800F2
:1000000038040020D5000008A30200089F02000861
:1000100000000000000000000000000000000000E0
:10002000000000000000000000000000590500086A
:1000300000000000000000008103000831060008F5
:10004000E7000008E7000008E7000008E7000008F4
:10005000E7000008E7000008E7000008E7000008E4
:10006000E7000008E7000008E7000008E7000008D4
:10007000E7000008E7000008E7000008E7000008C4
:10008000E7000008E700000800000000E7000008A3
:10009000E7000008E7000008E7000008E7000008A4
:1000A000E7000008E7000008E7000008CD060008A8
:1000B000E700000800000000E70000080000000062
:1000C0000348854600F03EF800480047010E00084E
:1000D000380400200448804704480047FEE7FEE754
:1000E000FEE7FEE7FEE7FEE739060008C10000086C
:1000F00030B50B46014600202022012409E00D46C0
:10010000D5409D4205D31D469540491B2546954047
:1001100040191546521E002DF1DC30BD70B500248B
:100120002546002801DA01244042002901DA012590
:100130004942FFF7DDFFAC4200D04042002C00D026
:10014000494270BD064C0125064E05E02046E36895
:1001500007C82B4398471034B442F7D3FFF7B4FFD6
:10016000FC1100081C1200081CB50120400300907F
:100170000121684601710021817103214171012132
:10018000C17169460920C00600F012F81CBD0000CC
:100190000649086004E005490968491E034A1160E0
:1001A000024909680029F6D17047000014000020B8
:1001B000F0B50A4600210023002400BF3DE00125E0
:1001C0008D402B4615681D402C469C4234D1157934
:1001D000012D02D01579022D16D185684F00032616
:1001E000BE40B543856055794E00B54086683543BD
:1001F0008560858801268E40B543858085889679FF
:100200008E40B6B23543858005684F000326BE4058
:10021000B543056015794E00B54006683543056065
:10022000C5684F000326BE40B543C560D5794E0072
:10023000B540C6683543C560491C1029BFD3F0BD21
:10024000F0B5002300244D07EE0E1546B5402B46B1
:10025000CD10AE0005462035AD594E07F70E0F26DE
:10026000BE40B543CE10B60007462037BD51CD1075
:10027000AE003D46AD591D432C46CD10AD003E4667
:100280007451F0BD02460020138A0B4201D00120B8
:1002900000E000207047018570478161704700BF12
:1002A000FEE7704700218278002A27D0184A0323EE
:1002B0001B02D21803789B109B00D158027892073A
:1002C000D30EFF229A400B46934319464278920779
:1002D000120E03789B07DB0E9A4011430C4A03234E
:1002E0001B02D21803789B109B00D1500278D306D2
:1002F000DB0E01229A40064B1A6007E00278D30613
:10030000DB0E01229A40024B80331A6070470000D6
:1003100000E100E008B51B21684601700021417032
:1003200001218170FFF7BEFF08BD10B50121C8048F
:1003300000F028F810BD1CB501200003009000213A
:10034000684601718171032141710121C1716946C2
:100350000920C006FFF72CFF1CBD1CB501200003BF
:1003600000900121684601710021817103214171D2
:100370000121C17169460920C006FFF719FF1CBDA4
:1003800070470000002905D0054A52690243044B1A
:100390005A6104E0024A52698243014B5A61704734
:1003A00000100240002905D0054A92690243044B1F
:1003B0009A6104E0024A92698243014B9A61704754
:1003C00000100240FEB504460025002600200190E2
:1003D00000900027504840680C2108400546002D39
:1003E00004D0042D05D0082D28D105E04B4820600D
:1003F00027E04A48206024E0474840680F218904EC
:10040000084006464448406801210904084001901C
:10041000B00C861C0198002803D14148704320602D
:100420000BE03D48C06A0007000F401C00903B48AD
:100430000099FFF75DFE7043206002E037482060BE
:1004400000BF00BF34484068F021084005462D0930
:100450003448475D2068F84060602F4840680721B5
:100460000902084005462D0A2E48475D6068F8409D
:10047000A0602948006BFF2101310840884202D06A
:100480002948E0600DE024484068012189030840C4
:10049000884203D0A0684008E06002E0A0688008BD
:1004A000E0601D48006B40210840402802D01F48F2
:1004B000206102E00120C00320611748006B102179
:1004C0000840102802D01548606101E02068606192
:1004D0001148006B8007800F02D1A068A06119E06D
:1004E0000D48006B8007800F012802D12068A061B1
:1004F00010E00948006B8007800F022802D18003BA
:10050000A06107E00448006B8007800F032801D139
:100510000248A061FEBD00000010024000127A00F7
:1005200000093D0024000020809FD50012800000BB
:100530001CB50120C0030090002168460171817143
:10054000032141710121C17169460248FFF730FE64
:100550001CBD000000080048704700000CB50020DA
:1005600001900090304800680121090408432E4999
:10057000086000BF2C480068012149040840009031
:100580000198401C01900098002804D1052109021F
:1005900001988842EED124480068012149040842AC
:1005A00002D00120009001E0002000900098012876
:1005B00038D111201D4908601B4840681A4948601D
:1005C000084640684860084640683F21090488435F
:1005D000154948600846406811210904084312493A
:1005E0004860084600680121090608430E49086072
:1005F00000BF0D480068012149060842F9D00A48A9
:100600004068800880000849486008464068022128
:1006100008430549486000BF034840680C21084072
:100620000828F9D10CBD0000001002400020024053
:1006300010B500F03FF810BD10B51B48006801214F
:100640000843194908600846406818490840164997
:100650004860084600681649084013490860084683
:1006600000680121890488430F49086008464068F2
:100670003F21090488430C4948600846C06A0009C4
:100680000001C8620846006BFF21543188430649C7
:1006900008630846406B40084000486300208860BB
:1006A000FFF75CFF10BD0000001002400CB8FFF81F
:1006B000FFFFF6FE04480068002804D002480068E6
:1006C000401E0149086070471400002010B50A4917
:1006D0000A4800F080F800280CD0084800F02EF9F5
:1006E0004406640E2146054800F02DF902490348EE
:1006F00000F006F810BD00000501050000380140BB
:1007000010B5002300220B0C01249C4022460262FB
:1007100010BD002904D0026801231A43026003E0DF
:1007200002685208520002607047000000B589B0AC
:1007300001214804FFF726FE01218803FFF732FE5E
:10074000E12040020390002004900590069008905C
:100750000C20079001220921C806FFF771FD012234
:100760000A210920C006FFF76BFD0120400201901D
:100770000221684601720321417200218172012128
:10078000C17201A90920C006FFF712FD01208002F5
:10079000019001A90920C006FFF70AFD03A9074837
:1007A00000F062F801220649044800F03BF80121FC
:1007B0000248FFF7AEFF09B000BD0000003801405D
:1007C0000501050002460020D3690B4201D001203B
:1007D00000E00020704770B502460B46002400215F
:1007E000002500201E04350ED9B201268E40314668
:1007F000012D02D11668314006E0022D02D1566863
:10080000314001E0966831401C0C0126A640344678
:10081000D6693440002903D0002C01D0012000E02B
:10082000002070BDF8B50346002400260096002580
:10083000002018460E04340ECEB200960127009E0A
:10084000B7403D46022C01D1001D02E0032C00D12F
:100850000830002A03D006682E43066002E00668CE
:10086000AE430660F8BD0000F0B589B004460D4601
:1008700000270020089000262068400840002060E3
:10088000666803210903304688430646A868064384
:100890006660266826480640E96868680843296952
:1008A000084306432660A6680321090230468843B0
:1008B000064668690643A66001A8FFF783FD1D4848
:1008C000844202D10798089001E0039808902068BC
:1008D0000121C90308420CD02968089A5000FFF78B
:1008E00007FC07462968089A5000FFF701FC0E46EE
:1008F00009E029680898FFF7FBFB07462968089874
:10090000FFF7F6FB0E4628684008B04200D87F1C6F
:1009100020680121C903084206D03807460F38462F
:100920000549084030430746A78109B0F0BD0000E3
:10093000F3E9FFFF00380140F0FF00000146888C1A
:10094000C005C00D7047CA05D20D02857047000072
:100950000FB410B503A9044B044A029800F018F82C
:1009600010BC08BC04B01847250D00083400002056
:1009700002E008C8121F08C1002AFAD17047704768
:10098000002001E001C1121F002AFBD170470000C6
:10099000FFB58FB005460026E7E025287ED100246C
:1009A0006D1CBB4A0294012100942B780846203B21
:1009B00098400346134202D004436D1CF5E72878A3
:1009C0002A280ED00222287801463039092916D863
:1009D00002990A2359433039401814436D1C029080
:1009E000F1E7109802C802911090002904DA012062
:1009F0004003044348420290022004436D1C2878BF
:100A00002E2817D1042004436D1C28782A280CD1E5
:100A100010986D1C02C8009110900BE000990A22FA
:100A20005143303940186D1C009028780146303908
:100A30000929F3D928786C2810D006DC4C281AD064
:100A400068280ED06A2817D104E0742813D07A28B9
:100A500012D110E00120400504430CE001210905FA
:100A600001E0032109050C436978814203D101208B
:100A70006D1C000524186D1C287869287ED007DCC1
:100A8000002878D0632829D0642807D176E005E0D3
:100A90006E2808D073282DD075286BD0129A119922
:100AA0009047761C60E06002400F022809D00328BE
:100AB0000DD00428109801680DD0001D0E60109014
:100AC00052E01098F21702C80E604A60F7E71098DB
:100AD00002C80E80F3E7001D0E70F0E710986A461A
:100AE0000178001D117310900020507303A801902D
:100AF000012005E0109802C8019110900020C04329
:100B000061070CD5002700E07F1C00998F420FDAA7
:100B10008742F9DB0199C95D0029F5D108E000277A
:100B200000E07F1C8742FCDB0199C95D0029F8D1F8
:100B300002982146C01B0290129B119A00F0BAF84D
:100B40008019C61907E0019801990078491C0191A4
:100B5000129A119990477F1EF5D22146129B119A45
:100B6000029800F097F886196D1C2878002802D0AA
:100B700013E700E022E0304613B0F0BD0A200190F8
:100B8000109901C910916102490F032900D100B2E7
:100B9000042900D140B2002802DA40422D2102E0AF
:100BA000210504D52B216A461173012103E0E107D9
:100BB00011D02021F7E70CAF0C9114E00A2001902E
:100BC000109901C910916102490F032900D180B227
:100BD000042900D1C0B20021EDE70199FFF788FA9E
:100BE00030317F1E39700028F7D104A8C01B203097
:100BF0000190600704D5012000048443009801E0BF
:100C0000012000900199884201DD401A00E0002097
:100C1000411800900C9809180298401A0290E003BD
:100C200006D42146129B119A029800F043F88619C7
:100C3000002007E003A9085C129A119990470D98CB
:100C4000761C401C0C990D908842F3DBE0030CD518
:100C50002146129B119A029800F02CF8861904E0A4
:100C6000129A302011999047761C0099481E0090E6
:100C70000029F5DC05E03878129A7F1C119990471D
:100C8000761C0199481E01900029F4DC65E70000FC
:100C900009280100F8B5044600251E4617468804B9
:100CA00004D405E039462020B0476D1C641EF9D5F8
:100CB0002846F8BDFFB50446002581B01E46C8038E
:100CC00001D5302700E02027880404D505E0384608
:100CD0000399B0476D1C641EF9D5284605B0F0BDD8
:100CE00010B504460849085D0A21FFF717FA3030AD
:100CF000064908700449085D0A21FFF70FFA3031F0
:100D0000C8B20249487010BD0C0000200400002049
:100D10008100411888B200BF411E89B20800FBD192
:100D20007047000070B504460D46E1B20548FFF774
:100D30000AFE00BF40210348FFF744FD0028F9D018
:100D4000204670BD0038014010B5FFF706FBFFF7E5
:100D50000BFA012109030920C006FFF79EFA0A20B9
:100D6000FFF7D6FF012149030920C006FFF795FAD6
:100D70000A20FFF7CDFF012109030920C006FFF774
:100D80008AFA0A20FFF7C4FF10BD10B5FFF7E5FA95
:100D9000FFF7EAF9012109030920C006FFF77BFAF2
:100DA0000A20FFF7B5FF012149030920C006FFF71C
:100DB00074FA0A20FFF7ACFF012109030920C006DD
:100DC000FFF76BFA0A20FFF7A3FF10BD10B5FFF77E
:100DD000ACFAFFF7C2FAFFF7C7F9FFF7A9FB012149
:100DE00009030920C006FFF758FA01214903092029
:100DF000C006FFF752FA0A20FFF78AFF10BD000075
:100E0000FFF71AFCFFF792FCFFF784FA00F060F896
:100E100000F0A0F815A0FFF79BFD19A0FFF798FDC3
:100E200022E000F049F81AA0FFF792FD002406E046
:100E3000204600F04BF919490855601CC4B2072C34
:100E4000F6DB002408E02046FFF74AFF144915A00E
:100E5000FFF77EFD601CC4B2072CF4DB13A0FFF784
:100E600077FD1448FFF794F9DBE7000020496E692D
:100E7000742073797374656D204F4B20200A000035
:100E8000205072696E7466204F4B20200A000000CB
:100E90005468652054696D65204973000C0000207A
:100EA0000400002025337320000000006E6F770DD2
:100EB0000A000000A0BB0D0010B500F01BF80348AD
:100EC0000078002801D100F015F810BD1E000020A8
:100ED00010B5002405E00548005D05490855601C73
:100EE000C4B2052CF7DB00F035F810BD1800002067
:100EF0001E0000201CB5002400BF08E0A01CC1B2E9
:100F0000A22000F08EF869460855601CC4B2072C78
:100F1000F4DB684600784006400E0D4908706846CC
:100F200040784006400E4870684680788006800E03
:100F300088706846C0788006800EC8706846407920
:100F4000C006C00E08716846807948711CBD00005B
:100F50001E00002010B5124802780821A22000F0DF
:100F600032F90F4842780721A22000F02CF90C48F2
:100F700082780521A22000F026F90948C2780421D0
:100F8000A22000F020F9064802790321A22000F0F7
:100F90001AF9034842790221A22000F014F910BD89
:100FA0001E00002070B5FFF7D8F9FFF7DDF801212A
:100FB00049030920C006FFF76EF90A20FFF7A8FED3
:100FC000012109030920C006FFF767F90A20FFF78E
:100FD0009FFEFFF7B0F900251FE00121490309201A
:100FE000C006FFF75AF90A20FFF792FE6006040ECA
:100FF000012109030920C006FFF744F9002801D0A8
:1010000001200443012149030920C006FFF743F9E9
:101010000A20FFF77DFE681CC5B2082DDDDB2046E7
:1010200070BD70B504460D46FFF7D0FEFFF78CFE8D
:10103000204600F083F800F059F8284600F07EF8CA
:1010400000F054F8FFF780FE611CC8B200F076F89B
:1010500000F04CF8FFF7A6FF0646002000F004F869
:10106000FFF793FE304670BD10B50446FFF775F9E3
:10107000FFF77AF8002C06D0012109030920C006E9
:10108000FFF709F905E0012109030920C006FFF770
:1010900004F9012149030920C006FFF7FEF80A20E0
:1010A000FFF736FE012149030920C006FFF7F3F8D8
:1010B0000A20FFF72DFE012109030920C006FFF7D2
:1010C000ECF80A20FFF724FE10BD00000146064A96
:1010D000525C12110A235A43034B5B5C1B071B0F24
:1010E000D218D0B2704700001E00002010B50024B6
:1010F000FFF721F9FFF738F8012149030920C0065D
:10110000FFF7CBF80A20FFF703FE01E0601C84B272
:10111000012109030920C006FFF7B4F8002803D015
:10112000012080028442F1DB012149030920C0062D
:10113000FFF7B1F80A20FFF7EBFD10BD70B50446CC
:10114000FFF70BF9FFF710F8002527E0012149030D
:101150000920C006FFF79FF80A20FFF7D9FD80207D
:10116000044205D041010920C006FFF796F805E0CA
:10117000012109030920C006FFF78DF86006040E5F
:101180000A20FFF7C5FD012149030920C006FFF72A
:1011900084F80A20FFF7BCFD681CC5B2082DD5DB1A
:1011A000012149030920C006FFF775F80A20FFF75F
:1011B000AFFD012109030920C006FFF76EF80A20E0
:1011C000FFF7A6FD70BD70B506460C461546FFF745
:1011D000FDFDFFF7B9FD3046FFF7B0FFFFF786FFD3
:1011E0002046FFF7ABFFFFF781FF2846FFF7A6FF7A
:1011F000FFF77CFFFFF7C9FD70BD00001C1200085F
:101200000000002038000000700900085412000897
:1012100038000020000400008009000800000000E1
:1012200000000000000000000000000000000000BE
:1012300000000000160229205700000000000000F6
:10124000000000000102030401020304060708096C
:04125000000000009A
:04000005080000C12E
:00000001FF
