:020000040800F2
:1000000050040020D9180008DD030008DF030008B1
:1000100000000000000000000000000000000000E0
:10002000000000000000000000000000E3030008E2
:100030000000000000000000E5030008E7030008DE
:10004000EB180008EB180008EB180008EB18000884
:10005000EB180008EB180008EB180008EB18000874
:10006000EB180008EB180008EB180008EB18000864
:10007000EB180008EB180008EB180008EB18000854
:10008000EB180008EB18000800000000EB1800084F
:10009000EB180008EB180008EB180008EB18000834
:1000A000EB180008EB180008EB180008EB18000824
:1000B000EB18000800000000EB180008000000002A
:1000C0000348854601F0E0FE00480047230200088F
:1000D00050040020A849086000BFA749096800290A
:1000E000FBD1704700B58BB00121084601F076FBCB
:1000F000A24800F0E7FFA2480090A248019000202B
:10010000029005200390002004908020059040007C
:10011000069080000790202008900002099000209F
:100120000A906946954801F019F80121934801F0B9
:100130003FF80BB000BD00B589B09148403800F0E1
:1001400051FE0121C80401F049FB0121480201F0E0
:1001500053FB022001900321684601720021C17205
:1001600001A9894800F0E6FA02218548403800F0EC
:1001700066FF01218248403800F055FF03A800F0D7
:1001800053FE002003900121684601740020059071
:1001900007900420089003A97948403800F030FE09
:1001A000052201217648403800F0DCFE05220221BC
:1001B0007348403800F0D6FE05220121090470483A
:1001C000403800F0CFFE012000F096FE052201210C
:1001D00049046B48403800F0C5FE012000F09EFE47
:1001E0000522012189046648403800F0BBFE012049
:1001F00000F0A6FE6248403800F0EAFE01216048A7
:10020000403800F019FE00BF60495D48403800F0FA
:1002100028FF0028F8D05A48403800F0FBFE09B00B
:1002200000BD8AB002A801F0F7F96421039801F03B
:1002300061FB04465548801E844200D90EE020022E
:10024000000A401E524948610321081F00F05CF873
:1002500000204F4988610720086100BF00F0D8F8EE
:10026000FFF769FFFFF73EFF43E000BF022000F009
:10027000BBFF0028FAD0022000F0C1FF41484188AE
:1002800044A001F047FE3F49088801F029FC464997
:1002900008603C49488801F023FC4449086039491A
:1002A000888801F01DFC424908603649C88801F081
:1002B00017FC404908603349088901F011FC3E49A8
:1002C00008603A48006801F012FC04463B4A3C4B87
:1002D00001F026FB064600223A4B01F089FB02465C
:1002E0000B460191009038A001F014FE6420FFF746
:1002F000F1FEBAE720480068002804D01E480068D4
:10030000401E1D490860704710B5002819DA314AAF
:1003100003071B0F083B9B089B00D2588307DC0E8A
:10032000FF23A3409A438B071B0E8407E40EA340D0
:100330001A43284B0407240F083CA408A4001A51B0
:1003400018E0254A03231B02D21883089B00D258C9
:100350008307DC0EFF23A3409A438B071B0E840701
:10036000E40EA3401A431C4B032424021B198408E7
:10037000A4001A5110BD0000140000200800024023
:100380004024014040000020000800480100000116
:1003900000E000E054686520564241542069733DF6
:1003A00025782C200D0A0000000000200400002009
:1003B000080000200C000020100000206666666621
:1003C00066661A4000FEAF404144323D25662C204F
:1003D0000D0A00001CED00E000E100E0704700BFE6
:1003E000FEE77047704710B5FFF784FF10BD0000AF
:1003F00070B504460D46E1B22E4800F0A3FB00BFE5
:1004000040212C4800F0B2FC0028F9D0204670BDF5
:1004100000B589B00121480401F0E0F90121880309
:1004200001F0EAF9E12040020390002004900590D9
:10043000069008900C20079001220921C80600F0C0
:1004400000FA01220A210920C00600F0FAF9012071
:10045000400201900221684601720321417200218D
:1004600081720121C17201A90920C00600F062F960
:1004700001208002019001A90920C00600F05AF96C
:1004800003A90C4800F026FA01220B49094800F0A4
:1004900039FC0121074800F0A4FA09B000BD08B5F5
:1004A0001B2168460170002141700121817000F01C
:1004B000BFFE08BD00380140050105000CB5002055
:1004C00001900090724800680121090408437049B6
:1004D000086000BF6E480068012149040840009090
:1004E0000198401C01900098002804D105210902C0
:1004F00001988842EED1664800680121490408420B
:1005000002D00120009001E0002000900098012816
:1005100038D111205F4908605D4840685C494860F7
:10052000084640684860084640683F2109048843FF
:100530005749486008464068112109040843544956
:1005400048600846006801210906084350490860D0
:1005500000BF4F480068012149060842F9D04C48C5
:100560004068800880004A49486008464068022187
:1005700008434749486000BF454840680C2108408F
:100580000828F9D10CBD10B5414800680121084385
:100590003F490860084640683F4908403C49486078
:1005A000084600683D490840394908600846006827
:1005B00001218904884336490860084640683F2184
:1005C00009048843324948600846C06A00090001AE
:1005D000C8620846006BFF21543188432C490863E8
:1005E0000846406B40084000486300208860FFF7E1
:1005F00065FF10BDF8B5002500240026002724481B
:1006000040680C2108400546002D04D0042D06D07A
:10061000082D2AD107E022482249086029E0204815
:100620002049086025E01A4840680F2189040840E5
:100630000446174840680121090408400646A00CFA
:10064000841C002E04D118486043164908600BE052
:100650000F48C06A0007000F471C3946104801F0D8
:1006600049F960430F49086003E00D480D490860EF
:1006700000BF00BF06484068F021084000090B4950
:100680000D5C08480068E84006490860F8BD0000B5
:1006900000100240002002400CB8FFF8FFFFF6FEF9
:1006A00000127A001800002000093D001C00002004
:1006B00010B504460920C006844209D1012148042E
:1006C00001F0B6F800210120400401F0B1F830E05B
:1006D0006D48844208D10121000201F0A9F80021EF
:1006E000200201F0A5F824E06848844208D10121E5
:1006F000000201F09DF80021200201F099F818E0B5
:100700006348844209D10121080501F091F80021D4
:100710000120000501F08CF80BE05E48844208D10E
:100720000121880501F084F800210120800501F0F5
:100730007FF810BDF0B50A4600210023002400BF59
:100740003DE001258D402B4615681D402C469C42FE
:1007500034D11579012D02D01579022D16D1856875
:100760004F000326BE40B543856055794E00B54025
:10077000866835438560858801268E40B54385802F
:10078000858896798E40B6B23543858005684F00DE
:100790000326BE40B543056015794E00B540066896
:1007A00035430560C5684F000326BE40B543C560AC
:1007B000D5794E00B540C6683543C560491C10293F
:1007C000BFD3F0BD344901600021017102214171A4
:1007D00000218171C171704708B501221204009295
:1007E000009A0A430092009AC261C161009AC261F4
:1007F000C2690092C269009208BD02460020138AB5
:100800000B4201D0012000E0002070470146088A19
:10081000704702460020938A0B4201D0012000E07D
:10082000002070470146888A7047816170470185C2
:100830007047002A01D0816100E001857047818204
:100840007047F0B5002300244D07EE0E1546B54065
:100850002B46CD10AE0005462035AD594E07F70E9C
:100860000F26BE40B543CE10B60007462037BD5117
:10087000CD10AE003D46AD591D432C46CD10AD0008
:100880003E467451F0BD00000004004800080048D6
:10089000000C004800140048FFFF000010B504469B
:1008A000F948844209D10121880300F0CFFF0021DB
:1008B0000120800300F0CAFF0BE0F448844208D115
:1008C0000121480400F0D0FF00210120400400F085
:1008D000CBFF10BDF0B589B004460D4600270020BF
:1008E00008900026206840084000206066680321C8
:1008F0000903304688430646A868064366602668B2
:10090000E3480640E96868680843296908430643E4
:100910002660A668032109023046884306466869B6
:100920000643A66001A800F077FED748844202D1B2
:100930000798089001E00398089020680121C903F6
:1009400008420CD02968089A500000F0D3FF0746EF
:100950002968089A500000F0CDFF0E4609E029688A
:10096000089800F0C7FF07462968089800F0C2FF02
:100970000E4628684008B04200D87F1C206801213C
:10098000C903084206D03807460F3846C149084017
:1009900030430746A78109B0F0BD4B21C901016072
:1009A000002141608160C1600C2101610021416131
:1009B000704710B5002242680F2424021346A34357
:1009C0001A464C680B6823438C682343CC68234346
:1009D0001A43426010BD0021016041608160C16026
:1009E0007047002904D0026801231A43026003E023
:1009F00002685208520002607047002A03D0036860
:100A00000B43036002E003688B43036070470029D7
:100A100005D002680123DB031A43026004E0026888
:100A20000123DB039A4302607047002905D08268E6
:100A30000123DB021A43826004E082680123DB02A7
:100A40009A4382607047002905D042680123DB0485
:100A50001A43426004E042680123DB049A43426087
:100A60007047002905D0426801239B041A43426065
:100A700004E0426801239B049A4342607047002AC5
:100A800003D043680B43436002E043688B434360F9
:100A90007047002905D042680123DB031A434260F6
:100AA00004E042680123DB039A4342607047002957
:100AB00005D042680123DB051A43426004E0426826
:100AC0000123DB059A43426070474269120E120609
:100AD000426142690A4342617047028AFF231B0256
:100AE0001A400282028A0A4302827047002904D017
:100AF000026802231A43026003E0026802239A4359
:100B000002607047826803231B059A4382608268F3
:100B10000A4382607047002905D0426801231B0503
:100B20001A43426004E0426801231B059A43426075
:100B30007047426803235B059A43426042680A4358
:100B400042607047CA05D20D028570470146888C05
:100B5000C005C00D704742681202120A4260426826
:100B60000B061A4342607047002905D00268012332
:100B70005B031A43026004E0026801235B039A43AB
:100B80000260704702680123DB029A430260026838
:100B90000A4302607047426810239A4342604268E9
:100BA0000A4342607047426820239A434260426889
:100BB0000A4342607047002905D0426801239B0325
:100BC0001A43426004E0426801239B039A43426057
:100BD0007047002904D0826808231A43826003E02A
:100BE000826808239A4382607047028AD2B20282E6
:100BF000028A0B021A4302827047002904D08268DD
:100C000020231A43826003E0826820239A43826093
:100C10007047002904D0826810231A43826003E0E1
:100C2000826810239A4382607047826807235B04BE
:100C30009A43826082684B041A438260704742691B
:100C40001202120A426142690B061A43426170475E
:100C5000826804239A43826082680A4382607047F4
:100C6000002904D0826802231A43826003E082686C
:100C700002239A438260704700290DD082680123C5
:100C80009B031A4382600CE000380140004400409E
:100C9000F3E9FFFFF0FF0000826801239B039A4302
:100CA0008260704782680123DB039A438260826816
:100CB0000A438260704702681F235B059A43026003
:100CC00002684B051A430260704702681F231B0429
:100CD0009A43026002680B041A4302607047002ABC
:100CE00003D083680B43836002E083688B43836097
:100CF0007047826801235B039A43826082680A43DB
:100D000082607047F8B5034600240026009600254F
:100D1000002018460E04340ECEB200960127009E25
:100D2000B7403D46022C01D1001D02E0032C00D14A
:100D30000830002A03D006682E43066002E00668E9
:100D4000AE430660F8BD002A03D0038B0B43038338
:100D500002E0038B8B4303837047826801231B03EC
:100D60009A43826082680A4382607047024600208C
:100D7000D3690B4201D0012000E0002070470162DE
:100D8000704770B502460B46002400210025002064
:100D90001E04350ED9B201268E403146012D02D1F6
:100DA0001668314006E0022D02D15668314001E05C
:100DB000966831401C0C0126A6403446D669344062
:100DC000002903D0002C01D0012000E0002070BDDC
:100DD00010B5002300220B0C01249C402246026225
:100DE00010BD000010B50446B348844207D101216C
:100DF000401500F02BFD0021601500F027FD10BD0F
:100E000010B50022C268AD4B1A400C7964030B6820
:100E100023438C682343CC6823430C6923434C69E8
:100E200023431A43C26010BD00210160017181603B
:100E3000C160016141617047002904D082680123CB
:100E40001A43826003E0826802231A43826070477B
:100E5000002A03D003690B43036102E003698B435B
:100E600003617047002905D0C2680123DB031A43E0
:100E7000C26004E0C2680123DB039A43C26070478A
:100E8000002905D0C26801239B031A43C26004E015
:100E9000C26801239B039A43C2607047002905D0B2
:100EA000C2680123DB051A43C26004E0C268012363
:100EB000DB059A43C26070470B041343036270471B
:100EC00010B50A460021C1681F24A4060B46A3439F
:100ED00019460B4613431946C16010BD002905D0C1
:100EE000C26801239B051A43C26004E0C268012363
:100EF0009B059A43C2607047002807D070498968F3
:100F00000122D20511436E4A916006E06C4989685E
:100F10000122D20591436A4A91607047002807D0A8
:100F200067498968012292051143654A916006E08C
:100F300063498968012292059143614A9160704733
:100F4000002807D05E4989680122120611435C4AD5
:100F5000916006E05A498968012212069143584A75
:100F60009160704710B50B460021846A1C4384626F
:100F700000BF0C4614432146416110BD002905D035
:100F8000C26801235B031A43C26004E0C268012304
:100F90005B039A43C2607047002905D0C2680123F1
:100FA0001B041A43C26004E0C26801231B049A4375
:100FB000C2607047002905D0C26801231B031A4391
:100FC000C26004E0C26801231B039A43C2607047F9
:100FD00030B501460020002200238C680125ED0772
:100FE0002C438C6000BF8C68E30FDB07521C0F247E
:100FF0002403A24201D0002BF5D18C68E40FE40752
:1010000001D1086C00E0002030BD8168102211433E
:1010100081607047816804221143816070470146F6
:10102000086C80B27047002904D0C26801231A43BB
:10103000C26003E0C26852085200C2607047C268D2
:1010400002239A43C260C2680A43C2607047002A02
:1010500003D043680B43436002E043688B43436023
:10106000704730B5024600200023012424062142A7
:1010700005D0946801252D06AC43234600E0136893
:101080001C460C4201D0012000E0002030BD016070
:10109000704710B502460020002354680C402346D8
:1010A00014680C4203D0002B01D0012000E0002086
:1010B00010BD0160704700000024014003D2FFFF13
:1010C000002701400168574A11400160002101607A
:1010D00041608160C1605449884208D15249083951
:1010E00049680F221143504A083A516035E04E4991
:1010F0001431884208D14C4908394968F02211431B
:10110000494A083A516028E047492831884209D1C4
:101110004549083949680F2212021143424A083AE8
:1011200051601AE040493C31884209D13E490839B2
:1011300049680F22120311433B4A083A51600CE000
:1011400039495031884208D13749083949680F2256
:1011500012041143344A083A5160704710B5002216
:101160000268324B1A400C6A8B6823430C69234394
:101170004C6923438C692343CC6923434C6A234342
:101180008C6A23431A430260CB6843600B68836018
:101190004B68C36010BD0021016041608160C16087
:1011A000016141618161C161016241628162704797
:1011B000002904D0026801231A43026003E0026898
:1011C000184B1A40026070474160704701464868FA
:1011D00080B27047002A03D003680B43036002E02B
:1011E00003688B4303607047014600200E4A083AAB
:1011F00012680A4201D0012000E0002070470A492D
:1012000008394860704701460020074A083A1268CA
:101210000A4201D0012000E000207047024908394D
:1012200048607047FEFF0000080002400F80FFFF8B
:1012300000218278002A27D0274A03231B02D218D4
:1012400003789B109B00D15802789207D30EFF229F
:101250009A400B469343194642789207120E037840
:101260009B07DB0E9A4011431B4A03231B02D21833
:1012700003789B109B00D1500278D306DB0E01222D
:101280009A40154B1A6007E00278D306DB0E012264
:101290009A40114B80331A607047002905D00F4ADD
:1012A000126902430D4B1A6104E00C4A1269824331
:1012B0000A4B1A617047042806D1094909690422BA
:1012C0001143074A116105E0054909690422914368
:1012D000034A11617047000000E100E000ED00E00A
:1012E00000E000E0FD48006801210843FB49086078
:1012F00008464068FA490840F849486008460068CE
:10130000F8490840F5490860084600680121890449
:101310008843F2490860084640683F210904884331
:10132000EE4948600846C06A00090001C8620846E4
:10133000006BFF2154318843E84908630846406B3D
:101340004008400048630020886070470021E34A5D
:10135000917011468870704710B502460021002335
:1013600000205111002902D1DC4C23680BE0012937
:1013700002D1DA4C236A06E0022902D1D74C636A13
:1013800001E0D64C636BD106C90E01248C401C428F
:1013900001D0012000E0002010BD38B500200090F1
:1013A0000024002500BF1120FFF7D6FF0546009856
:1013B000401C0090052109020098884201D0002DB0
:1013C000F1D01120FFF7C8FF002801D0012400E070
:1013D0000024204638BD01460020C04A1068F8238A
:1013E00002469A431046CA001043BC4A1060704738
:1013F000002806D0B949096801221143B74A116093
:1014000005E0B649096849084900B44A11607047C7
:1014100001460020B14A506BF82302469A43104619
:10142000CA001043AD4A50637047002806D0AB494C
:10143000496B01221143A94A516305E0A749496B51
:1014400049084900A54A51637047002806D0A349BE
:10145000496B04229143A14A516305E09F49496BBE
:10146000042211439D4A516370479C49096A490807
:1014700049009A4A11621146096A04229143974A27
:1014800011621146096A0143116270479349096A62
:1014900018229143914A11621146096A014311626F
:1014A0007047002806D08D49496A012211438B4AB2
:1014B000516205E08949496A49084900874A5162F1
:1014C0007047864A52683D231B049A43834B5A60F7
:1014D0001A46526803460B431A43804B5A607047C2
:1014E000002807D07D4909680122120611437B4A72
:1014F000116006E079490968012212069143774A92
:101500001160704701460020744AD06A000900014A
:1015100002460A431046714AD0627047002807D03D
:101520006E4909680122D20411436C4A116006E039
:101530006A4909680122D2049143684A11607047E0
:101540006649C871704701460020644A50688008A7
:10155000800002460A431046604A506070475F4868
:1015600040680C2108407047014600205B4A5068E3
:10157000F02302469A43104602460A431046574A51
:101580005060704701460020544A506807231B02F0
:1015900002469A43104602460A4310464F4A50609C
:1015A00070474E4949680122920391434B4A51606A
:1015B0001146496882B21143484A51601146096B8D
:1015C00092159143454A11631146096B020C114370
:1015D000424A116370474149096B402291433F4A97
:1015E00011631146096B0143116370473B49096B55
:1015F00010229143394A11631146096B014311636B
:1016000070473649096B89088900344A11631146CD
:10161000096B014311637047FEB50446002500269F
:1016200000200190009000272C4840680C210840C1
:101630000546002D04D0042D05D0082D28D105E045
:101640002948206027E02848206024E0234840689B
:101650000F218904084006462048406801210904FA
:1016600008400190B00C861C0198002803D11F4847
:10167000704320600BE01948C06A0007000F401C4F
:1016800000901948009900F035F97043206002E09D
:101690001548206000BF00BF10484068F021084096
:1016A00005462D091248475D2068F84060600B48E8
:1016B000406807210902084005462D0A0C48475D8D
:1016C0006068F840A0600548006BFF2101310840C8
:1016D000884211D00748E0601CE000000010024082
:1016E0000CB8FFF8FFFFF6FE00127A0000093D007B
:1016F0002C000020809FD500744840680121890398
:101700000840884203D0A0684008E06002E0A0687A
:101710008008E0606D48006B40210840402802D0FE
:101720006B48206102E00120C00320616748006B24
:1017300010210840102802D06648606101E020684E
:1017400060616248006B8007800F02D1A068A061D1
:1017500019E05E48006B8007800F012802D12068E5
:10176000A06110E05948006B8007800F022802D169
:101770008003A06107E05548006B8007800F0328B5
:1017800001D15448A061FEBD5049096A01434F4A46
:1017900011627047002807D04C49096A0122D20320
:1017A00011434A4A116206E04849096A0122D203FC
:1017B0009143464A11627047002807D04349096A9D
:1017C000012212041143414A116206E03F49096AAD
:1017D0000122120491433D4A11627047002905D04D
:1017E0003A4A52690243394B5A6104E0374A526916
:1017F0008243364B5A617047002905D0334A9269BB
:101800000243324B9A6104E0304A926982432F4B83
:101810009A617047002905D02C4AD26902432B4BAC
:10182000DA6104E0294AD2698243284BDA617047C1
:10183000002905D0254A926A0243244B9A6204E0AB
:10184000224A926A8243214B9A627047002905D04E
:101850001E4AD26802431D4BDA6004E01B4AD2687C
:1018600082431A4BDA607047002905D0174A126983
:101870000243164B1A6104E0144A12698243134B67
:101880001A617047002905D0104A527A02430F4B63
:101890005A7204E00D4A527A82430C4B5A727047D6
:1018A0000A48406A0121090608430849486270470E
:1018B00001460020054A92680A4201D0012000E05A
:1018C00000207047014988727047000000100240F4
:1018D0001280000000127A00044880470448004744
:1018E000FEE7FEE7FEE7FEE7FEE7FEE78705000806
:1018F000C100000830B50B4601460020202201241B
:1019000009E00D46D5409D4205D31D469540491B33
:101910002546954040191546521E002DF1DC30BD7C
:10192000F0B51FB488B00B99099800244840099974
:10193000C00F490049080991C0070B990090490060
:1019400049080B9109990898A646084303D00B99BA
:101950000A98084303D1002001460DB0F0BD099854
:1019600001244000420D4800410D09982405000360
:10197000000B204309900B980003000B20430B90B1
:1019800050181A494018002201901446104601E0F0
:10199000032801DA034600E003239C46C11A0AAE7D
:1019A0000AE05F0008ADED5B4F00F75B7D43002769
:1019B000AA187C415B1E491C6145F2DD410004AB65
:1019C0005A522104120C0A43240C401C0828DFDB65
:1019D000019802900099704601910090059B049A2D
:1019E0000799069800F016F9B7E700000DFCFFFF15
:1019F000F0B50C465C4085B0E40FE40703944C005E
:101A0000002664085900944649080246029622437B
:101A100021D062460A431ED06200570D4A000E03D1
:101A20002303550D012402462C492405781B1B0B6A
:101A3000360B401823432643614600901C46501A3B
:101A4000B44103D30098401C009002E09218009823
:101A50005B41002803DA0020014605B0F0BD0020FC
:101A6000012109050746864611E064461D46141B00
:101A7000B54106D36546521BB341744607430C4338
:101A8000A646CD0740084908284392185B41054601
:101A90000D43EAD11046184313D060461946504012
:101AA0007140084303D100220123DB0709E06046AF
:101AB000101AB34102D20122002302E00122D243D4
:101AC0005310009874460105381C6141029C039D27
:101AD0000019694100F091F8BFE70000FD03000024
:101AE00010B500229623114600F04DF810BDC20F2C
:101AF000D207400040080BD0C10D0723DB01C918F5
:101B000040020905400A1143C208400711437047CB
:101B1000002001467047F0B51FB40646002082B091
:101B200005464024019100901BE0019922460F4692
:101B3000304600F0CBF9049A059B801A994110D3E6
:101B400010461946224600F0B1F9361A8F41019726
:101B5000224601200021009F00F0A8F938184D41CD
:101B600000902046641E0028DFDC019B0098294677
:101B7000324607B0F0BD002904DA401C490001D10B
:101B800040084000704770B40024050C05D11024B3
:101B9000000402D1002922D01124050E01D10834FD
:101BA0000002050F01D1241D0001850F01D1A41CE5
:101BB0008000002801DB641C4000002908D020259B
:101BC0002E1B0D46F540A14000D0012129430843BA
:101BD0001B1B0106DB1D000A002B02DA002070BC73
:101BE0007047DB05181880180029F8DA401C4900F6
:101BF000F5D170BC40084000704710B5002B08DAE2
:101C00000024401C614192185B411A4301D14008F5
:101C1000400010BDF0B51FB482B005460C0003D0E3
:101C2000084600F087F902E000F084F9203002460F
:101C300000902146284600F039F9049B059A044695
:101C40000F4618431143084303D12046394607B0D5
:101C5000F0BD1846104317D0009840210A1A1846C4
:101C6000059900F033F905460E46009A0599049847
:101C700000F01CF9084301D0012000E00020C1174A
:101C800005430E432C43374300990E986305401AD1
:101C90007905E40A0A3000220C43FD0A002802DA22
:101CA00000200146D3E70105101969410C9C0D9DE8
:101CB00000196941FFF7A1FFC9E70000F0B5074629
:101CC0000846584087B0C00F049048000E4659009F
:101CD00040084908BC1A884105D2384631461E469C
:101CE00017460B46024658004008104303D13846B9
:101CF000314607B0F0BD300D039040055900400D4E
:101D0000490D0590401A029040286DDA1803012110
:101D1000000B09050843019004980092002805D0A3
:101D2000019952420020884100920190029840217E
:101D30000A1A0199009800F0B9F805460C46684661
:101D400007C800F0D4F8C0197141039A0E0D0023A2
:101D5000D71756401A467A40164340D0049A002AB4
:101D600029D0029A012A039A11DC1205C01A914166
:101D700001263605001C7141D20F059ED207009343
:101D8000019202962A462346FFF744FFB1E7160563
:101D9000224A0F46B218C01AB74101210905001C9A
:101DA0004F4100187F41114618187941E20F104346
:101DB0006D19644113E0E2076D0815436408C2071A
:101DC0001443039A01261205C01A91413605001CDE
:101DD0007141CE07400830434908C01851412A4696
:101DE0002346FFF70AFF84E7049801224000C11749
:101DF000121A00238B4104983146C417381AA141A6
:101E0000EFE730B40124E407634030BC56E730B458
:101E10000124E407614030BC50E700000000E0FF0F
:101E20004A0009030123090B1B0519430A4B10B58E
:101E3000520D9A4202DA0020014610BD064B34339F
:101E40009A4203DC9A1A00F041F810BD034BD218F5
:101E500000F02CF810BD0000FF030000CDFBFFFFD9
:101E600010B5002904DB0124E40740428C412146DF
:101E7000002B04DB1C460123DB075242A34199429D
:101E800000D1904210BD0000064C0125064E05E031
:101E90002046E36807C82B4398471034B442F7D371
:101EA000FEF712F91C2800083C28000810B5202A6B
:101EB00004DB0146203A9140002010BD91402023D0
:101EC0009C1A0346E3401943904010BD10B5202AE8
:101ED00004DB0846203AD040002110BD0B46D34019
:101EE000D0402024A21A91400843194610BD10B5D5
:101EF000202A06DBCB170846203A1041C1170B43B6
:101F000006E00B461341D0402024A21A914008431A
:101F1000194610BD0FB410B503A9044B044A02982A
:101F200000F0DAF810BC08BC04B01847F103000850
:101F30003C0000202021020C01D010211046020A92
:101F400001D008391046020901D0091F1046820845
:101F500001D0891E1046420801D0881E7047081A19
:101F6000704702E008C8121F08C1002AFAD1704762
:101F70007047002001E001C1121F002AFBD1704709
:101F8000F0B51FB484B007980699020D01430FD134
:101F90000F98012449A3012807D004980F9A846060
:101FA0000360C260416009B0F0BD0E98C143F4E720
:101FB000434844491018484305140F9801280E98C7
:101FC0000BD0281A401C00243F4E40490094019138
:101FD0000290002803DA474216E04042F3E7074642
:101FE00012E0F80707D02246334601990098FFF720
:101FF00097FC019100902246334610461946FFF7A0
:102000008FFC04460E467F10002FEAD10298019BF8
:102010000028009A0799069802DAFFF781FC01E090
:10202000FFF7E6FC04460E460022294BFFF718FF97
:1020300003D80020C043014607E00022254B20467C
:102040003146FFF73BFEFFF7EBFE102409E0002CC2
:102050000ADB0A220023FFF75EFD059B30321A558A
:10206000641E02460A43F2D1641C1122059B121B16
:102070001C190F9B012B08D00123084302D10E9895
:1020800082420DDD00236D1C0EE0084303D10E9843
:10209000151A6D1E0AE011200E9000200F908CE79B
:1020A000824201DA00236D1E002B86D004980F991E
:1020B000456004608260C16075E700003000000088
:1020C00001FCFFFF104D0000000024400000F03F25
:1020D0000000F0430000E03FFFB597B00646002542
:1020E0001FE2252879D10024F9492746761C04945B
:1020F00032780120203A904002460A4202D004433E
:10210000761CF5E730782A280ED002223078014676
:102110003039092916D804990A235943303940180F
:102120001443761C0490F1E7189802C804911890A3
:10213000002904DA012040030443484204900220AD
:102140000443761C30782E2814D104200443761CD6
:1021500030782A2809D11898761C80C8189009E090
:102160000A214F43303FC719761C30780146303979
:102170000929F5D930786C2810D006DC4C281AD003
:1021800068280ED06A2817D104E0742813D07A2862
:1021900012D110E00120400504430CE001210905A3
:1021A00001E0032109050C437178814203D101202C
:1021B000761C00052418761C3078119066280BD008
:1021C00013DC58287ED009DC00287CD04528F6D0C6
:1021D0004628F4D047281AD1AAE118E0632836D05F
:1021E000642871D0652812D1A2E170286DD008DC76
:1021F0006728F1D069287CD06E280DD06F2806D1D1
:10220000BDE073282FD0752872D078285AD01A9A3A
:10221000199990476D1C83E16002400F022809D094
:1022200003280DD00428189801680DD0001D0D60FA
:10223000189075E11898EA1702C80D604A60F7E730
:10224000189802C80D80F3E7001D0D70F0E718988C
:102250006A460178001D117218900020507202A881
:102260000090012005E0189802C818900020009105
:10227000C04361070DD5002101E00199491C01917E
:10228000B94212DA8142F8DB009A515C0029F4D19C
:102290000BE0002101E00199491C01918142FADB28
:1022A000019A0099895C0029F5D1019904981A9B3B
:1022B000471A21463846199A00F09AFA01994019AE
:1022C00045180BE051E030E113E050E00098009930
:1022D0000078491C00911A9A199990470198401E5C
:1022E0000190401CF2D1214638461A9B199A14E1FC
:1022F00039E00A200021009001916002410F02297B
:1023000007D0189A01CA1892C217944603290AD016
:102310000CE01898C01DC108C9004A680868083157
:102320009446189107E000B2C2179446042902D1DE
:1023300040B2C1178C4600226146944506DA0A462F
:102340000021404291418C462D2102E0210504D517
:102350002B216A461173012103E0E10701D02021FE
:10236000F7E7029151E00A200AE0102008E010206F
:1023700000900021042004430191082703E0082075
:102380000021019100906002410F022907D0189AA4
:1023900001CA18920022944603290AD00AE018982C
:1023A000C01DC108C9004A680868083194461891E0
:1023B00003E080B2042900D1C0B2002102912107BC
:1023C00023D51199702928D0009A1021019B4A40E9
:1023D0001A4309D16146014306D030216A46117380
:1023E0001199517302210291009A0821019B4A40E0
:1023F0001A430AD16146014301D1610705D5302155
:102400006A46117301217F1E02911199582909D042
:1024100030A10E910DA90D9112E040216A46117371
:102420000121E0E730A1F4E76146019B009AFFF744
:1024300072FB0E9B8C469B5C0D9A521E0D92137084
:1024400061460143F0D10D9805A9081A203001908A
:10245000600703D501200004844300E001270198B0
:10246000874201DD381A00E00020019900904118F0
:10247000029809180498401A0490E00306D42146F3
:102480001A9B199A049800F0B3F94519002706E041
:1024900003A81A9AC05D199990476D1C7F1C029879
:1024A0008742F5DBE0030CD521461A9B199A049864
:1024B00000F09EF9451904E01A9A302019999047C6
:1024C0006D1C0099481E00900029F5DC1FE00000FB
:1024D00009280100303132333435363738396162FA
:1024E00063646566000000003031323334353637BE
:1024F0003839414243444546000000000D980D998B
:102500000078491C0D911A9A199990476D1C0199F0
:10251000481E01900029F1DC4CE100F059F9451901
:10252000761C3078002800D0DBE528461BB0F0BDD3
:10253000600700D406271898C01DC108C900486864
:102540000A680831C30FDB071891190001D09CA15C
:1025500008E0210501D59BA104E0E10701D09AA183
:1025600000E09AA1430011985B08109165280CD0F7
:1025700006DC452809D046281DD0472841D141E036
:10258000662818D067283CD13CE00021112F01DBE0
:10259000112000E0781C0191009008A911A8FFF714
:1025A000EFFC139905910021119A15927F1C129846
:1025B0000197009150E00120C00703900120019095
:1025C00008A9009711A8FFF7DBFC139A149905924C
:1025D0000022119B009212981593059A01920029EE
:1025E00001D0104602E0791C40180190381A01D53C
:1025F000019804E04042401E0090781C0190C01BEE
:10260000029043E0012F00DA01270021112F01DDA4
:10261000112000E038460191009008A911A8FFF7A9
:10262000AFFC13990591119A00211298159200910F
:10263000019721070CD40599B94201DB019900E00B
:102640000191012904DD159A491E515C302906D0FB
:10265000B84201DA011D05DA0121029115E0019964
:10266000491EEDE7002805DC009941180091019909
:10267000091A03E0019A411C914200DD0191009981
:10268000401A401C02900120C0070390200706D486
:1026900002990198814202DB0020C0430290002091
:1026A0006946C87707AF012103980337C9078842F5
:1026B00024D0022011902B201290039800280CDACD
:1026C000404203902D20129007E00A210398FFF763
:1026D00011F930317F1E039039701199481E119005
:1026E0000029F2DC03980028EFD1791E12980870B7
:1026F0003078202108404530BF1E387006A8C01B26
:10270000C01D039010980078002800D00120019986
:1027100041180298C0170918039809180498401A1C
:10272000401E0490E00306D421461A9B199A04988F
:1027300000F05EF8451910980078002803D01A9A26
:10274000199990476D1CE00323D521461A9B199ACD
:10275000049800F04DF845191BE00098002807DBAD
:1027600000990598884203DD1598405C199901E0AD
:10277000199930201A9A904700986D1C401C0090BF
:102780000298401E029004D11A9A2E20199990475F
:102790006D1C0199481E01900029DEDC05E03878A7
:1027A0001A9A7F1C199990476D1C0399481E039033
:1027B0000029F4DC21461A9B199A0498ADE6000022
:1027C0002D0000002B000000200000000000000091
:1027D000F8B5044600251E461746880404D405E0D3
:1027E00039462020B0476D1C641EF9D52846F8BD37
:1027F000FFB50446002581B01E46C80301D5302729
:1028000000E02027880404D505E038460399B04746
:102810006D1C641EF9D5284605B0F0BD3C280008A3
:102820000000002040000000621F00087C28000813
:102830004000002010040000721F0008000000008B
:102840000000000000000000000000000000000088
:1028500000000000006CDC0200000000000000002E
:102860000102030406070809000000000102030436
:0C28700001020304060708090000000034
:04000005080000C12E
:00000001FF
