:020000040800F2
:1000000028080020D5000008A504000819030008EE
:1000100000000000000000000000000000000000E0
:1000200000000000000000000000000019070008A8
:1000300000000000000000002F050008F107000884
:10004000E7000008E7000008E7000008E7000008F4
:10005000E7000008E7000008E7000008E7000008E4
:10006000E7000008E7000008E7000008E7000008D4
:10007000E7000008E7000008E7000008E7000008C4
:10008000E7000008E700000800000000E7000008A3
:10009000E7000008E7000008E7000008E7000008A4
:1000A000E7000008E7000008E70000088D080008E6
:1000B000E700000800000000E70000080000000062
:1000C0000348854600F06EF800480047510E0008CE
:1000D000280800200448804704480047FEE7FEE760
:1000E000FEE7FEE7FEE7FEE7F9070008C1000008AB
:1000F00030B50B46014600202022012409E00D46C0
:10010000D5409D4205D31D469540491B2546954047
:1001100040191546521E002DF1DC30BD70B500248B
:100120002546002801DA01244042002901DA012590
:100130004942FFF7DDFFAC4200D04042002C00D026
:10014000494270BDF0B51FB40646002082B0054696
:100150004024019100901BE0019922460F46304651
:1001600000F042F8049A059B801A994110D310467A
:100170001946224600F028F8361A8F410197224688
:1001800001200021009F00F01FF838184D41009019
:100190002046641E0028DFDC019B00982946324679
:1001A00007B0F0BD064C0125064E05E02046E36889
:1001B00007C82B4398471034B442F7D3FFF784FFA6
:1001C000041600082416000810B5202A04DB014696
:1001D000203A9140002010BD914020239C1A0346F4
:1001E000E3401943904010BD10B5202A04DB0846B7
:1001F000203AD040002110BD0B46D340D0402024EF
:10020000A21A91400843194610BD10B5034607E0F5
:1002100018780C78A04201D0002010BD5B1C491C4E
:100220001046541EA2B20028F2D10120F5E70000CA
:100230000349086000BF024909680029FBD17047E3
:1002400010000020F0B50A4600210023002400BF62
:100250003DE001258D402B4615681D402C469C42F3
:1002600034D11579012D02D01579022D16D185686A
:100270004F000326BE40B543856055794E00B5401A
:10028000866835438560858801268E40B543858024
:10029000858896798E40B6B23543858005684F00D3
:1002A0000326BE40B543056015794E00B54006688B
:1002B00035430560C5684F000326BE40B543C560A1
:1002C000D5794E00B540C6683543C560491C102934
:1002D000BFD3F0BDF0B5002300244D07EE0E154648
:1002E000B5402B46CD10AE0005462035AD594E0722
:1002F000F70E0F26BE40B543CE10B6000746203796
:10030000BD51CD10AE003D46AD591D432C46CD101C
:10031000AD003E467451F0BD00BFFEE7C1617047BD
:10032000002904D0026801231A43026003E0026836
:10033000520852000260704700B589B0002000F0FA
:10034000DDF90121880400F0F3F80121480500F0EF
:10035000FFF8012206211848FFF7BCFF0122072100
:100360001548FFF7B7FF4020009002216846017151
:10037000032141710121817169460F48FFF762FF36
:100380008020009069460C48FFF75CFF0020059034
:10039000039004900690079008900848029002A9E4
:1003A000074800F02DF801210548FFF7B9FFA0200C
:1003B0000449088009B000BD000400480705210079
:1003C0000054004000000020002905D042680123AD
:1003D0005B031A43426004E0426801235B039A43D3
:1003E0004260704710B502460023002093691C4606
:1003F0000C402346002B01D0012000E0002010BD5E
:1004000010B50A46002103685B085B0003600168C1
:10041000144B194094682402536823431943016024
:100420000F2424061368A3430361036801242343B4
:10043000036000218160C1601469936923431946F8
:10044000816083680124E40323438360D1680368E7
:100450000B4303604168044B1940536919434160E1
:1004600010BD0000FFE0CF00FF7FFF070146486A94
:10047000C0B2704781627047F0B50C4600214168F8
:10048000074D2940A505AD0D1604FF273F043E404A
:1004900035431D43059E354329434160F0BD0000AF
:1004A000009800FC7047000000218278002A27D0C5
:1004B000184A03231B02D21803789B109B00D158C3
:1004C00002789207D30EFF229A400B4693431946B7
:1004D00042789207120E03789B07DB0E9A40114375
:1004E0000C4A03231B02D21803789B109B00D150A7
:1004F0000278D306DB0E01229A40064B1A6007E011
:100500000278D306DB0E01229A40024B80331A6038
:100510007047000000E100E008B51B21684601704B
:100520000021417001218170FFF7BEFF08BD7047B7
:10053000002905D0054A52690243044B5A6104E080
:10054000024A52698243014B5A61704700100240CF
:10055000002905D0054AD2690243044BDA6104E060
:10056000024AD2698243014BDA61704700100240AF
:10057000002905D0054A92690243044B9A6104E0C0
:10058000024A92698243014B9A617047001002400F
:10059000FEB50446002500260020019000900027AB
:1005A000504840680C2108400546002D04D0042D19
:1005B00005D0082D28D105E04B48206027E04A48A7
:1005C000206024E0474840680F218904084006461F
:1005D000444840680121090408400190B00C861C81
:1005E0000198002803D14148704320600BE03D484A
:1005F000C06A0007000F401C00903B480099FFF7BD
:1006000077FD7043206002E03748206000BF00BFE4
:1006100034484068F021084005462D093448475DBC
:100620002068F84060602F484068072109020840B0
:1006300005462D0A2E48475D6068F840A0602948AD
:10064000006BFF2101310840884202D02948E06058
:100650000DE024484068012189030840884203D006
:10066000A0684008E06002E0A0688008E0601D48E3
:10067000006B40210840402802D01F48206102E062
:100680000120C00320611748006B1021084010288A
:1006900002D01548606101E0206860611148006B7C
:1006A0008007800F02D1A068A06119E00D48006B9F
:1006B0008007800F012802D12068A06110E009485E
:1006C000006B8007800F022802D18003A06107E041
:1006D0000448006B8007800F032801D10248A06105
:1006E000FEBD00000010024000127A0000093D002B
:1006F00014000020809FD500128000000549096B7E
:1007000010229143034A11631146096B014311639F
:100710007047000000100240704700000CB5002038
:1007200001900090304800680121090408432E49D7
:10073000086000BF2C48006801214904084000906F
:100740000198401C01900098002804D1052109025D
:1007500001988842EED124480068012149040842EA
:1007600002D00120009001E00020009000980128B4
:1007700038D111201D4908601B4840681A4948605B
:10078000084640684860084640683F21090488439D
:100790001549486008464068112109040843124978
:1007A0004860084600680121090608430E490860B0
:1007B00000BF0D480068012149060842F9D00A48E7
:1007C0004068800880000849486008464068022167
:1007D00008430549486000BF034840680C210840B1
:1007E0000828F9D10CBD0000001002400020024092
:1007F00010B500F03FF810BD10B51B48006801218E
:1008000008431949086008464068184908401649D5
:1008100048600846006816490840134908600846C1
:1008200000680121890488430F4908600846406830
:100830003F21090488430C4948600846C06A000902
:100840000001C8620846006BFF2154318843064905
:1008500008630846406B40084000486300208860F9
:10086000FFF75CFF10BD0000001002400CB8FFF85D
:10087000FFFFF6FE04480068002804D00248006824
:10088000401E0149086070471000002010B50A4959
:100890000A4800F080F800280CD0084800F02EF933
:1008A0004406640E2146054800F02DF9024903482C
:1008B00000F006F810BD00000501050000380140F9
:1008C00010B5002300220B0C01249C40224602623A
:1008D00010BD002904D0026801231A43026003E01E
:1008E00002685208520002607047000000B589B0EB
:1008F00001214804FFF71CFE01218803FFF738FEA1
:10090000E12040020390002004900590069008909A
:100910000C20079001220921C806FFF7DBFC012209
:100920000A210920C006FFF7D5FC012040020190F2
:100930000221684601720321417200218172012166
:10094000C17201A90920C006FFF77CFC01208002CA
:10095000019001A90920C006FFF774FC03A907480C
:1009600000F062F801220649044800F03BF801213A
:100970000248FFF7AEFF09B000BD0000003801409B
:100980000501050002460020D3690B4201D0012079
:1009900000E00020704770B502460B46002400219D
:1009A000002500201E04350ED9B201268E403146A6
:1009B000012D02D11668314006E0022D02D15668A1
:1009C000314001E0966831401C0C0126A6403446B7
:1009D000D6693440002903D0002C01D0012000E06A
:1009E000002070BDF8B503460024002600960025BF
:1009F000002018460E04340ECEB200960127009E49
:100A0000B7403D46022C01D1001D02E0032C00D16D
:100A10000830002A03D006682E43066002E006680C
:100A2000AE430660F8BD0000F0B589B004460D463F
:100A30000027002008900026206840084000206021
:100A4000666803210903304688430646A8680643C2
:100A50006660266826480640E96868680843296990
:100A6000084306432660A6680321090230468843EE
:100A7000064668690643A66001A8FFF789FD1D4880
:100A8000844202D10798089001E0039808902068FA
:100A90000121C90308420CD02968089A5000FFF7C9
:100AA00027FB07462968089A5000FFF721FB0E46EE
:100AB00009E029680898FFF71BFB07462968089892
:100AC000FFF716FB0E4628684008B04200D87F1C8E
:100AD00020680121C903084206D03807460F38466E
:100AE0000549084030430746A78109B0F0BD000022
:100AF000F3E9FFFF00380140F0FF00000146888C59
:100B0000C005C00D7047CA05D20D028570470000B0
:100B10000FB410B503A9044B044A029800F018F86A
:100B200010BC08BC04B018472D0E0008240000209B
:100B300002E008C8121F08C1002AFAD170477047A6
:100B4000002001E001C1121F002AFBD17047000004
:100B5000FFB58FB00F46044600264AE1252858D13C
:100B60000025641CA64A0121009523780846203BF5
:100B700098400346134202D00543641CF5E72078F1
:100B80002E2815D104200543641C20782A280AD178
:100B900001CF641C00900BE000990A2251433039C8
:100BA0004018641C00902078014630390929F3D997
:100BB00020786C280ED004DC4C2813D06A2812D17F
:100BC00004E074280ED07A280DD10BE001204005F6
:100BD000054307E00121090562780D43824201D1F6
:100BE000641C6D18641C20788646692849D008DC8E
:100BF00000286FD0582870D063280FD0642808D1FF
:100C00003FE070286ED0732812D0752860D0782805
:100C100063D0129A11999047761CE9E038786946BA
:100C200008720020487202A83F1D0190012003E0D5
:100C300001CF01900020C04369070CD5002500E0DA
:100C40006D1C00998D420FDA8542F9DB0199495DEF
:100C50000029F5D108E0002500E06D1C8542FCDB91
:100C60000199495D0029F8D1761907E001980199A9
:100C70000078491C0191129A119990476D1EF5D286
:100C8000B6E00A20029000216802400F039102287A
:100C90000CD001CFC117844600290EDA62460846FF
:100CA00052420021814194462D2009E0FF1DFF089A
:100CB000FF00796838680837EDE7280504D52B2050
:100CC0006A461074012032E0E80730D02020F7E7B0
:100CD0000A2003E091E000E004E0102000210391ED
:100CE000029007E010200290002104200543082014
:100CF000039100906802400F02281DD001CF00210F
:100D0000844600200D90280712D5704670281AD00E
:100D1000029A1020039B42401A4309D160460843BF
:100D200006D030206A4610747046507402200D9030
:100D30007046582811D00BE0FF1DFF08FF007968AE
:100D400038680837DCE740206A46107401200D90AF
:100D50002CA001900DA80E900DE02FA0F9E76046A1
:100D6000039B029AFFF7EEF9019B84469B5C0E9A67
:100D7000521E0E92137060460843F0D10E9805A9DA
:100D8000081A20300190680701D5009801E0012081
:100D900000900199884203DD01460198081A00E09D
:100DA00000200025009006E004A8129A405D1199E9
:100DB0009047761C6D1C0D988542F5DB04E0129A75
:100DC000302011999047761C0099481E0090002908
:100DD000F5DC08E00E980E990078491C0E91129AE5
:100DE00011999047761C0199481E01900029F1DC69
:100DF000641C2078002800D0B0E6304613B0F0BD67
:100E000009280100303132333435363738396162E0
:100E100063646566000000003031323334353637A4
:100E200038394142434445460000000070B504464D
:100E30000D46E1B20548FFF766FE00BF40210348BA
:100E4000FFF7A0FD0028F9D0204670BD0038014012
:100E5000002403E03A490C55601C84B2FF2CF9DDF4
:100E6000002403E037490C55601C84B2FF2CF9DDE7
:100E7000FFF73CFD34A0FFF74BFEFFF74DFBFFF7FC
:100E80005BFA34A0FFF744FEFF23013300222C4914
:100E9000364800F049FA354800F00CFAFF200130DE
:100EA000334908800B4600223249304800F09AF856
:100EB000FF2201322F492248FFF7A7F92E49087077
:100EC00008460078012803D12CA0FFF721FE02E09C
:100ED00020A0FFF71DFE254881692EA0FFF718FE10
:100EE000FF2301331A461749204800F01DFA1F4816
:100EF00000F0E0F9FF2001301D4908800B46024652
:100F00002A491A4800F06EF8FF22013227490D489D
:100F1000FFF77BF92649087008460078012803D1BD
:100F200024A0FFF7F5FD02E028A0FFF7F1FD05E0A2
:100F300005A0FFF7EDFD6420FFF77AF9F8E7000060
:100F400028000020280100207761766573686172AF
:100F5000650D0A00205472616E736665722031203F
:100F60004641494C45442020000000000054004008
:100F70000E000020280200200C0000202054726186
:100F80006E736665722031205041535345442020D2
:100F90000000000049326320493243785F495352D0
:100FA0003A20307825780D0A000000002803002040
:100FB0000D000020205472616E736665722032202D
:100FC00050415353454420200000000020547261DA
:100FD0006E736665722032204641494C454420209C
:100FE00000000000FFB583B00E461D46002700201C
:100FF0000290002401902888FF21FFF78FF80290CB
:101000002888FF21FFF78AF80F46012040030023BC
:10101000012200909E4801880398FFF72DFA0520D1
:1010200040039C49086008E09A490868411E994AB3
:101030001160002801D100F03BF902210398FFF76D
:10104000D1F90028F0D00598C1B20398FFF712FA41
:10105000052040038F49086008E08E490868411E5A
:101060008C4A1160002801D100F022F94021039838
:10107000FFF7B8F90028F0D0029800287ED00120B0
:10108000019078E00198002813D1052040038149A0
:10109000086008E07F490868411E7E4A1160002808
:1010A00001D100F005F980210398FFF79BF9002892
:1010B000F0D0029801281BD1002F19D101980028E7
:1010C0000BD00920800201235B06FF2200907048AC
:1010D00001880398FFF7D0F923E0002001235B0685
:1010E000FF2200906A4801880398FFF7C5F918E0CD
:1010F000019800280BD00920800201231B06FF2243
:101100000090634801880398FFF7B6F909E00020D2
:1011100001231B06FF2200905D4801880398FFF71A
:10112000ABF90020019000241FE00520400359493D
:10113000086008E057490868411E564A11600028B7
:1011400001D100F0B5F804210398FFF74BF900280E
:10115000F0D00398FFF78AF93055315D4EA0FFF7C4
:10116000D7FC641C2888401E2880FF2CDDD136194E
:101170000298401E02900298002800E041E081D1D0
:10118000002F69D0052040034249086008E041492A
:101190000868411E3F4A1160002801D100F088F81C
:1011A00080210398FFF71EF90028F0D00020FAB242
:1011B00001235B060090364801880398FFF75CF92D
:1011C00000241BE0052040033249086008E0314953
:1011D0000868411E2F4A1160002801D100F068F80C
:1011E00004210398FFF7FEF80028F0D00398FFF7DA
:1011F0003DF93055641C2888401E2880BC42E1D14E
:101200002AE009208002FAB201235B060090204800
:1012100001880398FFF730F900241BE00520400304
:101220001C49086008E01B490868411E194A116002
:10123000002801D100F03CF804210398FFF7D2F810
:101240000028F0D00398FFF711F93055641C288866
:10125000401E2880BC42E1D1052040030D490860B2
:1012600008E00C490868411E0A4A1160002801D1B3
:1012700000F01EF820210398FFF7B4F80028F0D002
:1012800020210398FFF74AF8002007B0F0BD0000C6
:1012900000000020040000207265636569766564C3
:1012A00020646174613A20307825780D0A000000CE
:1012B00000BFFEE71CB504460020019001235B0639
:1012C00002460090164801882046FFF7D5F800BF77
:1012D000012000031349086030212046FFF71EF863
:1012E00001212046FFF770F800BF0E490868411E33
:1012F0000C4A11600028F8D10198411C0191FF3976
:101300002E3901D1FFF7D4FF10212046FFF76AF8EC
:101310000028DDD120212046FFF700F800201CBD69
:101320000000002004000020FFB583B016461C46D4
:10133000002002900027002501903046F117090F88
:10134000091809110901711A89B201911021019836
:10135000081A85B22046E117090F09180903090C7C
:101360000291E117090F091809110901611A8FB2D9
:101370000198002835D1029800280BD155480780E4
:10138000034632460499039800F0A8F80398FFF743
:1013900091FF9CE011E010204E4908800B46324638
:1013A0000499039800F09AF80398FFF783FF3046FA
:1013B000103086B20498103004900298411E89B211
:1013C00002910028E7D1002FE3D04248078003466E
:1013D00032460499039800F081F80398FFF76AFFFA
:1013E00075E00298002827D1AC4219DD3948058004
:1013F000034632460499039800F070F80398FFF70B
:1014000059FF601B33490880701982B20498411952
:10141000304B039800F062F80398FFF74BFF56E05B
:101420002C480780034632460499039800F056F88A
:101430000398FFF73FFF4AE0601B84B22046E117A4
:10144000090F091809110291E117090F091809116B
:101450000901611A8FB2002D0FD01E480580034686
:1014600032460499039800F039F80398FFF722FFF9
:10147000701986B204984019049015E0102015499F
:1014800008800B4632460499039800F027F805209F
:101490004003114908600398FFF70CFF30461030F5
:1014A00086B20498103004900298411E89B20291CD
:1014B0000028E3D1002F0AD00648078003463246B1
:1014C0000499039800F00AF80398FFF7F3FE07B0B9
:1014D000F0BD00000800002004000020FFB581B02E
:1014E0000D4617461E46002401204003C302012278
:1014F00000903B4801880198FEF7BEFF052040039D
:101500003849086008E037490868411E354A1160CB
:10151000002801D1FFF7CCFE02210198FEF762FFFF
:101520000028F0D0F9B20198FEF7A4FF052040038F
:101530002C49086008E02B490868411E294A1160BF
:10154000002801D1FFF7B4FE80210198FEF74AFF81
:101550000028F0D000200090327801235B0620485C
:1015600001880198FEF788FF1CE0052040031D4913
:10157000086008E01B490868411E1A4A11600028EB
:1015800001D1FFF795FE02210198FEF72BFF0028FD
:10159000F0D0295D0198FEF76DFF295D12A0FFF7DD
:1015A000B7FA641C3078A042DFD1052040030D4912
:1015B000086008E00B490868411E0A4A11600028CB
:1015C00001D1FFF775FE20210198FEF70BFF0028DF
:1015D000F0D020210198FEF7A1FE002005B0F0BD5B
:1015E00000000020040000207472616E736D697445
:1015F00074656420646174613A20307825780D0A3E
:101600000000000024160008000000202800000050
:10161000300B00084C1600082800002000080000CD
:10162000400B00080000000000A0000000000000C7
:1016300000000000000000000000000001020304A0
:0C16400001020304060708090000000076
:04000005080000C12E
:00000001FF
