:020000040800F2
:10000000A8070020951D0008C9030008CB030008BD
:1000100000000000000000000000000000000000E0
:10002000000000000000000000000000CF030008F6
:100030000000000000000000D1030008FD030008DC
:10004000A71D0008A71D0008A71D0008A71D000880
:10005000A71D0008A71D0008A71D0008A71D000870
:10006000A71D0008A71D0008A71D0008A71D000860
:10007000A71D0008A71D0008A71D0008A71D000850
:10008000A71D0008A71D000800000000A71D00080C
:10009000A71D0008A71D0008A71D0008A71D000830
:1000A000A71D0008A71D0008A71D0008D30300080E
:1000B000A71D000800000000A71D000800000000A8
:1000C00000F002F800F048F80CA030C808382418F6
:1000D0002D18A246671EAB4654465D46AC4201D180
:1000E00000F03AF87E460F3E0FCCB646012633426A
:1000F00000D0FB1AA246AB46334318479C270000AA
:10010000BC270000103A02D378C878C1FAD8520749
:1001100001D330C830C101D504680C6070470000BD
:100120000023002400250026103A01D378C1FBD813
:10013000520700D330C100D50B6070471FB5C046D1
:10014000C0460098019902F066F901F02DFF1FBD2D
:1001500010B501F095FF10BD01F0F7FF1146FFF754
:10016000EDFF00F08FF802F007F903B4FFF7F0FF9E
:1001700003BC02F0E3FA00001CB50121480400F0C2
:10018000B7FC0220009001216846017100218171B5
:100190000221417169460920C00600F079F9012168
:1001A000480400F0A5FC042000900021684601717D
:1001B00081710221417169460920C00600F068F989
:1001C0000121480400F094FC0820009001216846B9
:1001D0000171002181710221417169460920C00627
:1001E00000F056F90121880400F082FC10200090F4
:1001F0000121684601710021817102214171694626
:100200000920C00600F044F90121880400F070FCC8
:100210002020009001216846017100218171022196
:10022000417169460920C00600F032F901218804B5
:1002300000F05EFCFF200130009001216846017152
:10024000002181710221417169461D4800F020F9A9
:100250001CBD10B5FF210131194800F096F919486D
:1002600000F0D6FF01F0C5F9FF210131144800F07C
:100270008AF9154800F0CCFFFF210131104800F049
:1002800084F910BD1CB511A103C90191009001F0C2
:10029000EDFC00F043F800F088F80EA001F096FDA8
:1002A00011A001F093FD00BFFEE71348006800288D
:1002B00004D011480068401E0F49086070470000D4
:1002C000000400481027000050C30000FFFFFFFF9C
:1002D000FFFF000020496E69742073797374656DA7
:1002E000204F4B20200A0000205072696E74662057
:1002F0004F4B20200A0000000000002070B504468B
:100300000D46E1B22E4800F035FE00BF40212C48DA
:1003100000F042FF0028F9D0204670BD00B589B03A
:100320000121480400F0E4FB0121880300F0EEFB0A
:10033000E120400203900020049005900690089070
:100340000C20079001220921C80600F028F901229B
:100350000A210920C00600F022F901204002019084
:10036000022168460172032141720021817201213C
:10037000C17201A90920C00600F08AF8012080029C
:10038000019001A90920C00600F082F803A90C48D9
:1003900000F0A2FC01220B49094800F0C9FE01212E
:1003A000074800F030FD09B000BD08B51B216846C4
:1003B0000170002141700121817000F017FC08BD1F
:1003C0000038014005010500704700BFFEE7704797
:1003D000704710B50B490C4800F0E9FE00280CD01E
:1003E000094800F0CBFD4406640E2146064800F0A3
:1003F000C1FD0449044800F001FF10BD10B5FFF72E
:1004000054FF10BD050105000038014010B5044639
:100410000920C006844209D10121480400F092FB62
:1004200000210120400400F08DFB30E06D48844243
:1004300008D10121000200F085FB0021200200F01C
:1004400081FB24E06848844208D10121000200F0C9
:1004500079FB0021200200F075FB18E0634884421C
:1004600009D10121080500F06DFB002101200005E4
:1004700000F068FB0BE05E48844208D1012188054A
:1004800000F060FB00210120800500F05BFB10BD47
:10049000F0B50A4600210023002400BF3DE00125FD
:1004A0008D402B4615681D402C469C4234D1157951
:1004B000012D02D01579022D16D185684F00032633
:1004C000BE40B543856055794E00B54086683543DA
:1004D0008560858801268E40B5438580858896791C
:1004E0008E40B6B23543858005684F000326BE4076
:1004F000B543056015794E00B54006683543056083
:10050000C5684F000326BE40B543C560D5794E008F
:10051000B540C6683543C560491C1029BFD3F0BD3E
:100520003449016000210171022141710021817172
:10053000C171704708B5012212040092009A0A4363
:100540000092009AC261C161009AC261C2690092C0
:10055000C269009208BD02460020138A0B4201D0F6
:10056000012000E0002070470146088A70470246DB
:100570000020938A0B4201D0012000E00020704748
:100580000146888A70478161704701857047002A5B
:1005900001D0816100E00185704781827047F0B52C
:1005A000002300244D07EE0E1546B5402B46CD1016
:1005B000AE0005462035AD594E07F70E0F26BE405A
:1005C000B543CE10B60007462037BD51CD10AE0062
:1005D0003D46AD591D432C46CD10AD003E467451ED
:1005E000F0BD00000004004800080048000C00486E
:1005F00000140048FFFF0000FD4800680121084387
:10060000FB49086008464068FA490840F8494860D4
:1006100008460068F8490840F5490860084600683F
:10062000012189048843F2490860084640683F2157
:1006300009048843EE4948600846C06A0009000181
:10064000C8620846006BFF2154318843E8490863BB
:100650000846406B400840004863002088607047AF
:100660000021E34A917011468870704710B5024628
:100670000021002300205111002902D1DC4C236805
:100680000BE0012902D1DA4C236A06E0022902D1EB
:10069000D74C636A01E0D64C636BD106C90E0124C6
:1006A0008C401C4201D0012000E0002010BD38B574
:1006B000002000900024002500BF1120FFF7D6FF86
:1006C00005460098401C00900521090300988842C7
:1006D00001D0002DF1D01120FFF7C8FF002801D074
:1006E000012400E00024204638BD01460020C04A15
:1006F0001068F82302469A431046CA001043BC4AC9
:1007000010607047002806D0B949096801221143DA
:10071000B74A116005E0B649096849084900B44A7A
:100720001160704701460020B14A506BF823024621
:100730009A431046CA001043AD4A506370470028E0
:1007400006D0AB49496B01221143A94A516305E028
:10075000A749496B49084900A54A516370470028D9
:1007600006D0A349496B04229143A14A516305E095
:100770009F49496B042211439D4A516370479C492C
:10078000096A490849009A4A11621146096A042215
:100790009143974A11621146096A014311627047F9
:1007A0009349096A18229143914A11621146096AD4
:1007B000014311627047002806D08D49496A012221
:1007C00011438B4A516205E08949496A4908490049
:1007D000874A51627047864A52683D231B049A43F8
:1007E000834B5A601A46526803460B431A43804BA8
:1007F0005A607047002807D07D4909680122120617
:1008000011437B4A116006E079490968012212060A
:100810009143774A1160704701460020744AD06ABC
:100820000009000102460A431046714AD06270472F
:10083000002807D06E4909680122D20411436C4A8E
:10084000116006E06A4909680122D2049143684AAE
:10085000116070476649C871704701460020644ABC
:1008600050688008800002460A431046604A506083
:1008700070475F4840680C210840704701460020DF
:100880005B4A5068F02302469A43104602460A43E8
:100890001046574A5060704701460020544A50683D
:1008A00007231B0202469A43104602460A4310469B
:1008B0004F4A506070474E49496801229203914364
:1008C0004B4A51601146496882B21143484A51600F
:1008D0001146096B92159143454A11631146096B04
:1008E000020C1143424A116370474149096B40228F
:1008F00091433F4A11631146096B014311637047ED
:100900003B49096B10229143394A11631146096B27
:100910000143116370473649096B89088900344ADD
:1009200011631146096B014311637047FEB504461C
:100930000025002600200190009000272C484068E8
:100940000C2108400546002D04D0042D05D0082DAB
:1009500028D105E02948206027E02848206024E0CD
:10096000234840680F218904084006462048406813
:100970000121090408400190B00C861C0198002850
:1009800003D11F48704320600BE01948C06A00077C
:10099000000F401C00901948009901F025FA70439F
:1009A000206002E01548206000BF00BF104840688A
:1009B000F021084005462D091248475D2068F8409F
:1009C00060600B48406807210902084005462D0A6F
:1009D0000C48475D6068F840A0600548006BFF2147
:1009E00001310840884211D00748E0601CE0000057
:1009F000001002400CB8FFF8FFFFF6FE00127A006C
:100A000000093D0004000020809FD5007448406824
:100A1000012189030840884203D0A0684008E060B3
:100A200002E0A0688008E0606D48006B402108404B
:100A3000402802D06B48206102E00120C003206101
:100A40006748006B10210840102802D0664860619A
:100A500001E0206860616248006B8007800F02D16E
:100A6000A068A06119E05E48006B8007800F012834
:100A700002D12068A06110E05948006B8007800F08
:100A8000022802D18003A06107E05548006B80076F
:100A9000800F032801D15448A061FEBD5049096A66
:100AA00001434F4A11627047002807D04C49096A38
:100AB0000122D20311434A4A116206E04849096AF9
:100AC0000122D2039143464A11627047002807D0A1
:100AD0004349096A012212041143414A116206E0A6
:100AE0003F49096A0122120491433D4A116270474D
:100AF000002905D03A4A52690243394B5A6104E051
:100B0000374A52698243364B5A617047002905D0F3
:100B1000334A92690243324B9A6104E0304A926947
:100B200082432F4B9A617047002905D02C4AD26925
:100B300002432B4BDA6104E0294AD2698243284BF5
:100B4000DA617047002905D0254A926A0243244B96
:100B50009A6204E0224A926A8243214B9A62704769
:100B6000002905D01E4AD26802431D4BDA6004E01A
:100B70001B4AD26882431A4BDA607047002905D0BD
:100B8000174A12690243164B1A6104E0144A1269AB
:100B90008243134B1A617047002905D0104A527ADC
:100BA00002430F4B5A7204E00D4A527A82430C4BB7
:100BB0005A7270470A48406A0121090608430849E9
:100BC0004862704701460020054A92680A4201D0F7
:100BD000012000E000207047014988727047000042
:100BE000001002401280000000127A00002182787A
:100BF000002A27D0274A03231B02D21803789B1010
:100C00009B00D15802789207D30EFF229A400B46E0
:100C10009343194642789207120E03789B07DB0E26
:100C20009A4011431B4A03231B02D21803789B10DE
:100C30009B00D1500278D306DB0E01229A40154B5F
:100C40001A6007E00278D306DB0E01229A40114BAE
:100C500080331A607047002905D00F4A1269024399
:100C60000D4B1A6104E00C4A126982430A4B1A6167
:100C70007047042806D10949096904221143074A2B
:100C8000116105E00549096904229143034A116194
:100C90007047000000E100E000ED00E000E000E04F
:100CA00010B50446F648844209D101218803FFF7B4
:100CB00057FF002101208003FFF752FF0BE0F148AE
:100CC000844208D101214804FFF758FF0021012088
:100CD0004004FFF753FF10BDF0B589B005460E463E
:100CE00000240020089000BF00BF28684008400092
:100CF00028606C6803210903204688430446B068D5
:100D000004436C602C68E0480440F1687068084354
:100D10003169084304432C60AC6803210902204672
:100D20008843044670690443AC606846FFF7FEFDE3
:100D3000D348854202D10698089001E002980890B5
:100D400028680121C903084209D0326851001923DB
:100D5000089A5A43104601F047F8074608E03268FF
:100D600091001923089A5A43104601F03DF80746AE
:100D70006421384601F038F8040120096421484311
:100D8000381A079028680121C90308420AD0079938
:100D9000C90008463230642101F026F84007400FB0
:100DA000044309E00799090108463230642101F043
:100DB0001BF80007000F0443AC8109B0F0BD4B21C4
:100DC000C9010160002141608160C1600C210161A5
:100DD00000214161704710B5002242680F242402AF
:100DE0001346A3431A464C680B6823438C6823437D
:100DF000CC6823431A43426010BD0021016041606A
:100E00008160C1607047002904D0026801231A4341
:100E1000026003E002685208520002607047002A34
:100E200003D003680B43036002E003688B43036055
:100E30007047002905D002680123DB031A430260D2
:100E400004E002680123DB039A4302607047002933
:100E500005D082680123DB021A43826004E08268C5
:100E60000123DB029A4382607047002905D0426863
:100E70000123DB041A43426004E042680123DB04DF
:100E80009A4342607047002905D0426801239B04C1
:100E90001A43426004E0426801239B049A43426083
:100EA0007047002A03D043680B43436002E0436865
:100EB0008B4343607047002905D042680123DB0360
:100EC0001A43426004E042680123DB039A43426014
:100ED0007047002905D042680123DB051A434260B0
:100EE00004E042680123DB059A434260704742698F
:100EF000120E1206426142690A4342617047028A39
:100F0000FF231B021A400282028A0A4302827047B0
:100F1000002904D0026802231A43026003E0026839
:100F200002239A4302607047826803231B059A4399
:100F3000826082680A4382607047002905D0426857
:100F400001231B051A43426004E0426801231B058C
:100F50009A4342607047426803235B059A434260AC
:100F600042680A4342607047C1690122D20391433B
:100F7000C1617047CA05D20D028570470146888C51
:100F8000C005C00D704742681202120A42604268F2
:100F90000B061A4342607047002905D002680123FE
:100FA0005B031A43026004E0026801235B039A4377
:100FB0000260704702680123DB029A430260026804
:100FC0000A4302607047426810239A4342604268B5
:100FD0000A4342607047426820239A434260426855
:100FE0000A4342607047002905D0426801239B03F1
:100FF0001A43426004E0426801239B039A43426023
:101000007047002904D0826808231A43826003E0F5
:10101000826808239A4382607047028AD2B20282B1
:10102000028A0B021A4302827047002904D08268A8
:1010300020231A43826003E0826820239A4382605F
:101040007047002904D0826810231A43826003E0AD
:10105000826810239A4382607047826807235B048A
:101060009A43826082684B041A43826070474269E7
:101070001202120A426142690B061A43426170472A
:101080000038014000440040F3E9FFFF8268042378
:101090009A43826082680A4382607047002904D0C4
:1010A000826802231A43826003E0826802239A4323
:1010B00082607047002905D0826801239B031A4390
:1010C000826004E0826801239B039A438260704738
:1010D00082680123DB039A43826082680A4382604C
:1010E000704702681F235B059A43026002684B0544
:1010F0001A430260704702681F231B049A43026070
:1011000002680B041A4302607047002A03D0836808
:101110000B43836002E083688B438360704782687F
:1011200001235B039A43826082680A4382607047AE
:10113000F8B5034600240026009600250020184636
:101140000E04340ECEB200960127009EB7403D46F5
:10115000022C01D1001D02E0032C00D10830002A2E
:1011600003D006682E43066002E00668AE430660C0
:10117000F8BD002A03D0038B0B43038302E0038BEB
:101180008B4303837047826801231B039A43826069
:1011900082680A438260704702460020D3690B428E
:1011A00001D0012000E0002070470162704770B557
:1011B00002460B4600240021002500201E04350EA7
:1011C000D9B201268E403146012D02D11668314038
:1011D00006E0022D02D15668314001E096683140A8
:1011E0001C0C0126A6403446D6693440002903D0A1
:1011F000002C01D0012000E0002070BD10B50023BC
:1012000000220B0C01249C402246026210BD00000B
:10121000002106E0002201E0531CDAB2642AFBDB65
:10122000491C8142F6D37047F8B5044600250027D3
:1012300000BF00262BE0802020400746802F05D1EC
:1012400008210920C006FFF79EF904E008210920C3
:10125000C006FFF79AF96006040E6806050E042121
:101260000920C006FFF777F9012801D1681CC5B233
:1012700010210920C006FFF786F90120FFF7C8FFFB
:1012800010210920C006FFF780F9701CC6B2082E95
:10129000D1DB2846F8BD70B50446002526E00120C4
:1012A000FFF7B6FF802026460640802E05D1082194
:1012B0000920C006FFF767F904E008210920C006ED
:1012C000FFF763F90120FFF7A3FF10210920C006F3
:1012D000FFF759F96006040E0120FFF799FF10216E
:1012E0000920C006FFF751F9681CC5B2082DD6DBEE
:1012F00070BD70B504466006040E802004432021B2
:101300000920C006FFF741F92046FFF7C4FF00207F
:10131000FFF78AFF054620210920C006FFF733F9B1
:10132000284670BD70B504460D466006040E64067E
:10133000640E20210920C006FFF727F92046FFF799
:10134000AAFF2846FFF7A7FF20210920C006FFF7C4
:101350001AF970BD70B50920FFF7CBFF04460120D4
:10136000044321460920FFF7DDFF002508E00420A3
:10137000FFF7BFFF0446002C01D1012070BD6D1C9A
:101380007F2DF4D30020F9E770B505460E46002402
:1013900005E0315D0220FFF7C5FF601CC4B2AC421E
:1013A000F7DB70BD70B506460420FFF7A2FF0446C8
:1013B000002C00D170BD182C00DB1824002505E09E
:1013C0000220FFF796FF7055681CC5B2A542F7DBF7
:1013D0002046EFE701460A784B78002A03D0002B1D
:1013E00001D1012070470020FCE70022002104E029
:1013F000F748405C4240481CC1B20529F8DB002A8E
:1014000001D1012070470020FCE7F7B504460D46E6
:10141000002C0DD1002D0BD100BF05E0ED4B1B5C66
:10142000EB4E3354431CD8B2029B9842F6DB49E0A2
:10143000E84B1978631EE64EF25C2B0001F018FAB7
:101440000805090E13181D22272C0022631CDCB28C
:1014500023E0FE231940D207D20F1EE0FC231940DF
:101460009207920F19E0F82319405207520F14E027
:10147000F02319401207120F0FE0E0231940D206A3
:10148000D20E0AE0C02319409206920E05E0802396
:1014900019405206520E00E000BF00BFCD4B19703C
:1014A00013460B43661ECA4FBB55012007E0C94BCC
:1014B0001E5C631E1B18C64FFE54431CD8B2029B11
:1014C0009842F4DBFEBD70B504460D46230001F0E2
:1014D000CFF90504080C101418002020BD494870ED
:1014E00010E03020BB4948700CE04020B9494870FA
:1014F00008E05020B749487004E06020B5494870C2
:1015000000E000BF00BF2B0001F0B2F908050A158A
:10151000202B36414C5700210F20FFF703FF4DE0F1
:1015200011210F20FFF7FEFEAA4840780121084351
:10153000A849487042E022210F20FFF7F3FEA5489A
:10154000407802210843A349487037E033210F2037
:10155000FFF7E8FE9F484078032108439D49487003
:101560002CE044210F20FFF7DDFE9A48407804214B
:1015700008439849487021E055210F20FFF7D2FE1B
:1015800094484078052108439249487016E0662146
:101590000F20FFF7C7FE8F484078062108438D498A
:1015A00048700BE077210F20FFF7BCFE8948407898
:1015B000072108438749487000E000BF00BF70BDA5
:1015C00070B580210020FFF7ADFE00250DE0012061
:1015D000FFF78FFE0446002C05D100210846FFF7D7
:1015E000A1FE012070BD681CC5B27F2DEFDB00207D
:1015F000F8E710B502210920C006FEF7C4FF002459
:1016000000E0641C74488442FBD302210920C00618
:10161000FEF7BBFF002400E0641C6F488442FBD34C
:1016200010210920C006FEF7B0FFFFF7C9FF10BD6B
:10163000F7B50546164600210120FFF773FEFFF7B8
:1016400089FE002D03D028460199FFF79DFE042056
:10165000FFF74FFE074631460120FFF763FE0024E7
:1016600008E00120FFF745FE0746002F01D10120C9
:10167000FEBD641C7F2CF4D30020F9E770B5024650
:101680000B4600210024002500BF12E0505C040737
:10169000240F505C0511E04300012043C6B248000E
:1016A000401C1E54E843000128434E009855481C36
:1016B000C1B20629EADB002070BD7FB50446694649
:1016C0002046FFF7DBFF192269460C20FFF7B0FF29
:1016D00005460A20FFF70DFE402108400546402D33
:1016E00002D1002004B070BD0120FBE770B50446B4
:1016F00058211120FFF716FE0120FFF789FD5B211D
:101700001120FFF70FFE63212320FFF70BFE3F217F
:101710001220FFF707FE2F48047007210F20FFF764
:1017200001FE03212220FFF7FDFD5B211120FFF7C1
:10173000F9FD01210920FFF7F5FD1E2225490120B1
:10174000FFF776FF0546002D01D1012070BD21482D
:10175000FFF728FE1F48FFF73DFE0546012D08D183
:101760001C4800781D4908701A48407848700020CD
:10177000ECE71520EAE7F8B50027002000900025E7
:1017800063212320FFF7CEFD3F211220FFF7CAFD82
:101790003F211320FFF7C6FD93200E49087020203B
:1017A000487003212220FFF7BDFD1E2209490220B7
:1017B000FFF73EFF044661E0002C01D10120F8BD97
:1017C0000420FFF796FD0446002C09D10C20F6E713
:1017D0001700002040000020FF3F000015000020FF
:1017E000E948FFF7DFFD224638460099FFF70DFE76
:1017F0000A20FFF77EFD0446E407E40F002C08D121
:10180000FFF7F3FD0446002C01D10820D7E70020A4
:10181000D5E70B20FFF76DFD04462046E117490F81
:101820000918CF10E117490F0918C910C900611A2A
:10183000C9B200919320D44908707919C8B20099AF
:10184000FFF741FEE819C5B2002606E0CF48815DEA
:10185000CD4AB01C1154701CC6B2681C8642F5DB20
:101860000098002802D0681CC7B200E02F46B91CBF
:10187000C8B21E22C449FFF7DBFE04469CE770B5E0
:1018800063212320FFF74EFD3F211220FFF74AFD81
:101890009320BD49087070204870002506E0BB48C1
:1018A000415DB94AA81C1154681CC5B2052DF6DB70
:1018B0000F212220FFF736FD1E22B3490720FFF734
:1018C000B7FE0446002C01D1012070BD0A20FFF7AD
:1018D00010FD044602202040022801D10520F4E733
:1018E00004202040042801D11420EEE708202040E5
:1018F000082801D10220E8E70420FFF7FAFC04469B
:10190000012C01D00C20E0E79F48FFF74BFD9E48DB
:101910000478082C05D0882C03D0532C01D0182C27
:1019200001D10020D1E71620CFE7F7B507466321A4
:101930002320FFF7F7FC3F211220FFF7F3FC3F21A4
:101940001320FFF7EFFC0920FFF7D3FC0646F72032
:10195000064031460920FFF7E5FC0298612802D1D4
:101960008949087002E0602087490870019880006A
:10197000C01C85494870002505E0795DA81C824A95
:101980001154681CC5B2042DF7DB0F212220FFF78C
:10199000C9FC0C227C490620FFF74AFE0446002CB5
:1019A00001D10120FEBD0A20FFF7A3FC044602205E
:1019B0002040022801D10520F4E70420204004281B
:1019C00001D11420EEE708202040082801D1022090
:1019D000E8E714226C490020FFF72AFE0446002C99
:1019E00001D10120DEE70A20FFF783FC0446022034
:1019F0002040022801D10520D4E7042020400428FB
:101A000001D11420CEE708202040082801D102206F
:101A1000C8E70920FFF76DFC064608200640082E9F
:101A200001D10020BEE70420BCE770B505460E4694
:101A300063212320FFF776FC3F211220FFF772FC81
:101A40003F211320FFF76EFC0F212220FFF76AFCD5
:101A5000302028706E701E2229460220FFF7E8FD14
:101A60000446002C01D1012070BD0A20FFF741FC83
:101A7000044602202040022801D10520F4E704207A
:101A80002040042801D11420EEE708202040082837
:101A900001D10220E8E70420FFF72BFC0446102CBC
:101AA00004D12846FFF77EFC0020DDE7042C04D19A
:101AB0002846FFF777FC0020D6E70C20D4E7F8B5DE
:101AC00005460E4663212320FFF72CFC3F21122000
:101AD000FFF728FC07212220FFF724FCA0216846FD
:101AE000017046701E2269460220FFF7A1FD0446E0
:101AF000002C01D10120F8BD0420FFF7FAFB0446B9
:101B0000002C01D10C20F6E76846FFF74BFC684635
:101B10000478042C0CD004DC002C07D0012C0ED14E
:101B200009E0052C09D00A2C09D103E00A20E2E7DC
:101B30000320E0E705E00220DDE70520DBE70F20DA
:101B4000D9E700BF1E2229461020FFF771FD044689
:101B5000012C01D10020CEE70A20FFF7CAFB044682
:101B600002202040022801D10520C4E704202040A3
:101B7000042801D11420BEE708202040082801D104
:101B80000220B8E70F20B6E7400000201700002031
:101B90000CB50020019000907648006801210904EE
:101BA00008437449086000BF724800680121490475
:101BB000084000900198401C01900098002804D132
:101BC0000521090301988842EED16A480068012185
:101BD0004904084202D00120009001E0002000905A
:101BE0000098012841D164480068102108436249E7
:101BF000086008460068012108435F4908605D48A5
:101C000040685C494860084640684860084640684B
:101C10003F2109048843574948600846406811211C
:101C20000904084353494860084600680121090631
:101C300008435049086000BF4E480068012149062A
:101C40000842F9D04B484068800880004949486004
:101C500008464068022108434649486000BF45489D
:101C600040680C2108400828F9D10CBD10B5414846
:101C70000068012108433F490860084640683F4921
:101C800008403C494860084600683D4908403949D9
:101C900008600846006801218904884335490860C6
:101CA000084640683F210904884332494860084695
:101CB000C06A00090001C8620846006BFF21543168
:101CC00088432C4908630846406B4008400048633D
:101CD00000208860FFF75CFF10BDF8B500250024E8
:101CE00000260027234840680C2108400546002DA7
:101CF00004D0042D06D0082D2AD107E0214822491E
:101D0000086029E01F482049086025E0194840681C
:101D10000F2189040840044616484068012109043F
:101D200008400646A00C841C002E04D117486043CE
:101D3000154908600BE00F48C06A0007000F471CF8
:101D40003946104800F050F860430F49086003E03E
:101D50000C480D49086000BF00BF06484068F021EC
:101D6000084000090A490D5C07480068E840064938
:101D70000860F8BD00100240002002400CB8FFF8D7
:101D8000FFFFF6FE00127A002000002000093D004F
:101D9000240000200748804707480047FEE7FEE789
:101DA000FEE7FEE7FEE7FEE704480549054A064B65
:101DB000704700006D1C0008C1000008A801002049
:101DC000A8070020A8030020A80300200FB405499D
:101DD00010B503AA029800F0B7F810BC08BC04B014
:101DE00018470000A0000020002203098B422CD3DA
:101DF000030A8B4211D300239C464EE003460B435B
:101E00003CD4002243088B4231D303098B421CD3BC
:101E1000030A8B4201D394463FE0C3098B4201D3AE
:101E2000CB01C01A524183098B4201D38B01C01AE6
:101E3000524143098B4201D34B01C01A524103095D
:101E40008B4201D30B01C01A5241C3088B4201D30C
:101E5000CB00C01A524183088B4201D38B00C01AB9
:101E6000524143088B4201D34B00C01A5241411AE0
:101E700000D201465241104670475DE0CA0F00D0C3
:101E80004942031000D34042534000229C460309BC
:101E90008B422DD3030A8B4212D3FC22890112BA42
:101EA000030A8B420CD3890192118B4208D389011A
:101EB00092118B4204D389013AD0921100E0890932
:101EC000C3098B4201D3CB01C01A524183098B4213
:101ED00001D38B01C01A524143098B4201D34B01FC
:101EE000C01A524103098B4201D30B01C01A52415F
:101EF000C3088B4201D3CB00C01A524183088B42E6
:101F000001D38B00C01A5241D9D243088B4201D36E
:101F10004B00C01A5241411A00D201466346524159
:101F20005B10104601D34042002B00D54942704758
:101F300063465B1000D3404201B50020C046C04656
:101F400002BD704770477047084B70B50D467B4423
:101F500000F013F80446284600F022F8002802D0CA
:101F60000020C04370BD204670BD0000ABE3FFFF02
:101F700001694A1C02610878704700B58FB0029170
:101F8000002105910549019379440391114604907C
:101F9000684600F01FF90FB000BD0000E5FFFFFF2D
:101FA000C06880210840704710B54348542100F0B4
:101FB0000DFA4248542100F009FA4148542100F03A
:101FC00005FA40483C493D4B404A01603E480360A9
:101FD0003B4810605A1C0A65411C196501210165C6
:101FE0003C48354A3AA1784400F02CF9002804D145
:101FF000384878440C3800F0C5F938482F4A36A1E3
:10200000784400F01FF9002804D1344878440C3893
:1020100000F0B8F932482A4A2FA1784400F012F9AA
:10202000002804D12E4878440C3800F0ABF9402346
:102030002148DC000021224600F0DEF8002804D010
:10204000244878445C3800F09DF91C48224640231F
:10205000002100F0D1F8002804D0204878445C38F2
:1020600000F090F9164822461023002100F0C4F831
:10207000002804D01A4878445C3800F083F910BD79
:102080000F4870B5006D44080B48640000F04EF92D
:102090000A4800F04BF90A4800F048F909E0206DC1
:1020A000450820466D0000F041F9204600F06CF82C
:1020B0002C46002CF3D170BD4C000020A000002065
:1020C000F400002034000020380000203C000020F4
:1020D00072000000A2080000770000008C080000D9
:1020E000760800000EB50191009000F005FB02900B
:1020F00069460120ABBE0EBD08B5694600900220BE
:10210000ABBE08BD1FB56C4607C469460520ABBE13
:1021100004B010BD1FB56C460FC469460620ABBEA7
:10212000F6E708B5694600900920ABBE08BD1CB5AE
:1021300000900A2001916946ABBE1CBD704708B5EE
:10214000694600900C20ABBE08BD754600F040F912
:10215000AE46050069465346C008C000854618B023
:1021600020B5FFF721FE60BC00274908B6460026CF
:10217000C0C5C0C5C0C5C0C5C0C5C0C5C0C5C0C537
:10218000403D49008D46704770B50446051F00F07C
:1021900025F90068002C1AD0446801E020466468E4
:1021A000002C01D0AC42F9D301680A18AA4204D12C
:1021B0002A6805468918016000E0456028684119D1
:1021C000A14205D16168696021684018286070BD2E
:1021D0006C6070BDF8B506460024476880680090C2
:1021E000F56802E00099B847641C3046A84700280B
:1021F000F8D12046F8BD000070B5C468A50713D01B
:10220000650211D4D51FF93D0AD0FF3D013D07D02D
:10221000FF3DFF3D023D07D101462431012305E08A
:10222000074E5D1EB54201D3012070BD0161C3613F
:1022300041600F2109028C431443C460002070BD2B
:10224000FFFFFF00F7B516460C46104600F06EF88B
:102250002078611C61280AD0722802D0772839D1F1
:1022600002E00125002404E00225042401E02D4DB4
:1022700008240222032301270878491C2B2806D0B2
:10228000622807D02039C87F742807D008E01D4392
:102290001443F1E7042005433C43EDE710200443D9
:1022A00000982146FFF71EFF411C13D00021316129
:1022B00071600121F5604902F1617061200704D568
:1022C00030460222002100F005F9306D38433065B8
:1022D0003046FEBD0020FEBDF8B50D460646124C48
:1022E000206DC10704D0410804D044086400F7E71A
:1022F000224610E0542000F0BBF8070010D0790807
:10230000206D4900012211430843542120653846BD
:1023100000F05CF83A4629463046FFF793FFF8BDD7
:102320000020F8BD028000004C000020FEB50446ED
:10233000466900690F4F0190E56800200090A807EA
:1023400007D0204600F070F93046FFF7D5FE002890
:1023500001DA3846FEBD280502D50198FFF714FFC3
:102360004C21204600F032F8206D400840002065E6
:102370000098FEBDFFFFFFFF0446C046C046204652
:10238000FDF7F3FE10B500F09DF900F095F910BDD2
:1023900001E004C0091F0429FBD28B0701D502808C
:1023A000801CC90700D00270704700290BD0C307FA
:1023B00002D00270401C491E022904D3830702D5B3
:1023C0000280801C891EE3E70022EEE70022DFE79F
:1023D00000487047480100207047000000487047DF
:1023E00050010020704770477047704738B5044669
:1023F0000A4600206946C046C046002805D002466D
:102400002046009900F0A7F9012038BD10B5012041
:1024100000F0F6F910BDF8B5C046C04605460020EC
:102420000C461020C0460646A819A0420DD93246D7
:1024300069460020C046C046070001D100F0E0F91F
:102440000098A04200D00546C419FFF7C7FFF61D4B
:1024500007460560F008C0004619284600F074F9E8
:10246000B44204D031463868A21B00F074F9F8BDBC
:1024700070B50646FFF7B2FF056830460B30C4085A
:10248000E400B44201D8002070BD68682A460028E4
:1024900018D00168A14211D30B46214608318B4266
:1024A00008D3436801194B6003681B1B0B60516024
:1024B000046001E041685160001D70BD0246406843
:1024C0000028E6D121462846FFF790FF0028DCD1FE
:1024D00070BD0000F8B5044616460D464769007BFE
:1024E000800730D03846FFF71CFE00282BD132463B
:1024F0001026002A25D0012A02D0022A23D104E086
:10250000204600F042F945191BE03846FFF717FE58
:10251000E16831430028E16004DA204600F054F815
:102520000120F8BDC9030BD56268E16A914200D869
:102530001146A26989182269891A814200DD08467C
:102540002D18002D01DA0220F8BDE16A6068E2680A
:10255000814206D29103E06203D5012149048A43F6
:102560003243A669AE4211DCE16A814201D90B46D1
:1025700000E003469F192369FF1AAF4206DD81423E
:1025800001D90F4600E007469F4206D120200243B2
:102590000020A060A56220600DE0AD1BE669AE1BC7
:1025A0008142A66000D90846C01A281A206058192E
:1025B000606020208243034802400020E2604034F3
:1025C0002072F8BDBFCFD7FFC168802211439203AC
:1025D0009143C1600021816001607047F7B51446E6
:1025E0000E463348D5685769054209D03846A16977
:1025F000FFF79DFD002811DB2D48C0430540E56035
:102600002B46324638460099FFF77CFD4200A1690F
:102610005208B21A89180028A16104D02046FFF799
:10262000D3FF0020C043FEBD70B504460569C06AF3
:102630006168884200D80846E1680522D2049143C7
:10264000E160C90314D5A84209D02246411B28469F
:10265000FFF7C4FF002802D00020C04370BDE56230
:1026600000206560A060E068012109048843E06003
:10267000002070BD10B50446C06820218843E0608A
:10268000A16AA06988420ED02046FFF7CDFFE0681E
:1026900003210903884310210843E060A06AA06178
:1026A0002069E06260600349E0680840E06010BDB6
:1026B00010000200BFBFFFFF10B5002801D000F0DE
:1026C0003DF810BD10B5014602A000F07FF80120D2
:1026D00010BD000053494752545245443A205265B8
:1026E0006469726563743A2063616E2774206F7049
:1026F000656E3A200000000030B5441C03E001780C
:10270000401C00290DD08107F9D10B4BDD0104C815
:10271000D11A91432940FAD0001B0A0603D0C01EEB
:1027200030BD001B30BD0A0401D0801E30BD09023F
:10273000FCD0401E30BD00000101010101491820FC
:10274000ABBEFEE726000200002101604160806010
:1027500070471020704710B50346406801E00346FB
:102760004068002801D08842F9D31868C3188B420A
:1027700006D0CB1CD808C000001D411A521A0146D1
:10278000081D0A60FFF700FD10BD10B50146C268C4
:10279000900703D0900607D5886A0AE000F03CF85D
:1027A00001210160881E10BD8B694868C0180B6943
:1027B000C01A40310B7A002B02D0497A401A10BD62
:1027C0001103FCD50028FADD401E10BD70B505468A
:1027D0000C460A2000E06D1C00F018F8002D06D011
:1027E00028780028F7D102E0641C00F00FF8002CD4
:1027F00002D020780028F7D10A2000F007F870BD39
:1028000010B500F00DF8FFF757FF10BD08B5694689
:1028100008700320ABBE08BD004870474801002087
:1028200010B5012805D0002103A0FFF7CFFF01203C
:1028300010BD09A1F8E7000053494752544D454DDA
:102840003A204F7574206F662068656170206D6551
:102850006D6F7279000000003A2048656170206D4C
:10286000656D6F727920636F727275707465640044
:1028700030B47446641E2578641CAB4204D3635D97
:102880005B00E31830BC18471D46F8E73A74740043
:102890003A7474003A747400B828000800000020EC
:1028A0004000000004010008F82800084000002053
:1028B0006807000020010008000000000000000080
:1028C00001020304010203040607080900000000D6
:1028D0000000000000000000006CDC0200000000AE
:1028E00000000000010203040607080900000000C0
:0828F0000000000000000000E0
:04000005080000C12E
:00000001FF
