:020000040800F2
:10000000481000204D010008550100085701000864
:1000100000000000000000000000000000000000E0
:10002000000000000000000000000000590100086E
:1000300000000000000000005B0100085D010008F6
:100040005F0100085F0100085F0100085F01000810
:100050005F0100085F0100085F0100085F01000800
:100060005F0100085F0100085F0100085F010008F0
:100070005F0100085F0100085F0100085F010008E0
:100080005F0100085F010008000000005F01000838
:100090005F0100085F0100085F0100085F010008C0
:1000A0005F0100085F0100085F0100085F010008B0
:1000B0005F010008000000005F0100080000000070
:1000C00000F002F800F032F80CA030C8083824180C
:1000D0002D18A246671EAB4654465D46AC4201D180
:1000E00000F024F87E460F3E0FCCB6460126334280
:1000F00000D0FB1AA246AB4633431847281B00002A
:10010000481B00000023002400250026103A01D3DC
:1001100078C1FBD8520700D330C100D50B607047BF
:100120001FB5C046C0461FBD10B510BD01F00EF989
:100130001146FFF7F5FF00F027F901F026F903B4A7
:10014000FFF7F2FF03BC01F02BF9000007488047DE
:1001500007480047FEE7FEE7FEE7FEE7FEE7FEE7AB
:1001600004480549054A064B704700006102000833
:10017000C1000008480A002048100020480C002058
:10018000480C00200CB500200190009076480068D3
:100190000121090408437449086000BF72480068DF
:1001A00001214904084000900198401C01900098EA
:1001B000002804D10521090201988842EED16A483D
:1001C000006801214904084202D00120009001E0AA
:1001D000002000900098012841D164480068102157
:1001E00008436249086008460068012108435F49E6
:1001F00008605D4840685C4948600846406848605F
:10020000084640683F21090488435749486008462A
:1002100040681121090408435349486008460068B2
:100220000121090608435049086000BF4E48006894
:10023000012149060842F9D04B48406880088000F7
:1002400049494860084640680221084346494860D9
:1002500000BF454840680C2108400828F9D10CBD72
:1002600010B541480068012108433F49086008462D
:1002700040683F4908403C494860084600683D499D
:10028000084039490860084600680121890488430C
:1002900035490860084640683F21090488433249CF
:1002A00048600846C06A00090001C8620846006B41
:1002B000FF21543188432C4908630846406B4008AD
:1002C0004000486300208860FFF75CFF10BDF8B570
:1002D0000025002400260027234840680C21084000
:1002E0000546002D04D0042D06D0082D2AD107E0A4
:1002F00021482249086029E01F482049086025E07C
:10030000194840680F21890408400446164840688F
:100310000121090408400646A00C841C002E04D1CB
:1003200017486043154908600BE00F48C06A000792
:10033000000F471C3946104800F058FF60430F4932
:10034000086003E00C480D49086000BF00BF064884
:100350004068F021084000090A490D5C0748006820
:10036000E84006490860F8BD001002400020024045
:100370000CB8FFF8FFFFF6FE00127A000000002024
:1003800000093D000400002008B500F0E3FA00F089
:100390001DFA00F0F2F8202467E000F0EEF80022E9
:1003A0001146104600F0AAF901220021122000F0A7
:1003B000A5F902220021242000F0A0F90322002147
:1003C000362000F09BF904220021482000F096F925
:1003D000052200215A2000F091F9062200216C200C
:1003E00000F08CF921A20321002000F06EF923A275
:1003F0000621002000F069F922A206213F2000F02A
:1004000064F922460621302000F0D7F8601CC4B2FF
:100410007E2C00DD2024102003232246062100909C
:10042000672000F00EF97D20800100F0C4FA00F092
:10043000A4F87D20800100F0BEFA14480823802231
:1004400000210090084600F087F97D20800100F02F
:10045000B2FA0F480823802200210090084600F0DD
:100460007BF97D20800100F0A6FA96E7312E332734
:10047000204F4C45442054455354000041534349B8
:10048000493A0000434F44453A0000001400002060
:100490001404002070B504460E46002E04D002213C
:1004A000FE4800F070FB03E00221FC4800F06DFB09
:1004B00010210920C00600F068FB00251BE0202168
:1004C0000920C00600F061FB8020044205D0802195
:1004D0000920C00600F057FB04E080210920C00677
:1004E00000F053FB20210920C00600F04CFB600601
:1004F000040E681CC5B2082DE1DB10210920C006DE
:1005000000F041FB0221E54800F03DFB70BD70B5F5
:1005100004460D462946B031C8B20021FFF7BAFFA4
:10052000F02121400911084610300021FFF7B2FFE9
:100530002107090F0122114308460021FFF7AAFFF6
:1005400070BD10B500218D20FFF7A4FF00211420FD
:10055000FFF7A0FF0021AF20FFF79CFF10BD10B5F3
:1005600000218D20FFF796FF00211020FFF792FF5A
:100570000021AE20FFF78EFF10BD70B5002419E0FA
:100580002146B031C8B20021FFF784FF00210846A0
:10059000FFF780FF00211020FFF77CFF002505E01A
:1005A00001210020FFF776FF681CC5B2802DF7DB24
:1005B000601CC4B2082CE3DB70BDF8B506460D46DE
:1005C000174600200090002438462038C0B2009022
:1005D0007F2E02DD0026A81CC5B229463046FFF753
:1005E00096FF002409E0009909010919AC4A505C02
:1005F0000121FFF74FFF601CC4B2082CF3DB681C1D
:10060000C1B23046FFF783FF00240AE000990901D8
:1006100009190831A24A505C0121FFF73BFF601C19
:10062000C4B2082CF2DBF8BD10B50246012002E08E
:100630000346534318460B464C1EE1B2002BF7D13C
:1006400010BDFFB583B01E460C9C00200290002513
:1006500037E0701B401EC1B20A20FFF7E5FF0146DC
:100660000090059800F0C2FD0A21019000F0BEFD47
:100670000F460298002813D1701EA84210DD002FEB
:100680000CD1E10F0919491069430194039A8918A3
:10069000C8B220220499FFF790FF10E001200290D9
:1006A000E10F0919491069430194039BC918C8B2A5
:1006B00039463031CAB20499FFF77FFF00BF681C8A
:1006C000C5B2B542C5DB07B0F0BDF8B504460F466C
:1006D000154600260EE0AA5D39462046FFF76DFF5D
:1006E00020460830C4B2782C02DD0024B81CC7B202
:1006F000701CC6B2A85D0028EDD1F8BDF7B50E4656
:100700001546002731460098FFF701FF00240AE054
:10071000A901644A8918085D0121FFF7BBFE781C16
:10072000C7B2601CC4B2102CF2DB701CC1B20098BE
:10073000FFF7EDFE00240CE06900491C4901594A0D
:100740008918085D0121FFF7A5FE781CC7B2601C5F
:10075000C4B2102CF0DBFEBDFFB583B006460F46D9
:100760001C46002002902046E117490F0918C910C5
:10077000C900611A05D1E117490F091849050D0E85
:1007800006E02046E117490F0918C910491CCDB2EF
:100790003D4617E029463046FFF7B9FE01960BE0CB
:1007A00002994A1C02920C9A505C0121FFF772FEDA
:1007B0000198401CC0B20190059901988842EFDB76
:1007C000681CC5B2A542E5DB07B0F0BD1CB5012130
:1007D000480400F08DFCB0200090012168460171B2
:1007E000002181710321417169460920C00600F092
:1007F0004FF9B0210920C00600F0C5F90121880495
:1008000000F076FCFF200430009001216846017161
:1008100000218171032141716946204800F038F9B7
:10082000FF2104311D4800F0AEF901211B4800F002
:10083000AAF9642000F0BFF80121184800F0A5F9DA
:10084000C82000F0B8F80121144800F09CF90021FC
:10085000AE20FFF71FFE00210846FFF71BFE002118
:100860001020FFF717FE00214020FFF713FE0021A4
:100870008120FFF70FFE0021CF20FFF70BFE0021A4
:10088000A120FFF707FE0021C820FFF703FE00218B
:10089000A620FFF7FFFD0021A82005E00004004886
:1008A0003416000814080020FFF7F4FD00213F2053
:1008B000FFF7F0FD0021D320FFF7ECFD00210846F3
:1008C000FFF7E8FD0021D520FFF7E4FD002180209F
:1008D000FFF7E0FD0021D920FFF7DCFD0021F1202A
:1008E000FFF7D8FD0021DA20FFF7D4FD0021122008
:1008F000FFF7D0FD0021DB20FFF7CCFD00214020D9
:10090000FFF7C8FD00212020FFF7C4FD00210220D1
:10091000FFF7C0FD00218D20FFF7BCFD0021142052
:10092000FFF7B8FD0021A420FFF7B4FD0021A620A9
:10093000FFF7B0FD0021AF20FFF7ACFD0021AF2095
:10094000FFF7A8FDFFF719FE00210846FFF7DFFDBE
:100950001CBD000010B528492848006800F046FC7E
:1009600027490870084600787D21C9004843254979
:10097000088010BD0146224A12784A43224B5A6130
:1009800000229A611A46126901231A431E4B1A610A
:1009900000BF1D4A1069C207D20F03D00122120402
:1009A0001042F6D0184A126952085200164B1A61CA
:1009B00000229A6170470146124A12884A43124B3C
:1009C0005A6100229A611A46126901231A430E4B9A
:1009D0001A6100BF0C4A1069C207D20F03D001226E
:1009E00012041042F6D0084A126952085200064B0F
:1009F0001A6100229A61704700127A0000000020FC
:100A0000D4090020D609002000E000E010B504461B
:100A10000920C006844209D10121480400F092FB5C
:100A200000210120400400F08DFB30E06D4884423D
:100A300008D10121000200F085FB0021200200F016
:100A400081FB24E06848844208D10121000200F0C3
:100A500079FB0021200200F075FB18E06348844216
:100A600009D10121080500F06DFB002101200005DE
:100A700000F068FB0BE05E48844208D10121880544
:100A800000F060FB00210120800500F05BFB10BD41
:100A9000F0B50A4600210023002400BF3DE00125F7
:100AA0008D402B4615681D402C469C4234D115794B
:100AB000012D02D01579022D16D185684F0003262D
:100AC000BE40B543856055794E00B54086683543D4
:100AD0008560858801268E40B54385808588967916
:100AE0008E40B6B23543858005684F000326BE4070
:100AF000B543056015794E00B5400668354305607D
:100B0000C5684F000326BE40B543C560D5794E0089
:100B1000B540C6683543C560491C1029BFD3F0BD38
:100B2000344901600021017102214171002181716C
:100B3000C171704708B5012212040092009A0A435D
:100B40000092009AC261C161009AC261C2690092BA
:100B5000C269009208BD02460020138A0B4201D0F0
:100B6000012000E0002070470146088A70470246D5
:100B70000020938A0B4201D0012000E00020704742
:100B80000146888A70478161704701857047002A55
:100B900001D0816100E00185704781827047F0B526
:100BA000002300244D07EE0E1546B5402B46CD1010
:100BB000AE0005462035AD594E07F70E0F26BE4054
:100BC000B543CE10B60007462037BD51CD10AE005C
:100BD0003D46AD591D432C46CD10AD003E467451E7
:100BE000F0BD00000004004800080048000C004868
:100BF00000140048FFFF0000FD4800680121084381
:100C0000FB49086008464068FA490840F8494860CE
:100C100008460068F8490840F54908600846006839
:100C2000012189048843F2490860084640683F2151
:100C300009048843EE4948600846C06A000900017B
:100C4000C8620846006BFF2154318843E8490863B5
:100C50000846406B400840004863002088607047A9
:100C60000021E34A917011468870704710B5024622
:100C70000021002300205111002902D1DC4C2368FF
:100C80000BE0012902D1DA4C236A06E0022902D1E5
:100C9000D74C636A01E0D64C636BD106C90E0124C0
:100CA0008C401C4201D0012000E0002010BD38B56E
:100CB000002000900024002500BF1120FFF7D6FF80
:100CC00005460098401C00900521090200988842C2
:100CD00001D0002DF1D01120FFF7C8FF002801D06E
:100CE000012400E00024204638BD01460020C04A0F
:100CF0001068F82302469A431046CA001043BC4AC3
:100D000010607047002806D0B949096801221143D4
:100D1000B74A116005E0B649096849084900B44A74
:100D20001160704701460020B14A506BF82302461B
:100D30009A431046CA001043AD4A506370470028DA
:100D400006D0AB49496B01221143A94A516305E022
:100D5000A749496B49084900A54A516370470028D3
:100D600006D0A349496B04229143A14A516305E08F
:100D70009F49496B042211439D4A516370479C4926
:100D8000096A490849009A4A11621146096A04220F
:100D90009143974A11621146096A014311627047F3
:100DA0009349096A18229143914A11621146096ACE
:100DB000014311627047002806D08D49496A01221B
:100DC00011438B4A516205E08949496A4908490043
:100DD000874A51627047864A52683D231B049A43F2
:100DE000834B5A601A46526803460B431A43804BA2
:100DF0005A607047002807D07D4909680122120611
:100E000011437B4A116006E0794909680122120604
:100E10009143774A1160704701460020744AD06AB6
:100E20000009000102460A431046714AD062704729
:100E3000002807D06E4909680122D20411436C4A88
:100E4000116006E06A4909680122D2049143684AA8
:100E5000116070476649C871704701460020644AB6
:100E600050688008800002460A431046604A50607D
:100E700070475F4840680C210840704701460020D9
:100E80005B4A5068F02302469A43104602460A43E2
:100E90001046574A5060704701460020544A506837
:100EA00007231B0202469A43104602460A43104695
:100EB0004F4A506070474E4949680122920391435E
:100EC0004B4A51601146496882B21143484A516009
:100ED0001146096B92159143454A11631146096BFE
:100EE000020C1143424A116370474149096B402289
:100EF00091433F4A11631146096B014311637047E7
:100F00003B49096B10229143394A11631146096B21
:100F10000143116370473649096B89088900344AD7
:100F200011631146096B014311637047FEB5044616
:100F30000025002600200190009000272C484068E2
:100F40000C2108400546002D04D0042D05D0082DA5
:100F500028D105E02948206027E02848206024E0C7
:100F6000234840680F21890408400646204840680D
:100F70000121090408400190B00C861C019800284A
:100F800003D11F48704320600BE01948C06A000776
:100F9000000F401C00901948009900F027F9704399
:100FA000206002E01548206000BF00BF1048406884
:100FB000F021084005462D091248475D2068F84099
:100FC00060600B48406807210902084005462D0A69
:100FD0000C48475D6068F840A0600548006BFF2141
:100FE00001310840884211D00748E0601CE0000051
:100FF000001002400CB8FFF8FFFFF6FE00127A0066
:1010000000093D00D8090020809FD5007448406841
:10101000012189030840884203D0A0684008E060AD
:1010200002E0A0688008E0606D48006B4021084045
:10103000402802D06B48206102E00120C0032061FB
:101040006748006B10210840102802D06648606194
:1010500001E0206860616248006B8007800F02D168
:10106000A068A06119E05E48006B8007800F01282E
:1010700002D12068A06110E05948006B8007800F02
:10108000022802D18003A06107E05548006B800769
:10109000800F032801D15448A061FEBD5049096A60
:1010A00001434F4A11627047002807D04C49096A32
:1010B0000122D20311434A4A116206E04849096AF3
:1010C0000122D2039143464A11627047002807D09B
:1010D0004349096A012212041143414A116206E0A0
:1010E0003F49096A0122120491433D4A1162704747
:1010F000002905D03A4A52690243394B5A6104E04B
:10110000374A52698243364B5A617047002905D0ED
:10111000334A92690243324B9A6104E0304A926941
:1011200082432F4B9A617047002905D02C4AD2691F
:1011300002432B4BDA6104E0294AD2698243284BEF
:10114000DA617047002905D0254A926A0243244B90
:101150009A6204E0224A926A8243214B9A62704763
:10116000002905D01E4AD26802431D4BDA6004E014
:101170001B4AD26882431A4BDA607047002905D0B7
:10118000174A12690243164B1A6104E0144A1269A5
:101190008243134B1A617047002905D0104A527AD6
:1011A00002430F4B5A7204E00D4A527A82430C4BB1
:1011B0005A7270470A48406A0121090608430849E3
:1011C0004862704701460020054A92680A4201D0F1
:1011D000012000E00020704701498872704700003C
:1011E000001002401280000000127A000022030961
:1011F0008B422CD3030A8B4211D300239C464EE032
:1012000003460B433CD4002243088B4231D30309ED
:101210008B421CD3030A8B4201D394463FE0C3099F
:101220008B4201D3CB01C01A524183098B4201D3B7
:101230008B01C01A524143098B4201D34B01C01AA2
:10124000524103098B4201D30B01C01A5241C3081A
:101250008B4201D3CB00C01A524183088B4201D389
:101260008B00C01A524143088B4201D34B00C01A75
:101270005241411A00D201465241104670475DE08A
:10128000CA0F00D04942031000D34042534000220D
:101290009C4603098B422DD3030A8B4212D3FC22B6
:1012A000890112BA030A8B420CD3890192118B4235
:1012B00008D3890192118B4204D389013AD092114B
:1012C00000E08909C3098B4201D3CB01C01A524106
:1012D00083098B4201D38B01C01A524143098B42CF
:1012E00001D34B01C01A524103098B4201D30B01B8
:1012F000C01A5241C3088B4201D3CB00C01A5241DD
:1013000083088B4201D38B00C01A5241D9D24308C3
:101310008B4201D34B00C01A5241411A00D2014600
:10132000634652415B10104601D34042002B00D56A
:101330004942704763465B1000D3404201B500202C
:10134000C046C04602BD704770477047754600F002
:1013500023F8AE46050069465346C008C0008546DE
:1013600018B020B5FEF7FCFE60BC00274908B64661
:101370000026C0C5C0C5C0C5C0C5C0C5C0C5C0C5A4
:10138000C0C5403D49008D4670470446C046C04632
:101390002046FEF7D4FE000000487047E809002010
:1013A00001491820ABBEFEE726000200704770B569
:1013B0008D180478401CA207920F01D10278401CBE
:1013C000231106D10378401C03E00678401C0E7000
:1013D000491C521EF9D1002B14D002780C26401C57
:1013E0008A1A34400C2C03D0A401121B9B1C07E06A
:1013F0000478401C2402F8E71478521C0C70491C35
:101400005B1EF9D5A942D4D3002070BD00000000B6
:1014100000000000002F000000000700070000147B
:101420007F147F1400242A7F2A1200626408132389
:1014300000364955225000000503000000001C2220
:101440004100000041221C000014083E081400085E
:10145000083E0808000000A060000008080808080E
:10146000000060600000002010080402003E5149A6
:10147000453E0000427F4000004261514946002144
:1014800041454B31001814127F100027454545395E
:10149000003C4A49493000017109050300364949B9
:1014A000493600064949291E000036360000000072
:1014B00056360000000814224100001414141414BD
:1014C0000000412214080002015109060032495966
:1014D000513E007C1211127C007F49494936003E82
:1014E00041414122007F4141221C007F494949413D
:1014F000007F09090901003E4149497A007F080837
:10150000087F0000417F4100002040413F01007FF3
:1015100008142241007F40404040007F020C027FBF
:10152000007F0408107F003E4141413E007F0909D1
:101530000906003E4151215E007F091929460046F7
:10154000494949310001017F0101003F4040403FCE
:10155000001F2040201F003F4038403F0063140818
:1015600014630007087008070061514945430000F3
:101570007F41410000552A552A55000041417F0016
:10158000000402010204004040404040000001020B
:101590000400002054545478007F484444380038F4
:1015A0004444442000384444487F0038545454187C
:1015B00000087E0901020018A4A4A47C007F08048E
:1015C00004780000447D4000004080847D00007F5E
:1015D000102844000000417F4000007C041804787B
:1015E000007C0804047800384444443800FC242477
:1015F00024180018242418FC007C0804040800485F
:101600005454542000043F444020003C4040207C7F
:10161000001C2040201C003C4030403C004428106E
:101620002844001CA0A0A07C004464544C44141422
:10163000141414140000000000000000000000005A
:1016400000000000000000F800000000000000336F
:101650003000000000100C06100C06000000000016
:101660000000000040C07840C0784000043F0404FF
:101670003F040400007088FC08300000001820FFC0
:10168000211E0000F008F000E018000000211C03FB
:101690001E211E0000F00888700000001E21232477
:1016A0001927211010160E00000000000000000095
:1016B00000000000000000E0180402000000000725
:1016C0001820400000020418E0000000004020182C
:1016D00007000000404080F0804040000202010FFF
:1016E00001020200000000F0000000000101011FE3
:1016F00001010100000000000000000080B0700047
:1017000000000000000000000000000000010101D6
:101710000101010100000000000000000030300065
:10172000000000000000000080601804006018063F
:101730000100000000E010080810E000000F102079
:1017400020100F00001010F8000000000020203FC3
:10175000202000000070080808887000003028244D
:1017600022213000003008888848300000182020EE
:1017700020110E000000C02010F800000007042413
:10178000243F240000F80888880808000019212058
:1017900020110E0000E0108888180000000F1120B2
:1017A00020110E0000380808C83808000000003F6B
:1017B000000000000070880808887000001C2221CA
:1017C00021221C0000E010080810E0000000312277
:1017D00022110F00000000C0C00000000000003017
:1017E0003000000000000080000000000000806069
:1017F00000000000000080402010080000010204EA
:1018000008102000404040404040400004040404D0
:10181000040404000008102040800000002010088C
:1018200004020100007048080808F00000000030C1
:1018300036010000C030C828E810E000071827244F
:1018400023140B000000C038E0000000203C2302FD
:101850000227382008F8888888700000203F202060
:1018600020110E00C0300808080838000718202092
:101870002010080008F808080810E000203F202089
:1018800020100F0008F88888E8081000203F20206A
:101890002320180008F88888E8081000203F20005E
:1018A00003000000C0300808083800000718202096
:1018B000221E020008F808000008F808203F210155
:1018C00001213F20000808F8080800000020203F00
:1018D0002020000000000808F8080800C080808070
:1018E0007F00000008F888C028180800203F200169
:1018F0002638200008F8080000000000203F2020C3
:101900002020300008F8F800F8F80800203F003FD9
:10191000003F200008F830C00008F808203F2000F1
:1019200007183F00E01008080810E0000F10202002
:1019300020100F0008F808080808F000203F2101D7
:1019400001010000E01008080810E0000F1824242E
:1019500038504F0008F8888888887000203F2000A1
:10196000030C302000708808080838000038202157
:1019700021221C00180808F8080818000000203F61
:101980002000000008F808000008F808001F2020C8
:1019900020201F000878880000C838080000073899
:1019A0000E010000F80800F80008F800033C0700EA
:1019B000073C0300081868808068180820302C0352
:1019C000032C30200838C800C83808000000203F29
:1019D0002000000010080808C83808002038262118
:1019E00020201800000000FE020202000000007F1C
:1019F00040404000000C30C000000000000000012A
:101A00000638C00000020202FE0000000040404014
:101A10007F00000000000402020204000000000039
:101A200000000000000000000000000080808080B6
:101A3000808080800002020400000000000000009E
:101A40000000000000008080808000000019242237
:101A500022223F2008F8008080000000003F112073
:101A600020110E000000008080800000000E112078
:101A700020201100000000808088F800000E112056
:101A800020103F200000808080800000001F222264
:101A900022221300008080F0888888180020203FD0
:101AA000202000000000808080808000006B9494E3
:101AB0009493600008F8008080800000203F21009F
:101AC00000203F2000809898000000000020203F68
:101AD00020200000000000809898000000C0808056
:101AE000807F000008F8000080808000203F2402F2
:101AF0002D302000000808F8000000000020203FE2
:101B0000202000008080808080808000203F200096
:101B10003F20003F8080008080800000203F210027
:101B200000203F200000808080800000001F2020D7
:101B300020201F00808000808000000080FFA12006
:101B400020110E000000008080808000000E112017
:101B500020A0FF80808080008080800020203F21A6
:101B60002000010000008080808080000033242459
:101B700024241900008080E0808000000000001F05
:101B8000202000008080000000808000001F2020B6
:101B900020103F20808080000080808000010E3077
:101BA0000806010080800080008080800F300C03D8
:101BB0000C300F0000808000808080000020312EDB
:101BC0000E312000808080000080808080818E70B7
:101BD0001806010000808080808080000021302C69
:101BE0002221300000000000807C02020000000082
:101BF000003F404000000000FF0000000000000027
:101C0000FF0000000002027C800000000040403F16
:101C100000000000000601010202040400000000B0
:101C200000000000441C000800000020E80900003B
:101C3000AE130008001F0008E8090020600600003D
:101C4000040100085006006CDC020001501901027A
:101C50000304060708090003050911FF118905C3DC
:101C600000E000F000F81F00083A4428FF11AA44E1
:101C70000001500B83013844829292740183112039
:101C8000087C44FF017D7D7D04410550047D01FFFA
:101C90008D910271A1023B017E81419149F20101C6
:101CA000011BC230083F3F0303F31311011006016B
:101CB000F1116181402005816111F14733414107F4
:101CC000200401C12120A321C11431193137040797
:101CD00036D33303033F3F426006E0E000007FA8B5
:101CE000167FB440040618060A1008000040407F22
:101CF0004040A410041F204001A3201F14330060A3
:101D00000E6004300C03460534C2100407070601B8
:101D1000700904040484444444840780050484C492
:101D2000041501120A71112140073D0707C9200F50
:101D30000000101814121100000F1010100F0F13D4
:101D40001F1015600D081012120D00001800000D74
:101D5000120A51295130015E01528001013B4514A4
:101D6000047F030CA915DE1C0538545458250308BC
:101D70000A2004047800003C40407C2000092CFF2D
:101D8000AAAAAA280800FF68100626494949321065
:101D90001005020408100F0D6F00049D01040D9D35
:101DA0000004156343F80801240500F81860E824CE
:101DB00004806018235720202923E01021A310E07D
:101DC0001449B4313908043C886818630D15FF03C1
:101DD0007DEA039DFF0371144DFF031D06043D2E94
:101DE000040942E91C0640202020C04A04110721B2
:101DF000EA3E40520452600E8118712951070D4786
:101E000069031C060C0A0A090C0004156B2D00045A
:101E10002004080F081510050809090E071D1804ED
:101E200030050909090F0A512951070DFF00040D5A
:101E30002200041F00F056052310FF050E13F07D4D
:101E4000052E0FD9052EFFF2050A120F1B100840B0
:101E5000405F55555575045B5F4080D93C24060FA3
:101E600009498979A30211201F200800FE02424A75
:101E7000CA4A030004124202FEE50C0C1340504C07
:101E80004340404F50505C40EA0413F8880122FF61
:101E9000050E13F8C6072E1F8903227F2003109F0B
:101EA00080E2338082010C0716E2A2928A8682CBFE
:101EB000050C041640807F24080C0B142424A4FE77
:101EC000A3220022CC0088051F0806E5083E011D5C
:101ED000070C0510FF020202DB06257C539008C3A5
:101EE000FE0884070C0F180444827F018080404361
:101EF0002C102846816B062DD0096DD409000000F6
:04000005080000C12E
:00000001FF
