:020000040800F2
:1000000070080020D50000084703000843030008DB
:1000100000000000000000000000000000000000E0
:1000200000000000000000000000000005060008BD
:1000300000000000000000002D040008DD0600089C
:10004000E7000008E7000008E7000008E7000008F4
:10005000E7000008E7000008E7000008E7000008E4
:10006000E7000008E7000008E7000008E7000008D4
:10007000E7000008E7000008E7000008E7000008C4
:10008000E7000008E700000800000000E7000008A3
:10009000E7000008E7000008E7000008E7000008A4
:1000A000E7000008E7000008E700000879070008FB
:1000B000E700000800000000E70000080000000062
:1000C0000348854600F06EF800480047A50F000879
:1000D000700800200448804704480047FEE7FEE718
:1000E000FEE7FEE7FEE7FEE7E5060008C1000008C0
:1000F00030B50B46014600202022012409E00D46C0
:10010000D5409D4205D31D469540491B2546954047
:1001100040191546521E002DF1DC30BD70B500248B
:100120002546002801DA01244042002901DA012590
:100130004942FFF7DDFFAC4200D04042002C00D026
:10014000494270BDF0B51FB40646002082B0054696
:100150004024019100901BE0019922460F46304651
:1001600000F042F8049A059B801A994110D310467A
:100170001946224600F028F8361A8F410197224688
:1001800001200021009F00F01FF838184D41009019
:100190002046641E0028DFDC019B00982946324679
:1001A00007B0F0BD064C0125064E05E02046E36889
:1001B00007C82B4398471034B442F7D3FFF784FFA6
:1001C00084130008A413000810B5202A04DB01469C
:1001D000203A9140002010BD914020239C1A0346F4
:1001E000E3401943904010BD10B5202A04DB0846B7
:1001F000203AD040002110BD0B46D340D0402024EF
:10020000A21A91400843194610BD00001CB50120F8
:100210008003009001216846017100218171032152
:1002200041710121C1716946014800F013F81CBDFC
:10023000000800480649086004E005490968491EAD
:10024000034A1160024909680029F6D1704700008D
:1002500014000020F0B50A4600210023002400BF4E
:100260003DE001258D402B4615681D402C469C42E3
:1002700034D11579012D02D01579022D16D185685A
:100280004F000326BE40B543856055794E00B5400A
:10029000866835438560858801268E40B543858014
:1002A000858896798E40B6B23543858005684F00C3
:1002B0000326BE40B543056015794E00B54006687B
:1002C00035430560C5684F000326BE40B543C56091
:1002D000D5794E00B540C6683543C560491C102924
:1002E000BFD3F0BDF0B5002300244D07EE0E154638
:1002F000B5402B46CD10AE0005462035AD594E0712
:10030000F70E0F26BE40B543CE10B6000746203785
:10031000BD51CD10AE003D46AD591D432C46CD100C
:10032000AD003E467451F0BD02460020138A0B42D8
:1003300001D0012000E000207047018570478161F5
:10034000704700BFFEE7704700218278002A27D05F
:10035000184A03231B02D21803789B109B00D15824
:1003600002789207D30EFF229A400B469343194618
:1003700042789207120E03789B07DB0E9A401143D6
:100380000C4A03231B02D21803789B109B00D15008
:100390000278D306DB0E01229A40064B1A6007E072
:1003A0000278D306DB0E01229A40024B80331A609A
:1003B0007047000000E100E008B51B2168460170AD
:1003C0000021417001218170FFF7BEFF08BD10B50B
:1003D0000121C80400F02CF810BD00001CB501205C
:1003E0004003009000216846017181710321417131
:1003F0000121C17169460248FFF72CFF1CBD0000B6
:10040000000800481CB50120400300900121684607
:10041000017100218171032141710121C17169467E
:100420000148FFF717FF1CBD000800487047000097
:10043000002905D0054A52690243044B5A6104E081
:10044000024A52698243014B5A61704700100240D0
:10045000002905D0054A92690243044B9A6104E0E1
:10046000024A92698243014B9A6170470010024030
:10047000FEB50446002500260020019000900027CC
:10048000504840680C2108400546002D04D0042D3A
:1004900005D0082D28D105E04B48206027E04A48C8
:1004A000206024E0474840680F2189040840064640
:1004B000444840680121090408400190B00C861CA2
:1004C0000198002803D14148704320600BE03D486B
:1004D000C06A0007000F401C00903B480099FFF7DE
:1004E00007FE7043206002E03748206000BF00BF75
:1004F00034484068F021084005462D093448475DDE
:100500002068F84060602F484068072109020840D1
:1005100005462D0A2E48475D6068F840A0602948CE
:10052000006BFF2101310840884202D02948E06079
:100530000DE024484068012189030840884203D027
:10054000A0684008E06002E0A0688008E0601D4804
:10055000006B40210840402802D01F48206102E083
:100560000120C00320611748006B102108401028AB
:1005700002D01548606101E0206860611148006B9D
:100580008007800F02D1A068A06119E00D48006BC0
:100590008007800F012802D12068A06110E009487F
:1005A000006B8007800F022802D18003A06107E062
:1005B0000448006B8007800F032801D10248A06126
:1005C000FEBD00000010024000127A0000093D004C
:1005D00018000020809FD500128000001CB501206B
:1005E000C0030090002168460171817103214171AF
:1005F0000121C17169460248FFF72CFE1CBD0000B5
:1006000000080048704700000CB5002001900090E1
:10061000304800680121090408432E49086000BFE2
:100620002C48006801214904084000900198401CB2
:1006300001900098002804D1052109020198884200
:10064000EED12448006801214904084202D001206B
:10065000009001E0002000900098012838D111207E
:100660001D4908601B4840681A49486008464068B0
:100670004860084640683F2109048843154948609E
:100680000846406811210904084312494860084699
:1006900000680121090608430E49086000BF0D48A3
:1006A0000068012149060842F9D00A4840688008DC
:1006B000800008494860084640680221084305490F
:1006C000486000BF034840680C2108400828F9D161
:1006D0000CBD0000001002400020024010B500F0E8
:1006E0003FF810BD10B51B480068012108431949A7
:1006F000086008464068184908401649486008469E
:10070000006816490840134908600846006801213E
:10071000890488430F490860084640683F2109045E
:1007200088430C4948600846C06A00090001C86255
:100730000846006BFF215431884306490863084688
:10074000406B40084000486300208860FFF75CFF72
:1007500010BD0000001002400CB8FFF8FFFFF6FECD
:1007600004480068002804D002480068401E01497F
:10077000086070471400002010B50A490A4800F0CC
:1007800080F800280CD0084800F02EF94406640ECA
:100790002146054800F02DF90249034800F006F80B
:1007A00010BD0000050105000038014010B5002310
:1007B00000220B0C01249C402246026210BD00293D
:1007C00004D0026801231A43026003E00268520861
:1007D000520002607047000000B589B00121480452
:1007E000FFF726FE01218803FFF732FEE1204002D9
:1007F0000390002004900590069008900C2007902C
:1008000001220921C806FFF76DFD01220A210920F6
:10081000C006FFF767FD01204002019002216846F3
:10082000017203214172002181720121C17201A96B
:100830000920C006FFF70EFD01208002019001A9EA
:100840000920C006FFF706FD03A9074800F062F87B
:1008500001220649044800F03BF801210248FFF755
:10086000AEFF09B000BD00000038014005010500E1
:1008700002460020D3690B4201D0012000E0002095
:10088000704770B502460B46002400210025002069
:100890001E04350ED9B201268E403146012D02D1FB
:1008A0001668314006E0022D02D15668314001E061
:1008B000966831401C0C0126A6403446D669344067
:1008C000002903D0002C01D0012000E0002070BDE1
:1008D000F8B503460024002600960025002018469F
:1008E0000E04340ECEB200960127009EB7403D465E
:1008F000022C01D1001D02E0032C00D10830002A97
:1009000003D006682E43066002E00668AE43066028
:10091000F8BD0000F0B589B004460D460027002060
:100920000890002620684008400020606668032187
:100930000903304688430646A86806436660266871
:1009400026480640E9686868084329690843064361
:100950002660A66803210902304688430646686976
:100960000643A66001A8FFF783FD1D48844202D11B
:100970000798089001E00398089020680121C903B6
:1009800008420CD02968089A5000FFF7B1FB0746CF
:100990002968089A5000FFF7ABFB0E4609E029686A
:1009A0000898FFF7A5FB074629680898FFF7A0FB02
:1009B0000E4628684008B04200D87F1C20680121FC
:1009C000C903084206D03807460F38460549084093
:1009D00030430746A78109B0F0BD0000F3E9FFFFEF
:1009E00000380140F0FF00000146888CC005C00DB2
:1009F0007047CA05D20D0285704700000FB410B5CC
:100A000003A9044B044A029800F018F810BC08BC73
:100A100004B01847CD0E00082800002002E008C8E6
:100A2000121F08C1002AFAD170477047002001E068
:100A300001C1121F002AFBD170470000FFB591B021
:100A40000F4605460026F9E0252876D100246D1CC6
:100A5000FB4A0094012102942B780846203B9840E1
:100A60000346134202D004436D1CF5E728782A2878
:100A70000ED0022128780246303A092A15D8009A69
:100A80000A235A43303A80180C436D1C0090F1E75A
:100A900001CF0090002805DA0120400304430098AC
:100AA00040420090022004436D1C28782E2815D166
:100AB000042004436D1C28782A280AD101CF6D1C1C
:100AC00002900BE002990A225143303940186D1C04
:100AD00002902878014630390929F3D928786C2802
:100AE00010D006DC4C281AD068280ED06A2817D1FE
:100AF00004E0742813D07A2812D110E001204005B8
:100B000004430CE00121090501E0032109050C4320
:100B10006978814203D101206D1C000524186D1CE9
:100B2000287803906E281FD00DDC632833D005DCB5
:100B300000287DD0582812D1BEE010E0642801D0F2
:100B400069280CD181E073282FD004DC6F2870D085
:100B5000702804D1B2E075286CD078286BD0149A34
:100B600013999047761C68E06002400F022807D076
:100B700003280AD0042838680AD03F1D06605CE0CC
:100B800001CFF1170660416057E001CF068054E0C5
:100B90003F1D067051E0387869460874002048749B
:100BA00004A83F1D0390012003E001CF0390002023
:100BB000C04361070FD5002101E00199491C029A49
:100BC0000191914213DA8142F7DB019A0399895C22
:100BD0000029F2D10BE0002101E00199491C0191AB
:100BE0008142FADB019A0399895C0029F5D10199C8
:100BF0000098139A401A00902146149B00F046F981
:100C000001998019461807E0039803990078491C58
:100C10000391149A139990470198401E0190401C2B
:100C2000F2D12146149B139A009800F01FF903E0BB
:100C300008E04CE03EE03FE086196D1C2878002873
:100C400000D001E7304615B0F0BD0A200021049025
:100C500005916002410F022905D001CFC2179446C9
:100C6000032907D009E0FF1DFF08FF0079683868F5
:100C7000083706E000B2C2179446042902D140B2F8
:100C8000C1178C4600226146944506DA0A460021C7
:100C9000404291418C462D2102E0210504D52B21B3
:100CA0006A461176012103E0E10701D02021F7E730
:100CB000019150E00A200BE0102009E01020049080
:100CC00000210420044308200591029003E008203D
:100CD0000021059104906002410F022905D001CF47
:100CE00000229446032908D008E0FF1DFF08FF00FA
:100CF0007968386808378C4603E080B2042900D14F
:100D0000C0B200210191210725D5039970292AD06D
:100D1000049A1021059B4A401A4309D161460143B8
:100D200006D030216A46117603995176022101914D
:100D3000049A0821059B4A401A430CD1614601439D
:100D400001D1610707D530216A4611760121019151
:100D50000299491E02910399582909D039A103919A
:100D60000FA90F9112E040216A4611760121DEE7BA
:100D700039A1F4E76146059B049AFFF7E3F9039B69
:100D80008C469B5C0F9A521E0F9213706146014372
:100D9000F0D10F9807A9081A20300390600704D5F6
:100DA000012000048443029801E00120029003998D
:100DB000884201DD401A00E00020411802900198AD
:100DC00009180098401A0090E00306D42146149BAD
:100DD000139A009800F05AF88619002007E006A937
:100DE000085C149A139990470498761C401C01994A
:100DF00004908842F3DBE0030CD52146149B139A40
:100E0000009800F043F8861904E0149A30201399F2
:100E10009047761C0299481E02900029F5DC08E0F4
:100E20000F980F990078491C0F91149A13999047C5
:100E3000761C0399481E03900029F1DCF1E60000BE
:100E400009280100303132333435363738396162A0
:100E50006364656600000000303132333435363764
:100E6000383941424344454600000000F8B5044685
:100E700000251E461746880404D405E03946202084
:100E8000B0476D1C641EF9D52846F8BDFFB5044671
:100E9000002581B01E46C80301D5302700E0202779
:100EA000880404D505E038460399B0476D1C641EDC
:100EB000F9D5284605B0F0BD0A21414388B200BFEC
:100EC000411E89B20800FBD17047000070B504468E
:100ED0000D46E1B20548FFF78CFD00BF40210348F5
:100EE000FFF7C6FC0028F9D0204670BD003801404D
:100EF00010B5FFF787FAFFF789F9012149030B487D
:100F0000FFF71DFA0520FFF7D7FF012189030748E6
:100F1000FFF715FA0520FFF7CFFF0121490303482A
:100F2000FFF70BFA0520FFF7C7FF10BD00080048C8
:100F300010B5FFF767FAFFF769F9012149030B487C
:100F4000FFF7FBF90520FFF7B7FF012189030748E9
:100F5000FFF7F5F90520FFF7AFFF0121490303482B
:100F6000FFF7EDF90520FFF7A7FF10BD00080048C7
:100F700010B5FFF72CFAFFF745FAFFF747F9FFF72F
:100F80002DFB012149030648FFF7D9F90121890307
:100F90000348FFF7D4F90520FFF78EFF10BD0000CE
:100FA0000008004800260027FFF79CFBFFF714FC11
:100FB000FFF702FA46A0FFF721FD4AA0FFF71EFD4A
:100FC0004CA0FFF71BFD002405E04D480655701CA2
:100FD000C6B2601C84B2402CF7DB00240BE0E5B203
:100FE0002A462146A02000F0A3F9294645A0FFF794
:100FF00005FD601C84B27D20C0008442EFDB3CA074
:10100000FFF7FCFC4148FFF715F95FE040A0FFF750
:10101000F5FC00240AE02146A02000F0BDF80546BA
:10102000294638A0FFF7EAFC601C84B27D20C0008E
:101030008442F0DB781CC7B2032F02DD3348FFF790
:10104000F9F83248FFF7F6F83048FFF7F3F82F4881
:10105000FFF7F0F82D48FFF7EDF82C48FFF7EAF816
:101060002A48FFF7E7F82948FFF7E4F82748FFF791
:10107000E1F82648FFF7DEF82448FFF7DBF82348BD
:10108000FFF7D8F82148FFF7D5F82048FFF7D2F846
:101090001E48FFF7CFF81D48FFF7CCF81B48FFF7B5
:1010A000C9F81A48FFF7C6F81848FFF7C3F81748F9
:1010B000FFF7C0F81548FFF7BDF81448FFF7BAF876
:1010C0001248FFF7B7F81148FFF7B4F89EE70000A1
:1010D00020496E69742073797374656D204F4B20BD
:1010E000200D0A00205072696E7466204F4B20203C
:1010F0000D0A0000777269746520646174613D00B7
:101100002C040020253032582020200050C300003D
:101110000D0A526561642020446174613D00000045
:1011200070B5FFF76FF9FFF771F8012189031948CE
:10113000FFF703F90520FFF7BFFE0121490315481A
:10114000FFF7FDF80520FFF7B7FEFFF747F9002589
:101150001CE0012189030F48FFF7F1F80520FFF794
:10116000ABFE6006040E012149030A48FFF7DCF8D4
:10117000002801D001200443012189030548FFF71D
:10118000DCF80520FFF798FE681CC5B2082DE0DBEF
:10119000204670BD00080048F8B504460D46FF2102
:1011A0002846FEF7BBFFC7B2FF212846FEF7B6FF71
:1011B000C8B20090FFF7DCFEFFF79AFE204600F071
:1011C00075F800F04BF8384600F070F800F046F87B
:1011D000009800F06BF800F041F8FFF789FE611C01
:1011E000C8B200F063F800F039F8FFF799FF06463F
:1011F000012000F005F8FFF79BFE3046F8BD000027
:1012000010B50446FFF7FEF8FFF700F8002C05D0F4
:10121000012149031048FFF790F804E00121490338
:101220000D48FFF78CF8012189030B48FFF787F879
:101230000520FFF741FE012189030748FFF77DF8EC
:101240000520FFF739FE012149030348FFF777F82E
:101250000520FFF731FE10BD0008004810B500243E
:10126000FFF7BCF8FEF7D2FF012189030E48FFF714
:1012700066F80520FFF720FE01E0601C84B2012122
:1012800049030948FFF750F8002803D001208002E5
:101290008442F2DB012189030348FFF74EF8052061
:1012A000FFF70AFE10BD00000008004870B50446B4
:1012B000FFF7A8F8FEF7AAFF002523E00121890324
:1012C0001A48FFF73AF80520FFF7F6FD80200442A0
:1012D00004D081011548FFF732F804E001214903E9
:1012E0001248FFF72AF86006040E0520FFF7E4FD18
:1012F000012189030D48FFF722F80520FFF7DCFDE7
:10130000681CC5B2082DD9DB012189030748FFF706
:1013100014F80520FFF7D0FD012149030348FFF72A
:101320000EF80520FFF7C8FD70BD0000000800485A
:10133000F8B506460C461546FF212046FEF7EEFEA0
:10134000C7B2FF212046FEF7E9FEC8B20090FFF7C2
:101350000FFEFFF7CDFD3046FFF7A8FFFFF77EFF3A
:101360003846FFF7A3FFFFF779FF0098FFF79EFFCE
:10137000FFF774FF2846FFF799FFFFF76FFFFFF7AE
:10138000D7FDF8BDA4130008000000202C000000C9
:101390001C0A0008D01300082C000020440800009C
:1013A0002C0A00086173646667686A000000000028
:1013B000000000000000000000000000000000002D
:1013C00001020304010203040607080900000000EB
:04000005080000C12E
:00000001FF
